{"contracts/Intran3tRBAC.sol":{"Intran3tRBAC":{"abi":[{"inputs":[],"stateMutability":"nonpayable","type":"constructor"},{"inputs":[],"name":"CannotRevokeSelf","type":"error"},{"inputs":[],"name":"CredentialAlreadyRevoked","type":"error"},{"inputs":[],"name":"CredentialExpired","type":"error"},{"inputs":[],"name":"CredentialNotFound","type":"error"},{"inputs":[],"name":"InvalidOrganizationName","type":"error"},{"inputs":[],"name":"OrganizationExists","type":"error"},{"inputs":[],"name":"OrganizationNotFound","type":"error"},{"inputs":[],"name":"Unauthorized","type":"error"},{"anonymous":false,"inputs":[{"indexed":true,"internalType":"bytes32","name":"credentialId","type":"bytes32"},{"indexed":true,"internalType":"bytes32","name":"orgId","type":"bytes32"},{"indexed":true,"internalType":"address","name":"subject","type":"address"},{"indexed":false,"internalType":"enum Intran3tRBAC.Role","name":"role","type":"uint8"},{"indexed":false,"internalType":"address","name":"issuedBy","type":"address"},{"indexed":false,"internalType":"uint256","name":"timestamp","type":"uint256"}],"name":"CredentialIssued","type":"event"},{"anonymous":false,"inputs":[{"indexed":true,"internalType":"bytes32","name":"orgId","type":"bytes32"},{"indexed":true,"internalType":"address","name":"subject","type":"address"},{"indexed":true,"internalType":"address","name":"revokedBy","type":"address"},{"indexed":false,"internalType":"uint256","name":"timestamp","type":"uint256"}],"name":"CredentialRevoked","type":"event"},{"anonymous":false,"inputs":[{"indexed":true,"internalType":"bytes32","name":"orgId","type":"bytes32"},{"indexed":true,"internalType":"address","name":"owner","type":"address"},{"indexed":false,"internalType":"string","name":"name","type":"string"},{"indexed":false,"internalType":"uint256","name":"timestamp","type":"uint256"}],"name":"OrganizationCreated","type":"event"},{"anonymous":false,"inputs":[{"indexed":true,"internalType":"bytes32","name":"orgId","type":"bytes32"},{"indexed":true,"internalType":"address","name":"subject","type":"address"},{"indexed":false,"internalType":"enum Intran3tRBAC.Role","name":"oldRole","type":"uint8"},{"indexed":false,"internalType":"enum Intran3tRBAC.Role","name":"newRole","type":"uint8"},{"indexed":false,"internalType":"uint256","name":"timestamp","type":"uint256"}],"name":"RoleUpdated","type":"event"},{"inputs":[{"internalType":"string","name":"name","type":"string"}],"name":"createOrganization","outputs":[{"internalType":"bytes32","name":"orgId","type":"bytes32"}],"stateMutability":"nonpayable","type":"function"},{"inputs":[{"internalType":"bytes32","name":"","type":"bytes32"},{"internalType":"address","name":"","type":"address"}],"name":"credentials","outputs":[{"internalType":"bytes32","name":"id","type":"bytes32"},{"internalType":"bytes32","name":"orgId","type":"bytes32"},{"internalType":"address","name":"subject","type":"address"},{"internalType":"enum Intran3tRBAC.Role","name":"role","type":"uint8"},{"internalType":"address","name":"issuedBy","type":"address"},{"internalType":"uint256","name":"issuedAt","type":"uint256"},{"internalType":"uint256","name":"expiresAt","type":"uint256"},{"internalType":"bool","name":"revoked","type":"bool"}],"stateMutability":"view","type":"function"},{"inputs":[{"internalType":"bytes32","name":"orgId","type":"bytes32"},{"internalType":"address","name":"user","type":"address"}],"name":"getCredential","outputs":[{"components":[{"internalType":"bytes32","name":"id","type":"bytes32"},{"internalType":"bytes32","name":"orgId","type":"bytes32"},{"internalType":"address","name":"subject","type":"address"},{"internalType":"enum Intran3tRBAC.Role","name":"role","type":"uint8"},{"internalType":"address","name":"issuedBy","type":"address"},{"internalType":"uint256","name":"issuedAt","type":"uint256"},{"internalType":"uint256","name":"expiresAt","type":"uint256"},{"internalType":"bool","name":"revoked","type":"bool"}],"internalType":"struct Intran3tRBAC.Credential","name":"credential","type":"tuple"}],"stateMutability":"view","type":"function"},{"inputs":[{"internalType":"bytes32","name":"orgId","type":"bytes32"}],"name":"getMemberCount","outputs":[{"internalType":"uint32","name":"count","type":"uint32"}],"stateMutability":"view","type":"function"},{"inputs":[{"internalType":"bytes32","name":"orgId","type":"bytes32"}],"name":"getOrganization","outputs":[{"components":[{"internalType":"bytes32","name":"id","type":"bytes32"},{"internalType":"string","name":"name","type":"string"},{"internalType":"address","name":"owner","type":"address"},{"internalType":"uint256","name":"createdAt","type":"uint256"},{"internalType":"uint32","name":"memberCount","type":"uint32"},{"internalType":"bool","name":"exists","type":"bool"}],"internalType":"struct Intran3tRBAC.Organization","name":"organization","type":"tuple"}],"stateMutability":"view","type":"function"},{"inputs":[{"internalType":"bytes32","name":"orgId","type":"bytes32"}],"name":"getOrganizationMembers","outputs":[{"internalType":"address[]","name":"members","type":"address[]"}],"stateMutability":"view","type":"function"},{"inputs":[{"internalType":"bytes32","name":"orgId","type":"bytes32"},{"internalType":"address","name":"user","type":"address"}],"name":"getUserRole","outputs":[{"internalType":"enum Intran3tRBAC.Role","name":"role","type":"uint8"},{"internalType":"bool","name":"hasRole","type":"bool"}],"stateMutability":"view","type":"function"},{"inputs":[{"internalType":"bytes32","name":"orgId","type":"bytes32"},{"internalType":"address","name":"user","type":"address"},{"internalType":"enum Intran3tRBAC.Action","name":"action","type":"uint8"},{"internalType":"enum Intran3tRBAC.Resource","name":"resource","type":"uint8"}],"name":"hasPermission","outputs":[{"internalType":"bool","name":"","type":"bool"}],"stateMutability":"view","type":"function"},{"inputs":[{"internalType":"bytes32","name":"orgId","type":"bytes32"},{"internalType":"address","name":"subject","type":"address"},{"internalType":"enum Intran3tRBAC.Role","name":"role","type":"uint8"},{"internalType":"uint256","name":"expiresAt","type":"uint256"}],"name":"issueCredential","outputs":[{"internalType":"bytes32","name":"credentialId","type":"bytes32"}],"stateMutability":"nonpayable","type":"function"},{"inputs":[{"internalType":"bytes32","name":"","type":"bytes32"},{"internalType":"uint256","name":"","type":"uint256"}],"name":"orgMembers","outputs":[{"internalType":"address","name":"","type":"address"}],"stateMutability":"view","type":"function"},{"inputs":[{"internalType":"bytes32","name":"","type":"bytes32"}],"name":"organizations","outputs":[{"internalType":"bytes32","name":"id","type":"bytes32"},{"internalType":"string","name":"name","type":"string"},{"internalType":"address","name":"owner","type":"address"},{"internalType":"uint256","name":"createdAt","type":"uint256"},{"internalType":"uint32","name":"memberCount","type":"uint32"},{"internalType":"bool","name":"exists","type":"bool"}],"stateMutability":"view","type":"function"},{"inputs":[{"internalType":"bytes32","name":"orgId","type":"bytes32"},{"internalType":"address","name":"subject","type":"address"}],"name":"revokeCredential","outputs":[],"stateMutability":"nonpayable","type":"function"},{"inputs":[{"internalType":"bytes32","name":"orgId","type":"bytes32"},{"internalType":"address","name":"subject","type":"address"},{"internalType":"enum Intran3tRBAC.Role","name":"newRole","type":"uint8"}],"name":"updateRole","outputs":[],"stateMutability":"nonpayable","type":"function"}],"evm":{"bytecode":{"linkReferences":{},"object":"608060405234801561001057600080fd5b506000600355611cbe806100256000396000f3fe608060405234801561001057600080fd5b50600436106100cf5760003560e01c80637622f0421161008c578063acd7facd11610066578063acd7facd14610203578063ba51b14e14610226578063c1f8218a1461024b578063f078e5db1461026b57600080fd5b80637622f04214610187578063877c5e2c146101b257806393f36bd8146101c557600080fd5b806310548797146100d457806322b3cd4e146100e9578063263a77ef1461011257806328073c7c14610133578063610070f0146101535780636427acca14610174575b600080fd5b6100e76100e2366004611595565b6102ea565b005b6100fc6100f73660046115c1565b610450565b604051610109919061162a565b60405180910390f35b610125610120366004611595565b61057c565b6040516101099291906116cc565b610146610141366004611595565b6106a5565b60405161010991906116e9565b61016661016136600461176b565b6107a5565b604051908152602001610109565b6101666101823660046117c5565b61081f565b61019a610195366004611876565b6109ac565b6040516001600160a01b039091168152602001610109565b6100e76101c0366004611898565b6109e4565b6101ee6101d33660046115c1565b60009081526020819052604090206004015463ffffffff1690565b60405163ffffffff9091168152602001610109565b6102166102113660046118d4565b610b3a565b6040519015158152602001610109565b6102396102343660046115c1565b610c86565b6040516101099695949392919061192d565b61025e6102593660046115c1565b610d5b565b604051610109919061197c565b6102d6610279366004611595565b60016020818152600093845260408085209091529183529120805491810154600282015460038301546004840154600585015460069095015493946001600160a01b038085169560ff600160a01b90960486169594909116931688565b6040516101099897969594939291906119c9565b6000828152602081905260409020600401548290600160201b900460ff1661032557604051639551f8b360e01b815260040160405180910390fd5b826103308133610dc7565b61034c576040516282b42960e81b815260040160405180910390fd5b60008481526001602090815260408083206001600160a01b0380881685529252909120600281015490911661039457604051632dc6675360e21b815260040160405180910390fd5b336001600160a01b038516036103bd5760405163373d752960e01b815260040160405180910390fd5b60068101805460ff191660011790556103d68585610ef5565b60008581526002602090815260408083205483835292819020600401805463ffffffff191663ffffffff90941693909317909255905142815233916001600160a01b0387169188917fa3c406139cb7c877d96b790d54ab43bf55058b2d40cec2dd4c5723300e50515e910160405180910390a45050505050565b6040805160c08101825260008082526060602083018190529282018190529181018290526080810182905260a081019190915260008281526020818152604091829020825160c081019093528054835260018101805491928401916104b490611a1f565b80601f01602080910402602001604051908101604052809291908181526020018280546104e090611a1f565b801561052d5780601f106105025761010080835404028352916020019161052d565b820191906000526020600020905b81548152906001019060200180831161051057829003601f168201915b505050918352505060028201546001600160a01b031660208201526003820154604082015260049091015463ffffffff81166060830152600160201b900460ff16151560809091015292915050565b60008281526001602081815260408084206001600160a01b0386811686529083528185208251610100810184528154815294810154938501939093526002830154908116918401919091528392839290916060830190600160a01b900460ff1660038111156105ed576105ed611694565b60038111156105fe576105fe611694565b815260038201546001600160a01b03908116602083015260048301546040808401919091526005840154606084015260069093015460ff1615156080909201919091529082015191925016158061065657508060e001515b156106695760026000925092505061069e565b60008160c0015111801561068057508060c0015142115b156106935760026000925092505061069e565b606001519150600190505b9250929050565b6040805161010081018252600080825260208201819052918101829052606081018290526080810182905260a0810182905260c0810182905260e081019190915260008381526001602081815260408084206001600160a01b0387811686529083529381902081516101008101835281548152938101549284019290925260028201549384169083015290916060830190600160a01b900460ff16600381111561075157610751611694565b600381111561076257610762611694565b815260038201546001600160a01b03166020820152600482015460408201526005820154606082015260069091015460ff16151560809091015290505b92915050565b6000848152602081905260408120600401548590600160201b900460ff166107e057604051639551f8b360e01b815260040160405180910390fd5b856107eb8133610dc7565b610807576040516282b42960e81b815260040160405180910390fd5b6108148787873388611011565b979650505050505050565b6000815160001480610832575060408251115b1561085057604051631b0b678d60e31b815260040160405180910390fd5b61085a823361121f565b600081815260208190526040902060040154909150600160201b900460ff161561089757604051631d21327d60e01b815260040160405180910390fd5b6040805160c0810182528281526020808201858152338385015242606084015260016080840181905260a084018190526000868152928390529390912082518155905191929091908201906108ec9082611aa8565b5060408201516002820180546001600160a01b0319166001600160a01b039092169190911790556060820151600382015560808201516004909101805460a09093015163ffffffff90921664ffffffffff1990931692909217600160201b91151591909102179055610962813360008181611011565b50336001600160a01b0316817f3e593b27b72277702561f73a85195c02dd25b324183253d096a6e84b53d7ce74844260405161099f929190611b68565b60405180910390a3919050565b600260205281600052604060002081815481106109c857600080fd5b6000918252602090912001546001600160a01b03169150829050565b6000838152602081905260409020600401548390600160201b900460ff16610a1f57604051639551f8b360e01b815260040160405180910390fd5b83610a2a8133610dc7565b610a46576040516282b42960e81b815260040160405180910390fd5b60008581526001602090815260408083206001600160a01b03808916855292529091206002810154909116610a8e57604051632dc6675360e21b815260040160405180910390fd5b600681015460ff1615610ab457604051633e3c14b160e11b815260040160405180910390fd5b600281018054600160a01b80820460ff16928792909160ff60a01b1990911690836003811115610ae657610ae6611694565b0217905550856001600160a01b0316877f29ef24661d99cbc3b2c8ec400aadb4bb814214d294afc41fc7791acb3aced679838842604051610b2993929190611b8a565b60405180910390a350505050505050565b600084815260208190526040812060040154600160201b900460ff16610b6257506000610c7e565b60008581526001602081815260408084206001600160a01b0389811686529083528185208251610100810184528154815294810154938501939093526002830154908116918401919091526060830190600160a01b900460ff166003811115610bcd57610bcd611694565b6003811115610bde57610bde611694565b815260038201546001600160a01b03908116602083015260048301546040808401919091526005840154606084015260069093015460ff16151560809092019190915290820151919250161580610c3657508060e001515b15610c45576000915050610c7e565b60008160c00151118015610c5c57508060c0015142115b15610c6b576000915050610c7e565b610c7a81606001518585611254565b9150505b949350505050565b60006020819052908152604090208054600182018054919291610ca890611a1f565b80601f0160208091040260200160405190810160405280929190818152602001828054610cd490611a1f565b8015610d215780601f10610cf657610100808354040283529160200191610d21565b820191906000526020600020905b815481529060010190602001808311610d0457829003601f168201915b505050506002830154600384015460049094015492936001600160a01b039091169290915063ffffffff811690600160201b900460ff1686565b600081815260026020908152604091829020805483518184028101840190945280845260609392830182828015610dbb57602002820191906000526020600020905b81546001600160a01b03168152600190910190602001808311610d9d575b50505050509050919050565b60008281526001602081815260408084206001600160a01b038681168652908352818520825161010081018452815481529481015493850193909352600283015490811691840191909152839291906060830190600160a01b900460ff166003811115610e3657610e36611694565b6003811115610e4757610e47611694565b815260038201546001600160a01b03908116602083015260048301546040808401919091526005840154606084015260069093015460ff16151560809092019190915290820151919250161580610e9f57508060e001515b15610eae57600091505061079f565b60008160c00151118015610ec557508060c0015142115b15610ed457600091505061079f565b600081606001516003811115610eec57610eec611694565b14949350505050565b6000828152600260205260408120905b815481101561100b57826001600160a01b0316828281548110610f2a57610f2a611bb3565b6000918252602090912001546001600160a01b031603610ff95781548290610f5490600190611bdf565b81548110610f6457610f64611bb3565b9060005260206000200160009054906101000a90046001600160a01b0316828281548110610f9457610f94611bb3565b9060005260206000200160006101000a8154816001600160a01b0302191690836001600160a01b0316021790555081805480610fd257610fd2611bf2565b600082815260209020810160001990810180546001600160a01b031916905501905561100b565b8061100381611c08565b915050610f05565b50505050565b600061101b611458565b9050604051806101000160405280828152602001878152602001866001600160a01b0316815260200185600381111561105657611056611694565b81526001600160a01b03858116602080840191909152426040808501919091526060808501889052600060809095018590528b855260018084528286208c861687528452948290208651815592860151948301949094558401516002820180546001600160a01b0319811692909416918217815593850151919391926001600160a81b03191617600160a01b8360038111156110f4576110f4611694565b021790555060808201516003820180546001600160a01b0319166001600160a01b0390921691909117905560a0820151600482015560c0820151600582015560e0909101516006909101805460ff191691151591909117905561115786866114af565b6111ba57600086815260026020908152604080832080546001810182558185528385200180546001600160a01b0319166001600160a01b038b161790558984525491839052909120600401805463ffffffff191663ffffffff9092169190911790555b600380549060006111ca83611c08565b9190505550846001600160a01b031686827f5acbd21a5cf96723712686ed23534969240df6498893b2a15b0fb3a75c11211387874260405161120e93929190611c21565b60405180910390a495945050505050565b600082824260405160200161123693929190611c49565b60405160208183030381529060405280519060200120905092915050565b60008084600381111561126957611269611694565b0361127657506001611451565b600384600381111561128a5761128a611694565b0361137e5760008260058111156112a3576112a3611694565b036112fe5760008360068111156112bc576112bc611694565b14806112da575060055b8360068111156112d8576112d8611694565b145b806112f7575060015b8360068111156112f5576112f5611694565b145b9050611451565b600182600581111561131257611312611694565b148061132f5750600282600581111561132d5761132d611694565b145b1561133b5760016112e3565b600382600581111561134f5761134f611694565b0361137657600183600681111561136857611368611694565b14806112f7575060066112e3565b506000611451565b600184600381111561139257611392611694565b036114145760008260058111156113ab576113ab611694565b036113b75760056112c6565b60018260058111156113cb576113cb611694565b036113d75760006112c6565b60028260058111156113eb576113eb611694565b14806114085750600382600581111561140657611406611694565b145b156113765760016112e3565b600284600381111561142857611428611694565b0361144d57600282600581111561144157611441611694565b036113765760016112e3565b5060005b9392505050565b6000600354423360405160200161149493929190928352602083019190915260601b6bffffffffffffffffffffffff1916604082015260540190565b60405160208183030381529060405280519060200120905090565b60008281526002602090815260408083208054825181850281018501909352808352849383018282801561150c57602002820191906000526020600020905b81546001600160a01b031681526001909101906020018083116114ee575b5050505050905060005b815181101561156e57836001600160a01b031682828151811061153b5761153b611bb3565b60200260200101516001600160a01b03160361155c5760019250505061079f565b8061156681611c08565b915050611516565b506000949350505050565b80356001600160a01b038116811461159057600080fd5b919050565b600080604083850312156115a857600080fd5b823591506115b860208401611579565b90509250929050565b6000602082840312156115d357600080fd5b5035919050565b60005b838110156115f55781810151838201526020016115dd565b50506000910152565b600081518084526116168160208601602086016115da565b601f01601f19169290920160200192915050565b60208152815160208201526000602083015160c0604084015261165060e08401826115fe565b905060018060a01b0360408501511660608401526060840151608084015263ffffffff60808501511660a084015260a0840151151560c08401528091505092915050565b634e487b7160e01b600052602160045260246000fd5b600481106116c857634e487b7160e01b600052602160045260246000fd5b9052565b604081016116da82856116aa565b82151560208301529392505050565b6000610100820190508251825260208301516020830152604083015160018060a01b0380821660408501526060850151915061172860608501836116aa565b806080860151166080850152505060a083015160a083015260c083015160c083015260e0830151151560e083015292915050565b80356004811061159057600080fd5b6000806000806080858703121561178157600080fd5b8435935061179160208601611579565b925061179f6040860161175c565b9396929550929360600135925050565b634e487b7160e01b600052604160045260246000fd5b6000602082840312156117d757600080fd5b813567ffffffffffffffff808211156117ef57600080fd5b818401915084601f83011261180357600080fd5b813581811115611815576118156117af565b604051601f8201601f19908116603f0116810190838211818310171561183d5761183d6117af565b8160405282815287602084870101111561185657600080fd5b826020860160208301376000928101602001929092525095945050505050565b6000806040838503121561188957600080fd5b50508035926020909101359150565b6000806000606084860312156118ad57600080fd5b833592506118bd60208501611579565b91506118cb6040850161175c565b90509250925092565b600080600080608085870312156118ea57600080fd5b843593506118fa60208601611579565b925060408501356007811061190e57600080fd5b915060608501356006811061192257600080fd5b939692955090935050565b86815260c06020820152600061194660c08301886115fe565b6001600160a01b0396909616604083015250606081019390935263ffffffff919091166080830152151560a09091015292915050565b6020808252825182820181905260009190848201906040850190845b818110156119bd5783516001600160a01b031683529284019291840191600101611998565b50909695505050505050565b888152602081018890526001600160a01b0387811660408301526101008201906119f660608401896116aa565b95909516608082015260a081019390935260c0830191909152151560e090910152949350505050565b600181811c90821680611a3357607f821691505b602082108103611a5357634e487b7160e01b600052602260045260246000fd5b50919050565b601f821115611aa357600081815260208120601f850160051c81016020861015611a805750805b601f850160051c820191505b81811015611a9f57828155600101611a8c565b5050505b505050565b815167ffffffffffffffff811115611ac257611ac26117af565b611ad681611ad08454611a1f565b84611a59565b602080601f831160018114611b0b5760008415611af35750858301515b600019600386901b1c1916600185901b178555611a9f565b600085815260208120601f198616915b82811015611b3a57888601518255948401946001909101908401611b1b565b5085821015611b585787850151600019600388901b60f8161c191681555b5050505050600190811b01905550565b604081526000611b7b60408301856115fe565b90508260208301529392505050565b60608101611b9882866116aa565b611ba560208301856116aa565b826040830152949350505050565b634e487b7160e01b600052603260045260246000fd5b634e487b7160e01b600052601160045260246000fd5b8181038181111561079f5761079f611bc9565b634e487b7160e01b600052603160045260246000fd5b600060018201611c1a57611c1a611bc9565b5060010190565b60608101611c2f82866116aa565b6001600160a01b0393909316602082015260400152919050565b60008451611c5b8184602089016115da565b60609490941b6bffffffffffffffffffffffff19169190930190815260148101919091526034019291505056fea264697066735822122071f3baf7c0f85ef4ed6d45f12502411c2c6e915970de8194bc0889fe4a21e72f64736f6c63430008140033","opcodes":"PUSH1 0x80 PUSH1 0x40 MSTORE CALLVALUE DUP1 ISZERO PUSH2 0x10 JUMPI PUSH1 0x0 DUP1 REVERT JUMPDEST POP PUSH1 0x0 PUSH1 0x3 SSTORE PUSH2 0x1CBE DUP1 PUSH2 0x25 PUSH1 0x0 CODECOPY PUSH1 0x0 RETURN INVALID PUSH1 0x80 PUSH1 0x40 MSTORE CALLVALUE DUP1 ISZERO PUSH2 0x10 JUMPI PUSH1 0x0 DUP1 REVERT JUMPDEST POP PUSH1 0x4 CALLDATASIZE LT PUSH2 0xCF JUMPI PUSH1 0x0 CALLDATALOAD PUSH1 0xE0 SHR DUP1 PUSH4 0x7622F042 GT PUSH2 0x8C JUMPI DUP1 PUSH4 0xACD7FACD GT PUSH2 0x66 JUMPI DUP1 PUSH4 0xACD7FACD EQ PUSH2 0x203 JUMPI DUP1 PUSH4 0xBA51B14E EQ PUSH2 0x226 JUMPI DUP1 PUSH4 0xC1F8218A EQ PUSH2 0x24B JUMPI DUP1 PUSH4 0xF078E5DB EQ PUSH2 0x26B JUMPI PUSH1 0x0 DUP1 REVERT JUMPDEST DUP1 PUSH4 0x7622F042 EQ PUSH2 0x187 JUMPI DUP1 PUSH4 0x877C5E2C EQ PUSH2 0x1B2 JUMPI DUP1 PUSH4 0x93F36BD8 EQ PUSH2 0x1C5 JUMPI PUSH1 0x0 DUP1 REVERT JUMPDEST DUP1 PUSH4 0x10548797 EQ PUSH2 0xD4 JUMPI DUP1 PUSH4 0x22B3CD4E EQ PUSH2 0xE9 JUMPI DUP1 PUSH4 0x263A77EF EQ PUSH2 0x112 JUMPI DUP1 PUSH4 0x28073C7C EQ PUSH2 0x133 JUMPI DUP1 PUSH4 0x610070F0 EQ PUSH2 0x153 JUMPI DUP1 PUSH4 0x6427ACCA EQ PUSH2 0x174 JUMPI JUMPDEST PUSH1 0x0 DUP1 REVERT JUMPDEST PUSH2 0xE7 PUSH2 0xE2 CALLDATASIZE PUSH1 0x4 PUSH2 0x1595 JUMP JUMPDEST PUSH2 0x2EA JUMP JUMPDEST STOP JUMPDEST PUSH2 0xFC PUSH2 0xF7 CALLDATASIZE PUSH1 0x4 PUSH2 0x15C1 JUMP JUMPDEST PUSH2 0x450 JUMP JUMPDEST PUSH1 0x40 MLOAD PUSH2 0x109 SWAP2 SWAP1 PUSH2 0x162A JUMP JUMPDEST PUSH1 0x40 MLOAD DUP1 SWAP2 SUB SWAP1 RETURN JUMPDEST PUSH2 0x125 PUSH2 0x120 CALLDATASIZE PUSH1 0x4 PUSH2 0x1595 JUMP JUMPDEST PUSH2 0x57C JUMP JUMPDEST PUSH1 0x40 MLOAD PUSH2 0x109 SWAP3 SWAP2 SWAP1 PUSH2 0x16CC JUMP JUMPDEST PUSH2 0x146 PUSH2 0x141 CALLDATASIZE PUSH1 0x4 PUSH2 0x1595 JUMP JUMPDEST PUSH2 0x6A5 JUMP JUMPDEST PUSH1 0x40 MLOAD PUSH2 0x109 SWAP2 SWAP1 PUSH2 0x16E9 JUMP JUMPDEST PUSH2 0x166 PUSH2 0x161 CALLDATASIZE PUSH1 0x4 PUSH2 0x176B JUMP JUMPDEST PUSH2 0x7A5 JUMP JUMPDEST PUSH1 0x40 MLOAD SWAP1 DUP2 MSTORE PUSH1 0x20 ADD PUSH2 0x109 JUMP JUMPDEST PUSH2 0x166 PUSH2 0x182 CALLDATASIZE PUSH1 0x4 PUSH2 0x17C5 JUMP JUMPDEST PUSH2 0x81F JUMP JUMPDEST PUSH2 0x19A PUSH2 0x195 CALLDATASIZE PUSH1 0x4 PUSH2 0x1876 JUMP JUMPDEST PUSH2 0x9AC JUMP JUMPDEST PUSH1 0x40 MLOAD PUSH1 0x1 PUSH1 0x1 PUSH1 0xA0 SHL SUB SWAP1 SWAP2 AND DUP2 MSTORE PUSH1 0x20 ADD PUSH2 0x109 JUMP JUMPDEST PUSH2 0xE7 PUSH2 0x1C0 CALLDATASIZE PUSH1 0x4 PUSH2 0x1898 JUMP JUMPDEST PUSH2 0x9E4 JUMP JUMPDEST PUSH2 0x1EE PUSH2 0x1D3 CALLDATASIZE PUSH1 0x4 PUSH2 0x15C1 JUMP JUMPDEST PUSH1 0x0 SWAP1 DUP2 MSTORE PUSH1 0x20 DUP2 SWAP1 MSTORE PUSH1 0x40 SWAP1 KECCAK256 PUSH1 0x4 ADD SLOAD PUSH4 0xFFFFFFFF AND SWAP1 JUMP JUMPDEST PUSH1 0x40 MLOAD PUSH4 0xFFFFFFFF SWAP1 SWAP2 AND DUP2 MSTORE PUSH1 0x20 ADD PUSH2 0x109 JUMP JUMPDEST PUSH2 0x216 PUSH2 0x211 CALLDATASIZE PUSH1 0x4 PUSH2 0x18D4 JUMP JUMPDEST PUSH2 0xB3A JUMP JUMPDEST PUSH1 0x40 MLOAD SWAP1 ISZERO ISZERO DUP2 MSTORE PUSH1 0x20 ADD PUSH2 0x109 JUMP JUMPDEST PUSH2 0x239 PUSH2 0x234 CALLDATASIZE PUSH1 0x4 PUSH2 0x15C1 JUMP JUMPDEST PUSH2 0xC86 JUMP JUMPDEST PUSH1 0x40 MLOAD PUSH2 0x109 SWAP7 SWAP6 SWAP5 SWAP4 SWAP3 SWAP2 SWAP1 PUSH2 0x192D JUMP JUMPDEST PUSH2 0x25E PUSH2 0x259 CALLDATASIZE PUSH1 0x4 PUSH2 0x15C1 JUMP JUMPDEST PUSH2 0xD5B JUMP JUMPDEST PUSH1 0x40 MLOAD PUSH2 0x109 SWAP2 SWAP1 PUSH2 0x197C JUMP JUMPDEST PUSH2 0x2D6 PUSH2 0x279 CALLDATASIZE PUSH1 0x4 PUSH2 0x1595 JUMP JUMPDEST PUSH1 0x1 PUSH1 0x20 DUP2 DUP2 MSTORE PUSH1 0x0 SWAP4 DUP5 MSTORE PUSH1 0x40 DUP1 DUP6 KECCAK256 SWAP1 SWAP2 MSTORE SWAP2 DUP4 MSTORE SWAP2 KECCAK256 DUP1 SLOAD SWAP2 DUP2 ADD SLOAD PUSH1 0x2 DUP3 ADD SLOAD PUSH1 0x3 DUP4 ADD SLOAD PUSH1 0x4 DUP5 ADD SLOAD PUSH1 0x5 DUP6 ADD SLOAD PUSH1 0x6 SWAP1 SWAP6 ADD SLOAD SWAP4 SWAP5 PUSH1 0x1 PUSH1 0x1 PUSH1 0xA0 SHL SUB DUP1 DUP6 AND SWAP6 PUSH1 0xFF PUSH1 0x1 PUSH1 0xA0 SHL SWAP1 SWAP7 DIV DUP7 AND SWAP6 SWAP5 SWAP1 SWAP2 AND SWAP4 AND DUP9 JUMP JUMPDEST PUSH1 0x40 MLOAD PUSH2 0x109 SWAP9 SWAP8 SWAP7 SWAP6 SWAP5 SWAP4 SWAP3 SWAP2 SWAP1 PUSH2 0x19C9 JUMP JUMPDEST PUSH1 0x0 DUP3 DUP2 MSTORE PUSH1 0x20 DUP2 SWAP1 MSTORE PUSH1 0x40 SWAP1 KECCAK256 PUSH1 0x4 ADD SLOAD DUP3 SWAP1 PUSH1 0x1 PUSH1 0x20 SHL SWAP1 DIV PUSH1 0xFF AND PUSH2 0x325 JUMPI PUSH1 0x40 MLOAD PUSH4 0x9551F8B3 PUSH1 0xE0 SHL DUP2 MSTORE PUSH1 0x4 ADD PUSH1 0x40 MLOAD DUP1 SWAP2 SUB SWAP1 REVERT JUMPDEST DUP3 PUSH2 0x330 DUP2 CALLER PUSH2 0xDC7 JUMP JUMPDEST PUSH2 0x34C JUMPI PUSH1 0x40 MLOAD PUSH3 0x82B429 PUSH1 0xE8 SHL DUP2 MSTORE PUSH1 0x4 ADD PUSH1 0x40 MLOAD DUP1 SWAP2 SUB SWAP1 REVERT JUMPDEST PUSH1 0x0 DUP5 DUP2 MSTORE PUSH1 0x1 PUSH1 0x20 SWAP1 DUP2 MSTORE PUSH1 0x40 DUP1 DUP4 KECCAK256 PUSH1 0x1 PUSH1 0x1 PUSH1 0xA0 SHL SUB DUP1 DUP9 AND DUP6 MSTORE SWAP3 MSTORE SWAP1 SWAP2 KECCAK256 PUSH1 0x2 DUP2 ADD SLOAD SWAP1 SWAP2 AND PUSH2 0x394 JUMPI PUSH1 0x40 MLOAD PUSH4 0x2DC66753 PUSH1 0xE2 SHL DUP2 MSTORE PUSH1 0x4 ADD PUSH1 0x40 MLOAD DUP1 SWAP2 SUB SWAP1 REVERT JUMPDEST CALLER PUSH1 0x1 PUSH1 0x1 PUSH1 0xA0 SHL SUB DUP6 AND SUB PUSH2 0x3BD JUMPI PUSH1 0x40 MLOAD PUSH4 0x373D7529 PUSH1 0xE0 SHL DUP2 MSTORE PUSH1 0x4 ADD PUSH1 0x40 MLOAD DUP1 SWAP2 SUB SWAP1 REVERT JUMPDEST PUSH1 0x6 DUP2 ADD DUP1 SLOAD PUSH1 0xFF NOT AND PUSH1 0x1 OR SWAP1 SSTORE PUSH2 0x3D6 DUP6 DUP6 PUSH2 0xEF5 JUMP JUMPDEST PUSH1 0x0 DUP6 DUP2 MSTORE PUSH1 0x2 PUSH1 0x20 SWAP1 DUP2 MSTORE PUSH1 0x40 DUP1 DUP4 KECCAK256 SLOAD DUP4 DUP4 MSTORE SWAP3 DUP2 SWAP1 KECCAK256 PUSH1 0x4 ADD DUP1 SLOAD PUSH4 0xFFFFFFFF NOT AND PUSH4 0xFFFFFFFF SWAP1 SWAP5 AND SWAP4 SWAP1 SWAP4 OR SWAP1 SWAP3 SSTORE SWAP1 MLOAD TIMESTAMP DUP2 MSTORE CALLER SWAP2 PUSH1 0x1 PUSH1 0x1 PUSH1 0xA0 SHL SUB DUP8 AND SWAP2 DUP9 SWAP2 PUSH32 0xA3C406139CB7C877D96B790D54AB43BF55058B2D40CEC2DD4C5723300E50515E SWAP2 ADD PUSH1 0x40 MLOAD DUP1 SWAP2 SUB SWAP1 LOG4 POP POP POP POP POP JUMP JUMPDEST PUSH1 0x40 DUP1 MLOAD PUSH1 0xC0 DUP2 ADD DUP3 MSTORE PUSH1 0x0 DUP1 DUP3 MSTORE PUSH1 0x60 PUSH1 0x20 DUP4 ADD DUP2 SWAP1 MSTORE SWAP3 DUP3 ADD DUP2 SWAP1 MSTORE SWAP2 DUP2 ADD DUP3 SWAP1 MSTORE PUSH1 0x80 DUP2 ADD DUP3 SWAP1 MSTORE PUSH1 0xA0 DUP2 ADD SWAP2 SWAP1 SWAP2 MSTORE PUSH1 0x0 DUP3 DUP2 MSTORE PUSH1 0x20 DUP2 DUP2 MSTORE PUSH1 0x40 SWAP2 DUP3 SWAP1 KECCAK256 DUP3 MLOAD PUSH1 0xC0 DUP2 ADD SWAP1 SWAP4 MSTORE DUP1 SLOAD DUP4 MSTORE PUSH1 0x1 DUP2 ADD DUP1 SLOAD SWAP2 SWAP3 DUP5 ADD SWAP2 PUSH2 0x4B4 SWAP1 PUSH2 0x1A1F JUMP JUMPDEST DUP1 PUSH1 0x1F ADD PUSH1 0x20 DUP1 SWAP2 DIV MUL PUSH1 0x20 ADD PUSH1 0x40 MLOAD SWAP1 DUP2 ADD PUSH1 0x40 MSTORE DUP1 SWAP3 SWAP2 SWAP1 DUP2 DUP2 MSTORE PUSH1 0x20 ADD DUP3 DUP1 SLOAD PUSH2 0x4E0 SWAP1 PUSH2 0x1A1F JUMP JUMPDEST DUP1 ISZERO PUSH2 0x52D JUMPI DUP1 PUSH1 0x1F LT PUSH2 0x502 JUMPI PUSH2 0x100 DUP1 DUP4 SLOAD DIV MUL DUP4 MSTORE SWAP2 PUSH1 0x20 ADD SWAP2 PUSH2 0x52D JUMP JUMPDEST DUP3 ADD SWAP2 SWAP1 PUSH1 0x0 MSTORE PUSH1 0x20 PUSH1 0x0 KECCAK256 SWAP1 JUMPDEST DUP2 SLOAD DUP2 MSTORE SWAP1 PUSH1 0x1 ADD SWAP1 PUSH1 0x20 ADD DUP1 DUP4 GT PUSH2 0x510 JUMPI DUP3 SWAP1 SUB PUSH1 0x1F AND DUP3 ADD SWAP2 JUMPDEST POP POP POP SWAP2 DUP4 MSTORE POP POP PUSH1 0x2 DUP3 ADD SLOAD PUSH1 0x1 PUSH1 0x1 PUSH1 0xA0 SHL SUB AND PUSH1 0x20 DUP3 ADD MSTORE PUSH1 0x3 DUP3 ADD SLOAD PUSH1 0x40 DUP3 ADD MSTORE PUSH1 0x4 SWAP1 SWAP2 ADD SLOAD PUSH4 0xFFFFFFFF DUP2 AND PUSH1 0x60 DUP4 ADD MSTORE PUSH1 0x1 PUSH1 0x20 SHL SWAP1 DIV PUSH1 0xFF AND ISZERO ISZERO PUSH1 0x80 SWAP1 SWAP2 ADD MSTORE SWAP3 SWAP2 POP POP JUMP JUMPDEST PUSH1 0x0 DUP3 DUP2 MSTORE PUSH1 0x1 PUSH1 0x20 DUP2 DUP2 MSTORE PUSH1 0x40 DUP1 DUP5 KECCAK256 PUSH1 0x1 PUSH1 0x1 PUSH1 0xA0 SHL SUB DUP7 DUP2 AND DUP7 MSTORE SWAP1 DUP4 MSTORE DUP2 DUP6 KECCAK256 DUP3 MLOAD PUSH2 0x100 DUP2 ADD DUP5 MSTORE DUP2 SLOAD DUP2 MSTORE SWAP5 DUP2 ADD SLOAD SWAP4 DUP6 ADD SWAP4 SWAP1 SWAP4 MSTORE PUSH1 0x2 DUP4 ADD SLOAD SWAP1 DUP2 AND SWAP2 DUP5 ADD SWAP2 SWAP1 SWAP2 MSTORE DUP4 SWAP3 DUP4 SWAP3 SWAP1 SWAP2 PUSH1 0x60 DUP4 ADD SWAP1 PUSH1 0x1 PUSH1 0xA0 SHL SWAP1 DIV PUSH1 0xFF AND PUSH1 0x3 DUP2 GT ISZERO PUSH2 0x5ED JUMPI PUSH2 0x5ED PUSH2 0x1694 JUMP JUMPDEST PUSH1 0x3 DUP2 GT ISZERO PUSH2 0x5FE JUMPI PUSH2 0x5FE PUSH2 0x1694 JUMP JUMPDEST DUP2 MSTORE PUSH1 0x3 DUP3 ADD SLOAD PUSH1 0x1 PUSH1 0x1 PUSH1 0xA0 SHL SUB SWAP1 DUP2 AND PUSH1 0x20 DUP4 ADD MSTORE PUSH1 0x4 DUP4 ADD SLOAD PUSH1 0x40 DUP1 DUP5 ADD SWAP2 SWAP1 SWAP2 MSTORE PUSH1 0x5 DUP5 ADD SLOAD PUSH1 0x60 DUP5 ADD MSTORE PUSH1 0x6 SWAP1 SWAP4 ADD SLOAD PUSH1 0xFF AND ISZERO ISZERO PUSH1 0x80 SWAP1 SWAP3 ADD SWAP2 SWAP1 SWAP2 MSTORE SWAP1 DUP3 ADD MLOAD SWAP2 SWAP3 POP AND ISZERO DUP1 PUSH2 0x656 JUMPI POP DUP1 PUSH1 0xE0 ADD MLOAD JUMPDEST ISZERO PUSH2 0x669 JUMPI PUSH1 0x2 PUSH1 0x0 SWAP3 POP SWAP3 POP POP PUSH2 0x69E JUMP JUMPDEST PUSH1 0x0 DUP2 PUSH1 0xC0 ADD MLOAD GT DUP1 ISZERO PUSH2 0x680 JUMPI POP DUP1 PUSH1 0xC0 ADD MLOAD TIMESTAMP GT JUMPDEST ISZERO PUSH2 0x693 JUMPI PUSH1 0x2 PUSH1 0x0 SWAP3 POP SWAP3 POP POP PUSH2 0x69E JUMP JUMPDEST PUSH1 0x60 ADD MLOAD SWAP2 POP PUSH1 0x1 SWAP1 POP JUMPDEST SWAP3 POP SWAP3 SWAP1 POP JUMP JUMPDEST PUSH1 0x40 DUP1 MLOAD PUSH2 0x100 DUP2 ADD DUP3 MSTORE PUSH1 0x0 DUP1 DUP3 MSTORE PUSH1 0x20 DUP3 ADD DUP2 SWAP1 MSTORE SWAP2 DUP2 ADD DUP3 SWAP1 MSTORE PUSH1 0x60 DUP2 ADD DUP3 SWAP1 MSTORE PUSH1 0x80 DUP2 ADD DUP3 SWAP1 MSTORE PUSH1 0xA0 DUP2 ADD DUP3 SWAP1 MSTORE PUSH1 0xC0 DUP2 ADD DUP3 SWAP1 MSTORE PUSH1 0xE0 DUP2 ADD SWAP2 SWAP1 SWAP2 MSTORE PUSH1 0x0 DUP4 DUP2 MSTORE PUSH1 0x1 PUSH1 0x20 DUP2 DUP2 MSTORE PUSH1 0x40 DUP1 DUP5 KECCAK256 PUSH1 0x1 PUSH1 0x1 PUSH1 0xA0 SHL SUB DUP8 DUP2 AND DUP7 MSTORE SWAP1 DUP4 MSTORE SWAP4 DUP2 SWAP1 KECCAK256 DUP2 MLOAD PUSH2 0x100 DUP2 ADD DUP4 MSTORE DUP2 SLOAD DUP2 MSTORE SWAP4 DUP2 ADD SLOAD SWAP3 DUP5 ADD SWAP3 SWAP1 SWAP3 MSTORE PUSH1 0x2 DUP3 ADD SLOAD SWAP4 DUP5 AND SWAP1 DUP4 ADD MSTORE SWAP1 SWAP2 PUSH1 0x60 DUP4 ADD SWAP1 PUSH1 0x1 PUSH1 0xA0 SHL SWAP1 DIV PUSH1 0xFF AND PUSH1 0x3 DUP2 GT ISZERO PUSH2 0x751 JUMPI PUSH2 0x751 PUSH2 0x1694 JUMP JUMPDEST PUSH1 0x3 DUP2 GT ISZERO PUSH2 0x762 JUMPI PUSH2 0x762 PUSH2 0x1694 JUMP JUMPDEST DUP2 MSTORE PUSH1 0x3 DUP3 ADD SLOAD PUSH1 0x1 PUSH1 0x1 PUSH1 0xA0 SHL SUB AND PUSH1 0x20 DUP3 ADD MSTORE PUSH1 0x4 DUP3 ADD SLOAD PUSH1 0x40 DUP3 ADD MSTORE PUSH1 0x5 DUP3 ADD SLOAD PUSH1 0x60 DUP3 ADD MSTORE PUSH1 0x6 SWAP1 SWAP2 ADD SLOAD PUSH1 0xFF AND ISZERO ISZERO PUSH1 0x80 SWAP1 SWAP2 ADD MSTORE SWAP1 POP JUMPDEST SWAP3 SWAP2 POP POP JUMP JUMPDEST PUSH1 0x0 DUP5 DUP2 MSTORE PUSH1 0x20 DUP2 SWAP1 MSTORE PUSH1 0x40 DUP2 KECCAK256 PUSH1 0x4 ADD SLOAD DUP6 SWAP1 PUSH1 0x1 PUSH1 0x20 SHL SWAP1 DIV PUSH1 0xFF AND PUSH2 0x7E0 JUMPI PUSH1 0x40 MLOAD PUSH4 0x9551F8B3 PUSH1 0xE0 SHL DUP2 MSTORE PUSH1 0x4 ADD PUSH1 0x40 MLOAD DUP1 SWAP2 SUB SWAP1 REVERT JUMPDEST DUP6 PUSH2 0x7EB DUP2 CALLER PUSH2 0xDC7 JUMP JUMPDEST PUSH2 0x807 JUMPI PUSH1 0x40 MLOAD PUSH3 0x82B429 PUSH1 0xE8 SHL DUP2 MSTORE PUSH1 0x4 ADD PUSH1 0x40 MLOAD DUP1 SWAP2 SUB SWAP1 REVERT JUMPDEST PUSH2 0x814 DUP8 DUP8 DUP8 CALLER DUP9 PUSH2 0x1011 JUMP JUMPDEST SWAP8 SWAP7 POP POP POP POP POP POP POP JUMP JUMPDEST PUSH1 0x0 DUP2 MLOAD PUSH1 0x0 EQ DUP1 PUSH2 0x832 JUMPI POP PUSH1 0x40 DUP3 MLOAD GT JUMPDEST ISZERO PUSH2 0x850 JUMPI PUSH1 0x40 MLOAD PUSH4 0x1B0B678D PUSH1 0xE3 SHL DUP2 MSTORE PUSH1 0x4 ADD PUSH1 0x40 MLOAD DUP1 SWAP2 SUB SWAP1 REVERT JUMPDEST PUSH2 0x85A DUP3 CALLER PUSH2 0x121F JUMP JUMPDEST PUSH1 0x0 DUP2 DUP2 MSTORE PUSH1 0x20 DUP2 SWAP1 MSTORE PUSH1 0x40 SWAP1 KECCAK256 PUSH1 0x4 ADD SLOAD SWAP1 SWAP2 POP PUSH1 0x1 PUSH1 0x20 SHL SWAP1 DIV PUSH1 0xFF AND ISZERO PUSH2 0x897 JUMPI PUSH1 0x40 MLOAD PUSH4 0x1D21327D PUSH1 0xE0 SHL DUP2 MSTORE PUSH1 0x4 ADD PUSH1 0x40 MLOAD DUP1 SWAP2 SUB SWAP1 REVERT JUMPDEST PUSH1 0x40 DUP1 MLOAD PUSH1 0xC0 DUP2 ADD DUP3 MSTORE DUP3 DUP2 MSTORE PUSH1 0x20 DUP1 DUP3 ADD DUP6 DUP2 MSTORE CALLER DUP4 DUP6 ADD MSTORE TIMESTAMP PUSH1 0x60 DUP5 ADD MSTORE PUSH1 0x1 PUSH1 0x80 DUP5 ADD DUP2 SWAP1 MSTORE PUSH1 0xA0 DUP5 ADD DUP2 SWAP1 MSTORE PUSH1 0x0 DUP7 DUP2 MSTORE SWAP3 DUP4 SWAP1 MSTORE SWAP4 SWAP1 SWAP2 KECCAK256 DUP3 MLOAD DUP2 SSTORE SWAP1 MLOAD SWAP2 SWAP3 SWAP1 SWAP2 SWAP1 DUP3 ADD SWAP1 PUSH2 0x8EC SWAP1 DUP3 PUSH2 0x1AA8 JUMP JUMPDEST POP PUSH1 0x40 DUP3 ADD MLOAD PUSH1 0x2 DUP3 ADD DUP1 SLOAD PUSH1 0x1 PUSH1 0x1 PUSH1 0xA0 SHL SUB NOT AND PUSH1 0x1 PUSH1 0x1 PUSH1 0xA0 SHL SUB SWAP1 SWAP3 AND SWAP2 SWAP1 SWAP2 OR SWAP1 SSTORE PUSH1 0x60 DUP3 ADD MLOAD PUSH1 0x3 DUP3 ADD SSTORE PUSH1 0x80 DUP3 ADD MLOAD PUSH1 0x4 SWAP1 SWAP2 ADD DUP1 SLOAD PUSH1 0xA0 SWAP1 SWAP4 ADD MLOAD PUSH4 0xFFFFFFFF SWAP1 SWAP3 AND PUSH5 0xFFFFFFFFFF NOT SWAP1 SWAP4 AND SWAP3 SWAP1 SWAP3 OR PUSH1 0x1 PUSH1 0x20 SHL SWAP2 ISZERO ISZERO SWAP2 SWAP1 SWAP2 MUL OR SWAP1 SSTORE PUSH2 0x962 DUP2 CALLER PUSH1 0x0 DUP2 DUP2 PUSH2 0x1011 JUMP JUMPDEST POP CALLER PUSH1 0x1 PUSH1 0x1 PUSH1 0xA0 SHL SUB AND DUP2 PUSH32 0x3E593B27B72277702561F73A85195C02DD25B324183253D096A6E84B53D7CE74 DUP5 TIMESTAMP PUSH1 0x40 MLOAD PUSH2 0x99F SWAP3 SWAP2 SWAP1 PUSH2 0x1B68 JUMP JUMPDEST PUSH1 0x40 MLOAD DUP1 SWAP2 SUB SWAP1 LOG3 SWAP2 SWAP1 POP JUMP JUMPDEST PUSH1 0x2 PUSH1 0x20 MSTORE DUP2 PUSH1 0x0 MSTORE PUSH1 0x40 PUSH1 0x0 KECCAK256 DUP2 DUP2 SLOAD DUP2 LT PUSH2 0x9C8 JUMPI PUSH1 0x0 DUP1 REVERT JUMPDEST PUSH1 0x0 SWAP2 DUP3 MSTORE PUSH1 0x20 SWAP1 SWAP2 KECCAK256 ADD SLOAD PUSH1 0x1 PUSH1 0x1 PUSH1 0xA0 SHL SUB AND SWAP2 POP DUP3 SWAP1 POP JUMP JUMPDEST PUSH1 0x0 DUP4 DUP2 MSTORE PUSH1 0x20 DUP2 SWAP1 MSTORE PUSH1 0x40 SWAP1 KECCAK256 PUSH1 0x4 ADD SLOAD DUP4 SWAP1 PUSH1 0x1 PUSH1 0x20 SHL SWAP1 DIV PUSH1 0xFF AND PUSH2 0xA1F JUMPI PUSH1 0x40 MLOAD PUSH4 0x9551F8B3 PUSH1 0xE0 SHL DUP2 MSTORE PUSH1 0x4 ADD PUSH1 0x40 MLOAD DUP1 SWAP2 SUB SWAP1 REVERT JUMPDEST DUP4 PUSH2 0xA2A DUP2 CALLER PUSH2 0xDC7 JUMP JUMPDEST PUSH2 0xA46 JUMPI PUSH1 0x40 MLOAD PUSH3 0x82B429 PUSH1 0xE8 SHL DUP2 MSTORE PUSH1 0x4 ADD PUSH1 0x40 MLOAD DUP1 SWAP2 SUB SWAP1 REVERT JUMPDEST PUSH1 0x0 DUP6 DUP2 MSTORE PUSH1 0x1 PUSH1 0x20 SWAP1 DUP2 MSTORE PUSH1 0x40 DUP1 DUP4 KECCAK256 PUSH1 0x1 PUSH1 0x1 PUSH1 0xA0 SHL SUB DUP1 DUP10 AND DUP6 MSTORE SWAP3 MSTORE SWAP1 SWAP2 KECCAK256 PUSH1 0x2 DUP2 ADD SLOAD SWAP1 SWAP2 AND PUSH2 0xA8E JUMPI PUSH1 0x40 MLOAD PUSH4 0x2DC66753 PUSH1 0xE2 SHL DUP2 MSTORE PUSH1 0x4 ADD PUSH1 0x40 MLOAD DUP1 SWAP2 SUB SWAP1 REVERT JUMPDEST PUSH1 0x6 DUP2 ADD SLOAD PUSH1 0xFF AND ISZERO PUSH2 0xAB4 JUMPI PUSH1 0x40 MLOAD PUSH4 0x3E3C14B1 PUSH1 0xE1 SHL DUP2 MSTORE PUSH1 0x4 ADD PUSH1 0x40 MLOAD DUP1 SWAP2 SUB SWAP1 REVERT JUMPDEST PUSH1 0x2 DUP2 ADD DUP1 SLOAD PUSH1 0x1 PUSH1 0xA0 SHL DUP1 DUP3 DIV PUSH1 0xFF AND SWAP3 DUP8 SWAP3 SWAP1 SWAP2 PUSH1 0xFF PUSH1 0xA0 SHL NOT SWAP1 SWAP2 AND SWAP1 DUP4 PUSH1 0x3 DUP2 GT ISZERO PUSH2 0xAE6 JUMPI PUSH2 0xAE6 PUSH2 0x1694 JUMP JUMPDEST MUL OR SWAP1 SSTORE POP DUP6 PUSH1 0x1 PUSH1 0x1 PUSH1 0xA0 SHL SUB AND DUP8 PUSH32 0x29EF24661D99CBC3B2C8EC400AADB4BB814214D294AFC41FC7791ACB3ACED679 DUP4 DUP9 TIMESTAMP PUSH1 0x40 MLOAD PUSH2 0xB29 SWAP4 SWAP3 SWAP2 SWAP1 PUSH2 0x1B8A JUMP JUMPDEST PUSH1 0x40 MLOAD DUP1 SWAP2 SUB SWAP1 LOG3 POP POP POP POP POP POP POP JUMP JUMPDEST PUSH1 0x0 DUP5 DUP2 MSTORE PUSH1 0x20 DUP2 SWAP1 MSTORE PUSH1 0x40 DUP2 KECCAK256 PUSH1 0x4 ADD SLOAD PUSH1 0x1 PUSH1 0x20 SHL SWAP1 DIV PUSH1 0xFF AND PUSH2 0xB62 JUMPI POP PUSH1 0x0 PUSH2 0xC7E JUMP JUMPDEST PUSH1 0x0 DUP6 DUP2 MSTORE PUSH1 0x1 PUSH1 0x20 DUP2 DUP2 MSTORE PUSH1 0x40 DUP1 DUP5 KECCAK256 PUSH1 0x1 PUSH1 0x1 PUSH1 0xA0 SHL SUB DUP10 DUP2 AND DUP7 MSTORE SWAP1 DUP4 MSTORE DUP2 DUP6 KECCAK256 DUP3 MLOAD PUSH2 0x100 DUP2 ADD DUP5 MSTORE DUP2 SLOAD DUP2 MSTORE SWAP5 DUP2 ADD SLOAD SWAP4 DUP6 ADD SWAP4 SWAP1 SWAP4 MSTORE PUSH1 0x2 DUP4 ADD SLOAD SWAP1 DUP2 AND SWAP2 DUP5 ADD SWAP2 SWAP1 SWAP2 MSTORE PUSH1 0x60 DUP4 ADD SWAP1 PUSH1 0x1 PUSH1 0xA0 SHL SWAP1 DIV PUSH1 0xFF AND PUSH1 0x3 DUP2 GT ISZERO PUSH2 0xBCD JUMPI PUSH2 0xBCD PUSH2 0x1694 JUMP JUMPDEST PUSH1 0x3 DUP2 GT ISZERO PUSH2 0xBDE JUMPI PUSH2 0xBDE PUSH2 0x1694 JUMP JUMPDEST DUP2 MSTORE PUSH1 0x3 DUP3 ADD SLOAD PUSH1 0x1 PUSH1 0x1 PUSH1 0xA0 SHL SUB SWAP1 DUP2 AND PUSH1 0x20 DUP4 ADD MSTORE PUSH1 0x4 DUP4 ADD SLOAD PUSH1 0x40 DUP1 DUP5 ADD SWAP2 SWAP1 SWAP2 MSTORE PUSH1 0x5 DUP5 ADD SLOAD PUSH1 0x60 DUP5 ADD MSTORE PUSH1 0x6 SWAP1 SWAP4 ADD SLOAD PUSH1 0xFF AND ISZERO ISZERO PUSH1 0x80 SWAP1 SWAP3 ADD SWAP2 SWAP1 SWAP2 MSTORE SWAP1 DUP3 ADD MLOAD SWAP2 SWAP3 POP AND ISZERO DUP1 PUSH2 0xC36 JUMPI POP DUP1 PUSH1 0xE0 ADD MLOAD JUMPDEST ISZERO PUSH2 0xC45 JUMPI PUSH1 0x0 SWAP2 POP POP PUSH2 0xC7E JUMP JUMPDEST PUSH1 0x0 DUP2 PUSH1 0xC0 ADD MLOAD GT DUP1 ISZERO PUSH2 0xC5C JUMPI POP DUP1 PUSH1 0xC0 ADD MLOAD TIMESTAMP GT JUMPDEST ISZERO PUSH2 0xC6B JUMPI PUSH1 0x0 SWAP2 POP POP PUSH2 0xC7E JUMP JUMPDEST PUSH2 0xC7A DUP2 PUSH1 0x60 ADD MLOAD DUP6 DUP6 PUSH2 0x1254 JUMP JUMPDEST SWAP2 POP POP JUMPDEST SWAP5 SWAP4 POP POP POP POP JUMP JUMPDEST PUSH1 0x0 PUSH1 0x20 DUP2 SWAP1 MSTORE SWAP1 DUP2 MSTORE PUSH1 0x40 SWAP1 KECCAK256 DUP1 SLOAD PUSH1 0x1 DUP3 ADD DUP1 SLOAD SWAP2 SWAP3 SWAP2 PUSH2 0xCA8 SWAP1 PUSH2 0x1A1F JUMP JUMPDEST DUP1 PUSH1 0x1F ADD PUSH1 0x20 DUP1 SWAP2 DIV MUL PUSH1 0x20 ADD PUSH1 0x40 MLOAD SWAP1 DUP2 ADD PUSH1 0x40 MSTORE DUP1 SWAP3 SWAP2 SWAP1 DUP2 DUP2 MSTORE PUSH1 0x20 ADD DUP3 DUP1 SLOAD PUSH2 0xCD4 SWAP1 PUSH2 0x1A1F JUMP JUMPDEST DUP1 ISZERO PUSH2 0xD21 JUMPI DUP1 PUSH1 0x1F LT PUSH2 0xCF6 JUMPI PUSH2 0x100 DUP1 DUP4 SLOAD DIV MUL DUP4 MSTORE SWAP2 PUSH1 0x20 ADD SWAP2 PUSH2 0xD21 JUMP JUMPDEST DUP3 ADD SWAP2 SWAP1 PUSH1 0x0 MSTORE PUSH1 0x20 PUSH1 0x0 KECCAK256 SWAP1 JUMPDEST DUP2 SLOAD DUP2 MSTORE SWAP1 PUSH1 0x1 ADD SWAP1 PUSH1 0x20 ADD DUP1 DUP4 GT PUSH2 0xD04 JUMPI DUP3 SWAP1 SUB PUSH1 0x1F AND DUP3 ADD SWAP2 JUMPDEST POP POP POP POP PUSH1 0x2 DUP4 ADD SLOAD PUSH1 0x3 DUP5 ADD SLOAD PUSH1 0x4 SWAP1 SWAP5 ADD SLOAD SWAP3 SWAP4 PUSH1 0x1 PUSH1 0x1 PUSH1 0xA0 SHL SUB SWAP1 SWAP2 AND SWAP3 SWAP1 SWAP2 POP PUSH4 0xFFFFFFFF DUP2 AND SWAP1 PUSH1 0x1 PUSH1 0x20 SHL SWAP1 DIV PUSH1 0xFF AND DUP7 JUMP JUMPDEST PUSH1 0x0 DUP2 DUP2 MSTORE PUSH1 0x2 PUSH1 0x20 SWAP1 DUP2 MSTORE PUSH1 0x40 SWAP2 DUP3 SWAP1 KECCAK256 DUP1 SLOAD DUP4 MLOAD DUP2 DUP5 MUL DUP2 ADD DUP5 ADD SWAP1 SWAP5 MSTORE DUP1 DUP5 MSTORE PUSH1 0x60 SWAP4 SWAP3 DUP4 ADD DUP3 DUP3 DUP1 ISZERO PUSH2 0xDBB JUMPI PUSH1 0x20 MUL DUP3 ADD SWAP2 SWAP1 PUSH1 0x0 MSTORE PUSH1 0x20 PUSH1 0x0 KECCAK256 SWAP1 JUMPDEST DUP2 SLOAD PUSH1 0x1 PUSH1 0x1 PUSH1 0xA0 SHL SUB AND DUP2 MSTORE PUSH1 0x1 SWAP1 SWAP2 ADD SWAP1 PUSH1 0x20 ADD DUP1 DUP4 GT PUSH2 0xD9D JUMPI JUMPDEST POP POP POP POP POP SWAP1 POP SWAP2 SWAP1 POP JUMP JUMPDEST PUSH1 0x0 DUP3 DUP2 MSTORE PUSH1 0x1 PUSH1 0x20 DUP2 DUP2 MSTORE PUSH1 0x40 DUP1 DUP5 KECCAK256 PUSH1 0x1 PUSH1 0x1 PUSH1 0xA0 SHL SUB DUP7 DUP2 AND DUP7 MSTORE SWAP1 DUP4 MSTORE DUP2 DUP6 KECCAK256 DUP3 MLOAD PUSH2 0x100 DUP2 ADD DUP5 MSTORE DUP2 SLOAD DUP2 MSTORE SWAP5 DUP2 ADD SLOAD SWAP4 DUP6 ADD SWAP4 SWAP1 SWAP4 MSTORE PUSH1 0x2 DUP4 ADD SLOAD SWAP1 DUP2 AND SWAP2 DUP5 ADD SWAP2 SWAP1 SWAP2 MSTORE DUP4 SWAP3 SWAP2 SWAP1 PUSH1 0x60 DUP4 ADD SWAP1 PUSH1 0x1 PUSH1 0xA0 SHL SWAP1 DIV PUSH1 0xFF AND PUSH1 0x3 DUP2 GT ISZERO PUSH2 0xE36 JUMPI PUSH2 0xE36 PUSH2 0x1694 JUMP JUMPDEST PUSH1 0x3 DUP2 GT ISZERO PUSH2 0xE47 JUMPI PUSH2 0xE47 PUSH2 0x1694 JUMP JUMPDEST DUP2 MSTORE PUSH1 0x3 DUP3 ADD SLOAD PUSH1 0x1 PUSH1 0x1 PUSH1 0xA0 SHL SUB SWAP1 DUP2 AND PUSH1 0x20 DUP4 ADD MSTORE PUSH1 0x4 DUP4 ADD SLOAD PUSH1 0x40 DUP1 DUP5 ADD SWAP2 SWAP1 SWAP2 MSTORE PUSH1 0x5 DUP5 ADD SLOAD PUSH1 0x60 DUP5 ADD MSTORE PUSH1 0x6 SWAP1 SWAP4 ADD SLOAD PUSH1 0xFF AND ISZERO ISZERO PUSH1 0x80 SWAP1 SWAP3 ADD SWAP2 SWAP1 SWAP2 MSTORE SWAP1 DUP3 ADD MLOAD SWAP2 SWAP3 POP AND ISZERO DUP1 PUSH2 0xE9F JUMPI POP DUP1 PUSH1 0xE0 ADD MLOAD JUMPDEST ISZERO PUSH2 0xEAE JUMPI PUSH1 0x0 SWAP2 POP POP PUSH2 0x79F JUMP JUMPDEST PUSH1 0x0 DUP2 PUSH1 0xC0 ADD MLOAD GT DUP1 ISZERO PUSH2 0xEC5 JUMPI POP DUP1 PUSH1 0xC0 ADD MLOAD TIMESTAMP GT JUMPDEST ISZERO PUSH2 0xED4 JUMPI PUSH1 0x0 SWAP2 POP POP PUSH2 0x79F JUMP JUMPDEST PUSH1 0x0 DUP2 PUSH1 0x60 ADD MLOAD PUSH1 0x3 DUP2 GT ISZERO PUSH2 0xEEC JUMPI PUSH2 0xEEC PUSH2 0x1694 JUMP JUMPDEST EQ SWAP5 SWAP4 POP POP POP POP JUMP JUMPDEST PUSH1 0x0 DUP3 DUP2 MSTORE PUSH1 0x2 PUSH1 0x20 MSTORE PUSH1 0x40 DUP2 KECCAK256 SWAP1 JUMPDEST DUP2 SLOAD DUP2 LT ISZERO PUSH2 0x100B JUMPI DUP3 PUSH1 0x1 PUSH1 0x1 PUSH1 0xA0 SHL SUB AND DUP3 DUP3 DUP2 SLOAD DUP2 LT PUSH2 0xF2A JUMPI PUSH2 0xF2A PUSH2 0x1BB3 JUMP JUMPDEST PUSH1 0x0 SWAP2 DUP3 MSTORE PUSH1 0x20 SWAP1 SWAP2 KECCAK256 ADD SLOAD PUSH1 0x1 PUSH1 0x1 PUSH1 0xA0 SHL SUB AND SUB PUSH2 0xFF9 JUMPI DUP2 SLOAD DUP3 SWAP1 PUSH2 0xF54 SWAP1 PUSH1 0x1 SWAP1 PUSH2 0x1BDF JUMP JUMPDEST DUP2 SLOAD DUP2 LT PUSH2 0xF64 JUMPI PUSH2 0xF64 PUSH2 0x1BB3 JUMP JUMPDEST SWAP1 PUSH1 0x0 MSTORE PUSH1 0x20 PUSH1 0x0 KECCAK256 ADD PUSH1 0x0 SWAP1 SLOAD SWAP1 PUSH2 0x100 EXP SWAP1 DIV PUSH1 0x1 PUSH1 0x1 PUSH1 0xA0 SHL SUB AND DUP3 DUP3 DUP2 SLOAD DUP2 LT PUSH2 0xF94 JUMPI PUSH2 0xF94 PUSH2 0x1BB3 JUMP JUMPDEST SWAP1 PUSH1 0x0 MSTORE PUSH1 0x20 PUSH1 0x0 KECCAK256 ADD PUSH1 0x0 PUSH2 0x100 EXP DUP2 SLOAD DUP2 PUSH1 0x1 PUSH1 0x1 PUSH1 0xA0 SHL SUB MUL NOT AND SWAP1 DUP4 PUSH1 0x1 PUSH1 0x1 PUSH1 0xA0 SHL SUB AND MUL OR SWAP1 SSTORE POP DUP2 DUP1 SLOAD DUP1 PUSH2 0xFD2 JUMPI PUSH2 0xFD2 PUSH2 0x1BF2 JUMP JUMPDEST PUSH1 0x0 DUP3 DUP2 MSTORE PUSH1 0x20 SWAP1 KECCAK256 DUP2 ADD PUSH1 0x0 NOT SWAP1 DUP2 ADD DUP1 SLOAD PUSH1 0x1 PUSH1 0x1 PUSH1 0xA0 SHL SUB NOT AND SWAP1 SSTORE ADD SWAP1 SSTORE PUSH2 0x100B JUMP JUMPDEST DUP1 PUSH2 0x1003 DUP2 PUSH2 0x1C08 JUMP JUMPDEST SWAP2 POP POP PUSH2 0xF05 JUMP JUMPDEST POP POP POP POP JUMP JUMPDEST PUSH1 0x0 PUSH2 0x101B PUSH2 0x1458 JUMP JUMPDEST SWAP1 POP PUSH1 0x40 MLOAD DUP1 PUSH2 0x100 ADD PUSH1 0x40 MSTORE DUP1 DUP3 DUP2 MSTORE PUSH1 0x20 ADD DUP8 DUP2 MSTORE PUSH1 0x20 ADD DUP7 PUSH1 0x1 PUSH1 0x1 PUSH1 0xA0 SHL SUB AND DUP2 MSTORE PUSH1 0x20 ADD DUP6 PUSH1 0x3 DUP2 GT ISZERO PUSH2 0x1056 JUMPI PUSH2 0x1056 PUSH2 0x1694 JUMP JUMPDEST DUP2 MSTORE PUSH1 0x1 PUSH1 0x1 PUSH1 0xA0 SHL SUB DUP6 DUP2 AND PUSH1 0x20 DUP1 DUP5 ADD SWAP2 SWAP1 SWAP2 MSTORE TIMESTAMP PUSH1 0x40 DUP1 DUP6 ADD SWAP2 SWAP1 SWAP2 MSTORE PUSH1 0x60 DUP1 DUP6 ADD DUP9 SWAP1 MSTORE PUSH1 0x0 PUSH1 0x80 SWAP1 SWAP6 ADD DUP6 SWAP1 MSTORE DUP12 DUP6 MSTORE PUSH1 0x1 DUP1 DUP5 MSTORE DUP3 DUP7 KECCAK256 DUP13 DUP7 AND DUP8 MSTORE DUP5 MSTORE SWAP5 DUP3 SWAP1 KECCAK256 DUP7 MLOAD DUP2 SSTORE SWAP3 DUP7 ADD MLOAD SWAP5 DUP4 ADD SWAP5 SWAP1 SWAP5 SSTORE DUP5 ADD MLOAD PUSH1 0x2 DUP3 ADD DUP1 SLOAD PUSH1 0x1 PUSH1 0x1 PUSH1 0xA0 SHL SUB NOT DUP2 AND SWAP3 SWAP1 SWAP5 AND SWAP2 DUP3 OR DUP2 SSTORE SWAP4 DUP6 ADD MLOAD SWAP2 SWAP4 SWAP2 SWAP3 PUSH1 0x1 PUSH1 0x1 PUSH1 0xA8 SHL SUB NOT AND OR PUSH1 0x1 PUSH1 0xA0 SHL DUP4 PUSH1 0x3 DUP2 GT ISZERO PUSH2 0x10F4 JUMPI PUSH2 0x10F4 PUSH2 0x1694 JUMP JUMPDEST MUL OR SWAP1 SSTORE POP PUSH1 0x80 DUP3 ADD MLOAD PUSH1 0x3 DUP3 ADD DUP1 SLOAD PUSH1 0x1 PUSH1 0x1 PUSH1 0xA0 SHL SUB NOT AND PUSH1 0x1 PUSH1 0x1 PUSH1 0xA0 SHL SUB SWAP1 SWAP3 AND SWAP2 SWAP1 SWAP2 OR SWAP1 SSTORE PUSH1 0xA0 DUP3 ADD MLOAD PUSH1 0x4 DUP3 ADD SSTORE PUSH1 0xC0 DUP3 ADD MLOAD PUSH1 0x5 DUP3 ADD SSTORE PUSH1 0xE0 SWAP1 SWAP2 ADD MLOAD PUSH1 0x6 SWAP1 SWAP2 ADD DUP1 SLOAD PUSH1 0xFF NOT AND SWAP2 ISZERO ISZERO SWAP2 SWAP1 SWAP2 OR SWAP1 SSTORE PUSH2 0x1157 DUP7 DUP7 PUSH2 0x14AF JUMP JUMPDEST PUSH2 0x11BA JUMPI PUSH1 0x0 DUP7 DUP2 MSTORE PUSH1 0x2 PUSH1 0x20 SWAP1 DUP2 MSTORE PUSH1 0x40 DUP1 DUP4 KECCAK256 DUP1 SLOAD PUSH1 0x1 DUP2 ADD DUP3 SSTORE DUP2 DUP6 MSTORE DUP4 DUP6 KECCAK256 ADD DUP1 SLOAD PUSH1 0x1 PUSH1 0x1 PUSH1 0xA0 SHL SUB NOT AND PUSH1 0x1 PUSH1 0x1 PUSH1 0xA0 SHL SUB DUP12 AND OR SWAP1 SSTORE DUP10 DUP5 MSTORE SLOAD SWAP2 DUP4 SWAP1 MSTORE SWAP1 SWAP2 KECCAK256 PUSH1 0x4 ADD DUP1 SLOAD PUSH4 0xFFFFFFFF NOT AND PUSH4 0xFFFFFFFF SWAP1 SWAP3 AND SWAP2 SWAP1 SWAP2 OR SWAP1 SSTORE JUMPDEST PUSH1 0x3 DUP1 SLOAD SWAP1 PUSH1 0x0 PUSH2 0x11CA DUP4 PUSH2 0x1C08 JUMP JUMPDEST SWAP2 SWAP1 POP SSTORE POP DUP5 PUSH1 0x1 PUSH1 0x1 PUSH1 0xA0 SHL SUB AND DUP7 DUP3 PUSH32 0x5ACBD21A5CF96723712686ED23534969240DF6498893B2A15B0FB3A75C112113 DUP8 DUP8 TIMESTAMP PUSH1 0x40 MLOAD PUSH2 0x120E SWAP4 SWAP3 SWAP2 SWAP1 PUSH2 0x1C21 JUMP JUMPDEST PUSH1 0x40 MLOAD DUP1 SWAP2 SUB SWAP1 LOG4 SWAP6 SWAP5 POP POP POP POP POP JUMP JUMPDEST PUSH1 0x0 DUP3 DUP3 TIMESTAMP PUSH1 0x40 MLOAD PUSH1 0x20 ADD PUSH2 0x1236 SWAP4 SWAP3 SWAP2 SWAP1 PUSH2 0x1C49 JUMP JUMPDEST PUSH1 0x40 MLOAD PUSH1 0x20 DUP2 DUP4 SUB SUB DUP2 MSTORE SWAP1 PUSH1 0x40 MSTORE DUP1 MLOAD SWAP1 PUSH1 0x20 ADD KECCAK256 SWAP1 POP SWAP3 SWAP2 POP POP JUMP JUMPDEST PUSH1 0x0 DUP1 DUP5 PUSH1 0x3 DUP2 GT ISZERO PUSH2 0x1269 JUMPI PUSH2 0x1269 PUSH2 0x1694 JUMP JUMPDEST SUB PUSH2 0x1276 JUMPI POP PUSH1 0x1 PUSH2 0x1451 JUMP JUMPDEST PUSH1 0x3 DUP5 PUSH1 0x3 DUP2 GT ISZERO PUSH2 0x128A JUMPI PUSH2 0x128A PUSH2 0x1694 JUMP JUMPDEST SUB PUSH2 0x137E JUMPI PUSH1 0x0 DUP3 PUSH1 0x5 DUP2 GT ISZERO PUSH2 0x12A3 JUMPI PUSH2 0x12A3 PUSH2 0x1694 JUMP JUMPDEST SUB PUSH2 0x12FE JUMPI PUSH1 0x0 DUP4 PUSH1 0x6 DUP2 GT ISZERO PUSH2 0x12BC JUMPI PUSH2 0x12BC PUSH2 0x1694 JUMP JUMPDEST EQ DUP1 PUSH2 0x12DA JUMPI POP PUSH1 0x5 JUMPDEST DUP4 PUSH1 0x6 DUP2 GT ISZERO PUSH2 0x12D8 JUMPI PUSH2 0x12D8 PUSH2 0x1694 JUMP JUMPDEST EQ JUMPDEST DUP1 PUSH2 0x12F7 JUMPI POP PUSH1 0x1 JUMPDEST DUP4 PUSH1 0x6 DUP2 GT ISZERO PUSH2 0x12F5 JUMPI PUSH2 0x12F5 PUSH2 0x1694 JUMP JUMPDEST EQ JUMPDEST SWAP1 POP PUSH2 0x1451 JUMP JUMPDEST PUSH1 0x1 DUP3 PUSH1 0x5 DUP2 GT ISZERO PUSH2 0x1312 JUMPI PUSH2 0x1312 PUSH2 0x1694 JUMP JUMPDEST EQ DUP1 PUSH2 0x132F JUMPI POP PUSH1 0x2 DUP3 PUSH1 0x5 DUP2 GT ISZERO PUSH2 0x132D JUMPI PUSH2 0x132D PUSH2 0x1694 JUMP JUMPDEST EQ JUMPDEST ISZERO PUSH2 0x133B JUMPI PUSH1 0x1 PUSH2 0x12E3 JUMP JUMPDEST PUSH1 0x3 DUP3 PUSH1 0x5 DUP2 GT ISZERO PUSH2 0x134F JUMPI PUSH2 0x134F PUSH2 0x1694 JUMP JUMPDEST SUB PUSH2 0x1376 JUMPI PUSH1 0x1 DUP4 PUSH1 0x6 DUP2 GT ISZERO PUSH2 0x1368 JUMPI PUSH2 0x1368 PUSH2 0x1694 JUMP JUMPDEST EQ DUP1 PUSH2 0x12F7 JUMPI POP PUSH1 0x6 PUSH2 0x12E3 JUMP JUMPDEST POP PUSH1 0x0 PUSH2 0x1451 JUMP JUMPDEST PUSH1 0x1 DUP5 PUSH1 0x3 DUP2 GT ISZERO PUSH2 0x1392 JUMPI PUSH2 0x1392 PUSH2 0x1694 JUMP JUMPDEST SUB PUSH2 0x1414 JUMPI PUSH1 0x0 DUP3 PUSH1 0x5 DUP2 GT ISZERO PUSH2 0x13AB JUMPI PUSH2 0x13AB PUSH2 0x1694 JUMP JUMPDEST SUB PUSH2 0x13B7 JUMPI PUSH1 0x5 PUSH2 0x12C6 JUMP JUMPDEST PUSH1 0x1 DUP3 PUSH1 0x5 DUP2 GT ISZERO PUSH2 0x13CB JUMPI PUSH2 0x13CB PUSH2 0x1694 JUMP JUMPDEST SUB PUSH2 0x13D7 JUMPI PUSH1 0x0 PUSH2 0x12C6 JUMP JUMPDEST PUSH1 0x2 DUP3 PUSH1 0x5 DUP2 GT ISZERO PUSH2 0x13EB JUMPI PUSH2 0x13EB PUSH2 0x1694 JUMP JUMPDEST EQ DUP1 PUSH2 0x1408 JUMPI POP PUSH1 0x3 DUP3 PUSH1 0x5 DUP2 GT ISZERO PUSH2 0x1406 JUMPI PUSH2 0x1406 PUSH2 0x1694 JUMP JUMPDEST EQ JUMPDEST ISZERO PUSH2 0x1376 JUMPI PUSH1 0x1 PUSH2 0x12E3 JUMP JUMPDEST PUSH1 0x2 DUP5 PUSH1 0x3 DUP2 GT ISZERO PUSH2 0x1428 JUMPI PUSH2 0x1428 PUSH2 0x1694 JUMP JUMPDEST SUB PUSH2 0x144D JUMPI PUSH1 0x2 DUP3 PUSH1 0x5 DUP2 GT ISZERO PUSH2 0x1441 JUMPI PUSH2 0x1441 PUSH2 0x1694 JUMP JUMPDEST SUB PUSH2 0x1376 JUMPI PUSH1 0x1 PUSH2 0x12E3 JUMP JUMPDEST POP PUSH1 0x0 JUMPDEST SWAP4 SWAP3 POP POP POP JUMP JUMPDEST PUSH1 0x0 PUSH1 0x3 SLOAD TIMESTAMP CALLER PUSH1 0x40 MLOAD PUSH1 0x20 ADD PUSH2 0x1494 SWAP4 SWAP3 SWAP2 SWAP1 SWAP3 DUP4 MSTORE PUSH1 0x20 DUP4 ADD SWAP2 SWAP1 SWAP2 MSTORE PUSH1 0x60 SHL PUSH12 0xFFFFFFFFFFFFFFFFFFFFFFFF NOT AND PUSH1 0x40 DUP3 ADD MSTORE PUSH1 0x54 ADD SWAP1 JUMP JUMPDEST PUSH1 0x40 MLOAD PUSH1 0x20 DUP2 DUP4 SUB SUB DUP2 MSTORE SWAP1 PUSH1 0x40 MSTORE DUP1 MLOAD SWAP1 PUSH1 0x20 ADD KECCAK256 SWAP1 POP SWAP1 JUMP JUMPDEST PUSH1 0x0 DUP3 DUP2 MSTORE PUSH1 0x2 PUSH1 0x20 SWAP1 DUP2 MSTORE PUSH1 0x40 DUP1 DUP4 KECCAK256 DUP1 SLOAD DUP3 MLOAD DUP2 DUP6 MUL DUP2 ADD DUP6 ADD SWAP1 SWAP4 MSTORE DUP1 DUP4 MSTORE DUP5 SWAP4 DUP4 ADD DUP3 DUP3 DUP1 ISZERO PUSH2 0x150C JUMPI PUSH1 0x20 MUL DUP3 ADD SWAP2 SWAP1 PUSH1 0x0 MSTORE PUSH1 0x20 PUSH1 0x0 KECCAK256 SWAP1 JUMPDEST DUP2 SLOAD PUSH1 0x1 PUSH1 0x1 PUSH1 0xA0 SHL SUB AND DUP2 MSTORE PUSH1 0x1 SWAP1 SWAP2 ADD SWAP1 PUSH1 0x20 ADD DUP1 DUP4 GT PUSH2 0x14EE JUMPI JUMPDEST POP POP POP POP POP SWAP1 POP PUSH1 0x0 JUMPDEST DUP2 MLOAD DUP2 LT ISZERO PUSH2 0x156E JUMPI DUP4 PUSH1 0x1 PUSH1 0x1 PUSH1 0xA0 SHL SUB AND DUP3 DUP3 DUP2 MLOAD DUP2 LT PUSH2 0x153B JUMPI PUSH2 0x153B PUSH2 0x1BB3 JUMP JUMPDEST PUSH1 0x20 MUL PUSH1 0x20 ADD ADD MLOAD PUSH1 0x1 PUSH1 0x1 PUSH1 0xA0 SHL SUB AND SUB PUSH2 0x155C JUMPI PUSH1 0x1 SWAP3 POP POP POP PUSH2 0x79F JUMP JUMPDEST DUP1 PUSH2 0x1566 DUP2 PUSH2 0x1C08 JUMP JUMPDEST SWAP2 POP POP PUSH2 0x1516 JUMP JUMPDEST POP PUSH1 0x0 SWAP5 SWAP4 POP POP POP POP JUMP JUMPDEST DUP1 CALLDATALOAD PUSH1 0x1 PUSH1 0x1 PUSH1 0xA0 SHL SUB DUP2 AND DUP2 EQ PUSH2 0x1590 JUMPI PUSH1 0x0 DUP1 REVERT JUMPDEST SWAP2 SWAP1 POP JUMP JUMPDEST PUSH1 0x0 DUP1 PUSH1 0x40 DUP4 DUP6 SUB SLT ISZERO PUSH2 0x15A8 JUMPI PUSH1 0x0 DUP1 REVERT JUMPDEST DUP3 CALLDATALOAD SWAP2 POP PUSH2 0x15B8 PUSH1 0x20 DUP5 ADD PUSH2 0x1579 JUMP JUMPDEST SWAP1 POP SWAP3 POP SWAP3 SWAP1 POP JUMP JUMPDEST PUSH1 0x0 PUSH1 0x20 DUP3 DUP5 SUB SLT ISZERO PUSH2 0x15D3 JUMPI PUSH1 0x0 DUP1 REVERT JUMPDEST POP CALLDATALOAD SWAP2 SWAP1 POP JUMP JUMPDEST PUSH1 0x0 JUMPDEST DUP4 DUP2 LT ISZERO PUSH2 0x15F5 JUMPI DUP2 DUP2 ADD MLOAD DUP4 DUP3 ADD MSTORE PUSH1 0x20 ADD PUSH2 0x15DD JUMP JUMPDEST POP POP PUSH1 0x0 SWAP2 ADD MSTORE JUMP JUMPDEST PUSH1 0x0 DUP2 MLOAD DUP1 DUP5 MSTORE PUSH2 0x1616 DUP2 PUSH1 0x20 DUP7 ADD PUSH1 0x20 DUP7 ADD PUSH2 0x15DA JUMP JUMPDEST PUSH1 0x1F ADD PUSH1 0x1F NOT AND SWAP3 SWAP1 SWAP3 ADD PUSH1 0x20 ADD SWAP3 SWAP2 POP POP JUMP JUMPDEST PUSH1 0x20 DUP2 MSTORE DUP2 MLOAD PUSH1 0x20 DUP3 ADD MSTORE PUSH1 0x0 PUSH1 0x20 DUP4 ADD MLOAD PUSH1 0xC0 PUSH1 0x40 DUP5 ADD MSTORE PUSH2 0x1650 PUSH1 0xE0 DUP5 ADD DUP3 PUSH2 0x15FE JUMP JUMPDEST SWAP1 POP PUSH1 0x1 DUP1 PUSH1 0xA0 SHL SUB PUSH1 0x40 DUP6 ADD MLOAD AND PUSH1 0x60 DUP5 ADD MSTORE PUSH1 0x60 DUP5 ADD MLOAD PUSH1 0x80 DUP5 ADD MSTORE PUSH4 0xFFFFFFFF PUSH1 0x80 DUP6 ADD MLOAD AND PUSH1 0xA0 DUP5 ADD MSTORE PUSH1 0xA0 DUP5 ADD MLOAD ISZERO ISZERO PUSH1 0xC0 DUP5 ADD MSTORE DUP1 SWAP2 POP POP SWAP3 SWAP2 POP POP JUMP JUMPDEST PUSH4 0x4E487B71 PUSH1 0xE0 SHL PUSH1 0x0 MSTORE PUSH1 0x21 PUSH1 0x4 MSTORE PUSH1 0x24 PUSH1 0x0 REVERT JUMPDEST PUSH1 0x4 DUP2 LT PUSH2 0x16C8 JUMPI PUSH4 0x4E487B71 PUSH1 0xE0 SHL PUSH1 0x0 MSTORE PUSH1 0x21 PUSH1 0x4 MSTORE PUSH1 0x24 PUSH1 0x0 REVERT JUMPDEST SWAP1 MSTORE JUMP JUMPDEST PUSH1 0x40 DUP2 ADD PUSH2 0x16DA DUP3 DUP6 PUSH2 0x16AA JUMP JUMPDEST DUP3 ISZERO ISZERO PUSH1 0x20 DUP4 ADD MSTORE SWAP4 SWAP3 POP POP POP JUMP JUMPDEST PUSH1 0x0 PUSH2 0x100 DUP3 ADD SWAP1 POP DUP3 MLOAD DUP3 MSTORE PUSH1 0x20 DUP4 ADD MLOAD PUSH1 0x20 DUP4 ADD MSTORE PUSH1 0x40 DUP4 ADD MLOAD PUSH1 0x1 DUP1 PUSH1 0xA0 SHL SUB DUP1 DUP3 AND PUSH1 0x40 DUP6 ADD MSTORE PUSH1 0x60 DUP6 ADD MLOAD SWAP2 POP PUSH2 0x1728 PUSH1 0x60 DUP6 ADD DUP4 PUSH2 0x16AA JUMP JUMPDEST DUP1 PUSH1 0x80 DUP7 ADD MLOAD AND PUSH1 0x80 DUP6 ADD MSTORE POP POP PUSH1 0xA0 DUP4 ADD MLOAD PUSH1 0xA0 DUP4 ADD MSTORE PUSH1 0xC0 DUP4 ADD MLOAD PUSH1 0xC0 DUP4 ADD MSTORE PUSH1 0xE0 DUP4 ADD MLOAD ISZERO ISZERO PUSH1 0xE0 DUP4 ADD MSTORE SWAP3 SWAP2 POP POP JUMP JUMPDEST DUP1 CALLDATALOAD PUSH1 0x4 DUP2 LT PUSH2 0x1590 JUMPI PUSH1 0x0 DUP1 REVERT JUMPDEST PUSH1 0x0 DUP1 PUSH1 0x0 DUP1 PUSH1 0x80 DUP6 DUP8 SUB SLT ISZERO PUSH2 0x1781 JUMPI PUSH1 0x0 DUP1 REVERT JUMPDEST DUP5 CALLDATALOAD SWAP4 POP PUSH2 0x1791 PUSH1 0x20 DUP7 ADD PUSH2 0x1579 JUMP JUMPDEST SWAP3 POP PUSH2 0x179F PUSH1 0x40 DUP7 ADD PUSH2 0x175C JUMP JUMPDEST SWAP4 SWAP7 SWAP3 SWAP6 POP SWAP3 SWAP4 PUSH1 0x60 ADD CALLDATALOAD SWAP3 POP POP JUMP JUMPDEST PUSH4 0x4E487B71 PUSH1 0xE0 SHL PUSH1 0x0 MSTORE PUSH1 0x41 PUSH1 0x4 MSTORE PUSH1 0x24 PUSH1 0x0 REVERT JUMPDEST PUSH1 0x0 PUSH1 0x20 DUP3 DUP5 SUB SLT ISZERO PUSH2 0x17D7 JUMPI PUSH1 0x0 DUP1 REVERT JUMPDEST DUP2 CALLDATALOAD PUSH8 0xFFFFFFFFFFFFFFFF DUP1 DUP3 GT ISZERO PUSH2 0x17EF JUMPI PUSH1 0x0 DUP1 REVERT JUMPDEST DUP2 DUP5 ADD SWAP2 POP DUP5 PUSH1 0x1F DUP4 ADD SLT PUSH2 0x1803 JUMPI PUSH1 0x0 DUP1 REVERT JUMPDEST DUP2 CALLDATALOAD DUP2 DUP2 GT ISZERO PUSH2 0x1815 JUMPI PUSH2 0x1815 PUSH2 0x17AF JUMP JUMPDEST PUSH1 0x40 MLOAD PUSH1 0x1F DUP3 ADD PUSH1 0x1F NOT SWAP1 DUP2 AND PUSH1 0x3F ADD AND DUP2 ADD SWAP1 DUP4 DUP3 GT DUP2 DUP4 LT OR ISZERO PUSH2 0x183D JUMPI PUSH2 0x183D PUSH2 0x17AF JUMP JUMPDEST DUP2 PUSH1 0x40 MSTORE DUP3 DUP2 MSTORE DUP8 PUSH1 0x20 DUP5 DUP8 ADD ADD GT ISZERO PUSH2 0x1856 JUMPI PUSH1 0x0 DUP1 REVERT JUMPDEST DUP3 PUSH1 0x20 DUP7 ADD PUSH1 0x20 DUP4 ADD CALLDATACOPY PUSH1 0x0 SWAP3 DUP2 ADD PUSH1 0x20 ADD SWAP3 SWAP1 SWAP3 MSTORE POP SWAP6 SWAP5 POP POP POP POP POP JUMP JUMPDEST PUSH1 0x0 DUP1 PUSH1 0x40 DUP4 DUP6 SUB SLT ISZERO PUSH2 0x1889 JUMPI PUSH1 0x0 DUP1 REVERT JUMPDEST POP POP DUP1 CALLDATALOAD SWAP3 PUSH1 0x20 SWAP1 SWAP2 ADD CALLDATALOAD SWAP2 POP JUMP JUMPDEST PUSH1 0x0 DUP1 PUSH1 0x0 PUSH1 0x60 DUP5 DUP7 SUB SLT ISZERO PUSH2 0x18AD JUMPI PUSH1 0x0 DUP1 REVERT JUMPDEST DUP4 CALLDATALOAD SWAP3 POP PUSH2 0x18BD PUSH1 0x20 DUP6 ADD PUSH2 0x1579 JUMP JUMPDEST SWAP2 POP PUSH2 0x18CB PUSH1 0x40 DUP6 ADD PUSH2 0x175C JUMP JUMPDEST SWAP1 POP SWAP3 POP SWAP3 POP SWAP3 JUMP JUMPDEST PUSH1 0x0 DUP1 PUSH1 0x0 DUP1 PUSH1 0x80 DUP6 DUP8 SUB SLT ISZERO PUSH2 0x18EA JUMPI PUSH1 0x0 DUP1 REVERT JUMPDEST DUP5 CALLDATALOAD SWAP4 POP PUSH2 0x18FA PUSH1 0x20 DUP7 ADD PUSH2 0x1579 JUMP JUMPDEST SWAP3 POP PUSH1 0x40 DUP6 ADD CALLDATALOAD PUSH1 0x7 DUP2 LT PUSH2 0x190E JUMPI PUSH1 0x0 DUP1 REVERT JUMPDEST SWAP2 POP PUSH1 0x60 DUP6 ADD CALLDATALOAD PUSH1 0x6 DUP2 LT PUSH2 0x1922 JUMPI PUSH1 0x0 DUP1 REVERT JUMPDEST SWAP4 SWAP7 SWAP3 SWAP6 POP SWAP1 SWAP4 POP POP JUMP JUMPDEST DUP7 DUP2 MSTORE PUSH1 0xC0 PUSH1 0x20 DUP3 ADD MSTORE PUSH1 0x0 PUSH2 0x1946 PUSH1 0xC0 DUP4 ADD DUP9 PUSH2 0x15FE JUMP JUMPDEST PUSH1 0x1 PUSH1 0x1 PUSH1 0xA0 SHL SUB SWAP7 SWAP1 SWAP7 AND PUSH1 0x40 DUP4 ADD MSTORE POP PUSH1 0x60 DUP2 ADD SWAP4 SWAP1 SWAP4 MSTORE PUSH4 0xFFFFFFFF SWAP2 SWAP1 SWAP2 AND PUSH1 0x80 DUP4 ADD MSTORE ISZERO ISZERO PUSH1 0xA0 SWAP1 SWAP2 ADD MSTORE SWAP3 SWAP2 POP POP JUMP JUMPDEST PUSH1 0x20 DUP1 DUP3 MSTORE DUP3 MLOAD DUP3 DUP3 ADD DUP2 SWAP1 MSTORE PUSH1 0x0 SWAP2 SWAP1 DUP5 DUP3 ADD SWAP1 PUSH1 0x40 DUP6 ADD SWAP1 DUP5 JUMPDEST DUP2 DUP2 LT ISZERO PUSH2 0x19BD JUMPI DUP4 MLOAD PUSH1 0x1 PUSH1 0x1 PUSH1 0xA0 SHL SUB AND DUP4 MSTORE SWAP3 DUP5 ADD SWAP3 SWAP2 DUP5 ADD SWAP2 PUSH1 0x1 ADD PUSH2 0x1998 JUMP JUMPDEST POP SWAP1 SWAP7 SWAP6 POP POP POP POP POP POP JUMP JUMPDEST DUP9 DUP2 MSTORE PUSH1 0x20 DUP2 ADD DUP9 SWAP1 MSTORE PUSH1 0x1 PUSH1 0x1 PUSH1 0xA0 SHL SUB DUP8 DUP2 AND PUSH1 0x40 DUP4 ADD MSTORE PUSH2 0x100 DUP3 ADD SWAP1 PUSH2 0x19F6 PUSH1 0x60 DUP5 ADD DUP10 PUSH2 0x16AA JUMP JUMPDEST SWAP6 SWAP1 SWAP6 AND PUSH1 0x80 DUP3 ADD MSTORE PUSH1 0xA0 DUP2 ADD SWAP4 SWAP1 SWAP4 MSTORE PUSH1 0xC0 DUP4 ADD SWAP2 SWAP1 SWAP2 MSTORE ISZERO ISZERO PUSH1 0xE0 SWAP1 SWAP2 ADD MSTORE SWAP5 SWAP4 POP POP POP POP JUMP JUMPDEST PUSH1 0x1 DUP2 DUP2 SHR SWAP1 DUP3 AND DUP1 PUSH2 0x1A33 JUMPI PUSH1 0x7F DUP3 AND SWAP2 POP JUMPDEST PUSH1 0x20 DUP3 LT DUP2 SUB PUSH2 0x1A53 JUMPI PUSH4 0x4E487B71 PUSH1 0xE0 SHL PUSH1 0x0 MSTORE PUSH1 0x22 PUSH1 0x4 MSTORE PUSH1 0x24 PUSH1 0x0 REVERT JUMPDEST POP SWAP2 SWAP1 POP JUMP JUMPDEST PUSH1 0x1F DUP3 GT ISZERO PUSH2 0x1AA3 JUMPI PUSH1 0x0 DUP2 DUP2 MSTORE PUSH1 0x20 DUP2 KECCAK256 PUSH1 0x1F DUP6 ADD PUSH1 0x5 SHR DUP2 ADD PUSH1 0x20 DUP7 LT ISZERO PUSH2 0x1A80 JUMPI POP DUP1 JUMPDEST PUSH1 0x1F DUP6 ADD PUSH1 0x5 SHR DUP3 ADD SWAP2 POP JUMPDEST DUP2 DUP2 LT ISZERO PUSH2 0x1A9F JUMPI DUP3 DUP2 SSTORE PUSH1 0x1 ADD PUSH2 0x1A8C JUMP JUMPDEST POP POP POP JUMPDEST POP POP POP JUMP JUMPDEST DUP2 MLOAD PUSH8 0xFFFFFFFFFFFFFFFF DUP2 GT ISZERO PUSH2 0x1AC2 JUMPI PUSH2 0x1AC2 PUSH2 0x17AF JUMP JUMPDEST PUSH2 0x1AD6 DUP2 PUSH2 0x1AD0 DUP5 SLOAD PUSH2 0x1A1F JUMP JUMPDEST DUP5 PUSH2 0x1A59 JUMP JUMPDEST PUSH1 0x20 DUP1 PUSH1 0x1F DUP4 GT PUSH1 0x1 DUP2 EQ PUSH2 0x1B0B JUMPI PUSH1 0x0 DUP5 ISZERO PUSH2 0x1AF3 JUMPI POP DUP6 DUP4 ADD MLOAD JUMPDEST PUSH1 0x0 NOT PUSH1 0x3 DUP7 SWAP1 SHL SHR NOT AND PUSH1 0x1 DUP6 SWAP1 SHL OR DUP6 SSTORE PUSH2 0x1A9F JUMP JUMPDEST PUSH1 0x0 DUP6 DUP2 MSTORE PUSH1 0x20 DUP2 KECCAK256 PUSH1 0x1F NOT DUP7 AND SWAP2 JUMPDEST DUP3 DUP2 LT ISZERO PUSH2 0x1B3A JUMPI DUP9 DUP7 ADD MLOAD DUP3 SSTORE SWAP5 DUP5 ADD SWAP5 PUSH1 0x1 SWAP1 SWAP2 ADD SWAP1 DUP5 ADD PUSH2 0x1B1B JUMP JUMPDEST POP DUP6 DUP3 LT ISZERO PUSH2 0x1B58 JUMPI DUP8 DUP6 ADD MLOAD PUSH1 0x0 NOT PUSH1 0x3 DUP9 SWAP1 SHL PUSH1 0xF8 AND SHR NOT AND DUP2 SSTORE JUMPDEST POP POP POP POP POP PUSH1 0x1 SWAP1 DUP2 SHL ADD SWAP1 SSTORE POP JUMP JUMPDEST PUSH1 0x40 DUP2 MSTORE PUSH1 0x0 PUSH2 0x1B7B PUSH1 0x40 DUP4 ADD DUP6 PUSH2 0x15FE JUMP JUMPDEST SWAP1 POP DUP3 PUSH1 0x20 DUP4 ADD MSTORE SWAP4 SWAP3 POP POP POP JUMP JUMPDEST PUSH1 0x60 DUP2 ADD PUSH2 0x1B98 DUP3 DUP7 PUSH2 0x16AA JUMP JUMPDEST PUSH2 0x1BA5 PUSH1 0x20 DUP4 ADD DUP6 PUSH2 0x16AA JUMP JUMPDEST DUP3 PUSH1 0x40 DUP4 ADD MSTORE SWAP5 SWAP4 POP POP POP POP JUMP JUMPDEST PUSH4 0x4E487B71 PUSH1 0xE0 SHL PUSH1 0x0 MSTORE PUSH1 0x32 PUSH1 0x4 MSTORE PUSH1 0x24 PUSH1 0x0 REVERT JUMPDEST PUSH4 0x4E487B71 PUSH1 0xE0 SHL PUSH1 0x0 MSTORE PUSH1 0x11 PUSH1 0x4 MSTORE PUSH1 0x24 PUSH1 0x0 REVERT JUMPDEST DUP2 DUP2 SUB DUP2 DUP2 GT ISZERO PUSH2 0x79F JUMPI PUSH2 0x79F PUSH2 0x1BC9 JUMP JUMPDEST PUSH4 0x4E487B71 PUSH1 0xE0 SHL PUSH1 0x0 MSTORE PUSH1 0x31 PUSH1 0x4 MSTORE PUSH1 0x24 PUSH1 0x0 REVERT JUMPDEST PUSH1 0x0 PUSH1 0x1 DUP3 ADD PUSH2 0x1C1A JUMPI PUSH2 0x1C1A PUSH2 0x1BC9 JUMP JUMPDEST POP PUSH1 0x1 ADD SWAP1 JUMP JUMPDEST PUSH1 0x60 DUP2 ADD PUSH2 0x1C2F DUP3 DUP7 PUSH2 0x16AA JUMP JUMPDEST PUSH1 0x1 PUSH1 0x1 PUSH1 0xA0 SHL SUB SWAP4 SWAP1 SWAP4 AND PUSH1 0x20 DUP3 ADD MSTORE PUSH1 0x40 ADD MSTORE SWAP2 SWAP1 POP JUMP JUMPDEST PUSH1 0x0 DUP5 MLOAD PUSH2 0x1C5B DUP2 DUP5 PUSH1 0x20 DUP10 ADD PUSH2 0x15DA JUMP JUMPDEST PUSH1 0x60 SWAP5 SWAP1 SWAP5 SHL PUSH12 0xFFFFFFFFFFFFFFFFFFFFFFFF NOT AND SWAP2 SWAP1 SWAP4 ADD SWAP1 DUP2 MSTORE PUSH1 0x14 DUP2 ADD SWAP2 SWAP1 SWAP2 MSTORE PUSH1 0x34 ADD SWAP3 SWAP2 POP POP JUMP INVALID LOG2 PUSH5 0x6970667358 0x22 SLT KECCAK256 PUSH18 0xF3BAF7C0F85EF4ED6D45F12502411C2C6E91 MSIZE PUSH17 0xDE8194BC0889FE4A21E72F64736F6C6343 STOP ADDMOD EQ STOP CALLER "},"methodIdentifiers":{"createOrganization(string)":"6427acca","credentials(bytes32,address)":"f078e5db","getCredential(bytes32,address)":"28073c7c","getMemberCount(bytes32)":"93f36bd8","getOrganization(bytes32)":"22b3cd4e","getOrganizationMembers(bytes32)":"c1f8218a","getUserRole(bytes32,address)":"263a77ef","hasPermission(bytes32,address,uint8,uint8)":"acd7facd","issueCredential(bytes32,address,uint8,uint256)":"610070f0","orgMembers(bytes32,uint256)":"7622f042","organizations(bytes32)":"ba51b14e","revokeCredential(bytes32,address)":"10548797","updateRole(bytes32,address,uint8)":"877c5e2c"}}}}}