{"project/contracts/Intran3tRBAC.sol":{"Intran3tRBAC":{"abi":[{"inputs":[],"stateMutability":"nonpayable","type":"constructor"},{"inputs":[],"name":"Intran3tRBAC__CannotRevokeSelf","type":"error"},{"inputs":[],"name":"Intran3tRBAC__CredentialAlreadyRevoked","type":"error"},{"inputs":[],"name":"Intran3tRBAC__CredentialNotFound","type":"error"},{"inputs":[],"name":"Intran3tRBAC__InvalidOrganizationName","type":"error"},{"inputs":[],"name":"Intran3tRBAC__OrganizationExists","type":"error"},{"inputs":[],"name":"Intran3tRBAC__OrganizationNotFound","type":"error"},{"inputs":[],"name":"Intran3tRBAC__Unauthorized","type":"error"},{"anonymous":false,"inputs":[{"indexed":true,"internalType":"bytes32","name":"credentialId","type":"bytes32"},{"indexed":true,"internalType":"bytes32","name":"orgId","type":"bytes32"},{"indexed":true,"internalType":"address","name":"subject","type":"address"},{"indexed":false,"internalType":"enum Intran3tRBAC.Role","name":"role","type":"uint8"},{"indexed":false,"internalType":"address","name":"issuedBy","type":"address"},{"indexed":false,"internalType":"uint256","name":"timestamp","type":"uint256"}],"name":"CredentialIssued","type":"event"},{"anonymous":false,"inputs":[{"indexed":true,"internalType":"bytes32","name":"orgId","type":"bytes32"},{"indexed":true,"internalType":"address","name":"subject","type":"address"},{"indexed":true,"internalType":"address","name":"revokedBy","type":"address"},{"indexed":false,"internalType":"uint256","name":"timestamp","type":"uint256"}],"name":"CredentialRevoked","type":"event"},{"anonymous":false,"inputs":[{"indexed":true,"internalType":"bytes32","name":"orgId","type":"bytes32"},{"indexed":true,"internalType":"address","name":"owner","type":"address"},{"indexed":false,"internalType":"string","name":"name","type":"string"},{"indexed":false,"internalType":"uint256","name":"timestamp","type":"uint256"}],"name":"OrganizationCreated","type":"event"},{"anonymous":false,"inputs":[{"indexed":true,"internalType":"bytes32","name":"orgId","type":"bytes32"},{"indexed":true,"internalType":"address","name":"subject","type":"address"},{"indexed":false,"internalType":"enum Intran3tRBAC.Role","name":"oldRole","type":"uint8"},{"indexed":false,"internalType":"enum Intran3tRBAC.Role","name":"newRole","type":"uint8"},{"indexed":false,"internalType":"uint256","name":"timestamp","type":"uint256"}],"name":"RoleUpdated","type":"event"},{"inputs":[{"internalType":"string","name":"name","type":"string"}],"name":"createOrganization","outputs":[{"internalType":"bytes32","name":"orgId","type":"bytes32"}],"stateMutability":"nonpayable","type":"function"},{"inputs":[{"internalType":"bytes32","name":"","type":"bytes32"},{"internalType":"address","name":"","type":"address"}],"name":"credentials","outputs":[{"internalType":"bytes32","name":"id","type":"bytes32"},{"internalType":"bytes32","name":"orgId","type":"bytes32"},{"internalType":"address","name":"subject","type":"address"},{"internalType":"enum Intran3tRBAC.Role","name":"role","type":"uint8"},{"internalType":"address","name":"issuedBy","type":"address"},{"internalType":"uint256","name":"issuedAt","type":"uint256"},{"internalType":"uint256","name":"expiresAt","type":"uint256"},{"internalType":"bool","name":"revoked","type":"bool"}],"stateMutability":"view","type":"function"},{"inputs":[{"internalType":"bytes32","name":"orgId","type":"bytes32"},{"internalType":"address","name":"user","type":"address"}],"name":"getCredential","outputs":[{"components":[{"internalType":"bytes32","name":"id","type":"bytes32"},{"internalType":"bytes32","name":"orgId","type":"bytes32"},{"internalType":"address","name":"subject","type":"address"},{"internalType":"enum Intran3tRBAC.Role","name":"role","type":"uint8"},{"internalType":"address","name":"issuedBy","type":"address"},{"internalType":"uint256","name":"issuedAt","type":"uint256"},{"internalType":"uint256","name":"expiresAt","type":"uint256"},{"internalType":"bool","name":"revoked","type":"bool"}],"internalType":"struct Intran3tRBAC.Credential","name":"credential","type":"tuple"}],"stateMutability":"view","type":"function"},{"inputs":[{"internalType":"bytes32","name":"orgId","type":"bytes32"}],"name":"getMemberCount","outputs":[{"internalType":"uint32","name":"count","type":"uint32"}],"stateMutability":"view","type":"function"},{"inputs":[{"internalType":"bytes32","name":"orgId","type":"bytes32"}],"name":"getOrganization","outputs":[{"components":[{"internalType":"string","name":"name","type":"string"},{"internalType":"address","name":"owner","type":"address"},{"internalType":"uint256","name":"createdAt","type":"uint256"},{"internalType":"uint32","name":"memberCount","type":"uint32"}],"internalType":"struct Intran3tRBAC.Organization","name":"organization","type":"tuple"}],"stateMutability":"view","type":"function"},{"inputs":[{"internalType":"bytes32","name":"orgId","type":"bytes32"}],"name":"getOrganizationMembers","outputs":[{"internalType":"address[]","name":"members","type":"address[]"}],"stateMutability":"view","type":"function"},{"inputs":[{"internalType":"bytes32","name":"orgId","type":"bytes32"},{"internalType":"address","name":"user","type":"address"}],"name":"getUserRole","outputs":[{"internalType":"enum Intran3tRBAC.Role","name":"role","type":"uint8"},{"internalType":"bool","name":"hasRole","type":"bool"}],"stateMutability":"view","type":"function"},{"inputs":[{"internalType":"bytes32","name":"orgId","type":"bytes32"},{"internalType":"address","name":"user","type":"address"},{"internalType":"enum Intran3tRBAC.Action","name":"action","type":"uint8"},{"internalType":"enum Intran3tRBAC.Resource","name":"resource","type":"uint8"}],"name":"hasPermission","outputs":[{"internalType":"bool","name":"","type":"bool"}],"stateMutability":"view","type":"function"},{"inputs":[{"internalType":"bytes32","name":"orgId","type":"bytes32"},{"internalType":"address","name":"subject","type":"address"},{"internalType":"enum Intran3tRBAC.Role","name":"role","type":"uint8"},{"internalType":"uint256","name":"expiresAt","type":"uint256"}],"name":"issueCredential","outputs":[{"internalType":"bytes32","name":"credentialId","type":"bytes32"}],"stateMutability":"nonpayable","type":"function"},{"inputs":[{"internalType":"bytes32","name":"","type":"bytes32"},{"internalType":"uint256","name":"","type":"uint256"}],"name":"orgMembers","outputs":[{"internalType":"address","name":"","type":"address"}],"stateMutability":"view","type":"function"},{"inputs":[{"internalType":"bytes32","name":"","type":"bytes32"}],"name":"organizations","outputs":[{"internalType":"string","name":"name","type":"string"},{"internalType":"address","name":"owner","type":"address"},{"internalType":"uint256","name":"createdAt","type":"uint256"},{"internalType":"uint32","name":"memberCount","type":"uint32"}],"stateMutability":"view","type":"function"},{"inputs":[{"internalType":"bytes32","name":"orgId","type":"bytes32"},{"internalType":"address","name":"subject","type":"address"}],"name":"revokeCredential","outputs":[],"stateMutability":"nonpayable","type":"function"},{"inputs":[{"internalType":"bytes32","name":"orgId","type":"bytes32"},{"internalType":"address","name":"subject","type":"address"},{"internalType":"enum Intran3tRBAC.Role","name":"newRole","type":"uint8"}],"name":"updateRole","outputs":[],"stateMutability":"nonpayable","type":"function"}],"evm":{"bytecode":{"linkReferences":{},"object":"6080806040523461001a575f600355611734908161001f8239f35b5f80fdfe6080806040526004361015610012575f80fd5b5f3560e01c9081631054879714610de65750806322b3cd4e14610d22578063263a77ef14610ce757806328073c7c14610bb5578063610070f01461096e5780636427acca146104745780637622f04214610424578063877c5e2c146102f557806393f36bd8146102c3578063acd7facd14610278578063ba51b14e14610206578063c1f8218a146101545763f078e5db146100ab575f80fd5b34610150576040366003190112610150576101006100c7610fbc565b6004355f52600160205260405f2060018060a01b038092165f5260205260405f20908154916001810154916002820154610138826003850154169160048501549360ff60066005880154970154169660405198895260208901528116604088015260ff606088019160a01c16611018565b608085015260a084015260c0830152151560e0820152f35b5f80fd5b3461015057602080600319360112610150576004355f526002815260405f20604051908183825491828152019081925f52845f20905f5b868282106101e95786866101a18288038361105e565b60405192839281840190828552518091526040840192915f5b8281106101c957505050500390f35b83516001600160a01b0316855286955093810193928101926001016101ba565b83546001600160a01b03168552909301926001928301920161018b565b34610150576020366003190112610150576004355f525f60205261026460405f20610230816110e1565b9060018060a01b036001820154169063ffffffff600360028301549201541690604051948594608086526080860190610ff3565b926020850152604084015260608301520390f35b3461015057608036600319011261015057610291610fbc565b604435906007821015610150576064356006811015610150576020926102b9926004356111b2565b6040519015158152f35b34610150576020366003190112610150576004355f525f602052602063ffffffff600360405f20015416604051908152f35b3461015057606036600319011261015057600435610311610fbc565b906044356004811015610150575f828152602081905260409020600101546001600160a01b0391908216156104125761034a338461146d565b1561040057825f5260016020528160405f20941693845f5260205260405f2060028101908154938416156103ee576006015460ff166103dc576103d3826103c97f29ef24661d99cbc3b2c8ec400aadb4bb814214d294afc41fc7791acb3aced679956103ba60609660ff96611182565b60405194859160a01c16611018565b6020830190611018565b426040820152a3005b60405163bd583cf560e01b8152600490fd5b60405163192c78b760e01b8152600490fd5b604051631e5d748160e31b8152600490fd5b6040516313ec158f60e11b8152600490fd5b34610150576040366003190112610150576024356004355f52600260205260405f2080548210156101505760209161045b91611080565b905460405160039290921b1c6001600160a01b03168152f35b346101505760203660031901126101505760043567ffffffffffffffff80821161015057366023830112156101505781600401359181831161085c57604051926104c8601f8201601f19166020018561105e565b8084526020840191366024838301011161015057815f9260246020930185378501015282518015908115610963575b506109515761051b9061053a60546040518093602082019586918951928391610fd2565b81013360601b602082015242603482015203603481018452018261105e565b51902090815f525f60205260018060a01b03600160405f2001541661093f5760405161056581611025565b83815233602082015242604082015260016060820152825f525f60205260405f20918151805191821161085c5761059c84546110a9565b601f81116108fe575b50602090601f831160011461088f57928263ffffffff936060936003965f92610884575b50508160011b915f1990871b1c19161785555b6001850160018060a01b036020830151166001600160601b0360a01b8254161790556040810151600286015501511663ffffffff19828401541617910155600354604051602081019182524260408201523360601b60608201526054815261064381611025565b5190209160405161065381611041565b8381528260208201523360408201525f60608201523360808201524260a08201525f60c08201525f60e0820152825f52600160205260405f20335f5260205260405f20815181556020820151600182015560018060a01b036040830151166001600160601b0360a01b60028301541617600282015560608201519160048310156108705760e06006916106ec6107399560028601611182565b6003840160018060a01b036080830151166001600160601b0360a01b82541617905560a0810151600485015560c081015160058501550151151591019060ff801983541691151516179055565b61074333836113cb565b156107de575b6020926107576003546113bd565b60035582604051915f835233868401524260408401527f5acbd21a5cf96723712686ed23534969240df6498893b2a15b0fb3a75c11211360603394a4817f3e593b27b72277702561f73a85195c02dd25b324183253d096a6e84b53d7ce746107ca60405193604085526040850190610ff3565b9242868201528033940390a3604051908152f35b815f52600260205260405f20928354600160401b81101561085c5761080e81602096600161082c94018155611080565b81546001600160a01b0360039290921b91821b19163390911b179055565b825f526002845263ffffffff60405f2054165f8552600360405f20019063ffffffff198254161790559250610749565b634e487b7160e01b5f52604160045260245ffd5b634e487b7160e01b5f52602160045260245ffd5b0151905089806105c9565b90845f5260205f20915f5b601f19851681106108e65750836060936003969360019363ffffffff97601f198116106108cf575b505050811b0185556105dc565b01515f1983891b60f8161c191690558980806108c2565b9192602060018192868501518155019401920161089a565b845f5260205f20601f840160051c810160208510610938575b601f830160051c8201811061092d5750506105a5565b5f8155600101610917565b5080610917565b60405163101e392960e31b8152600490fd5b604051632dd83d5160e01b8152600490fd5b6040915011846104f7565b3461015057608036600319011261015057610987610fbc565b60046044351015610150576004355f908152602081905260409020600101546001600160a01b031615610412576109c03360043561146d565b1561040057600354604051602081019182524260408201523360601b6060820152605481526109ee81611025565b5190206040516109fd81611041565b81815260043560208201526001600160a01b038316604082015260608101610a27604435826111a6565b3360808301524260a083015260643560c08301525f60e08301526004355f52600160205260405f2060018060a01b0385165f5260205260405f2090825182556020830151600183015560018060a01b036040840151166001600160601b0360a01b600284015416176002830155519160048310156108705760e06006916106ec610ab49560028601611182565b610ac0826004356113cb565b15610b30575b602091610ad46003546113bd565b60035560405190610ae782604435611018565b33828501524260408301526001600160a01b0316906004359083907f5acbd21a5cf96723712686ed23534969240df6498893b2a15b0fb3a75c11211390606090a4604051908152f35b6004355f52600260205260405f2091825492600160401b84101561085c5781610b6485610b83936001602098018155611080565b90919082549060031b9160018060a01b03809116831b921b1916179055565b6004355f526002835263ffffffff60405f2054165f8452600360405f20019063ffffffff198254161790559150610ac6565b3461015057604036600319011261015057610100610bd1610fbc565b5f60e0604051610be081611041565b8281528260208201528260408201528260608201528260808201528260a08201528260c082015201526004355f52600160205260405f2060018060a01b038092165f5260205260405f209060405191610c3883611041565b805483526001810154916020840192835260028201549060408501918181168352610c6d60ff606088019260a01c16826111a6565b610cca8260038601541691608088019283528360048701549560a08a0196875260ff600660058a01549960c08d019a8b520154169860e08b019915158a526040519a518b525160208b015251166040890152516060880190611018565b511660808501525160a08401525160c083015251151560e0820152f35b34610150576040366003190112610150576040610d0d610d05610fbc565b6004356112c6565b610d1983518093611018565b15156020820152f35b3461015057602080600319360112610150576080905f6060604051610d4681611025565b818152828482015282604082015201526004355f525f815260405f20600360405192610d7184611025565b610d7a836110e1565b845260018060a01b03928360018201541693828601948552610dcd6002830154926040880193845263ffffffff9586910154169360608801948552604051988998828a52519189015260a0880190610ff3565b9451166040860152516060850152511660808301520390f35b346101505760403660031901126101505760043590610e03610fbc565b825f526020925f845260018060a01b03600193818560405f2001541615610fad5750610e2f338361146d565b1561040057815f528385528060405f20931692835f52855260405f2081600282015416156103ee57338414610f9b57600601805460ff1916851790555f828152600286526040812090855b610ed8575b868585805f526002835263ffffffff60405f2054165f8452600360405f20019063ffffffff198254161790557fa3c406139cb7c877d96b790d54ab43bf55058b2d40cec2dd4c5723300e50515e604051934285523394a4005b815480821015610f9557839086610eef8486611080565b939054600394851b1c1614610f0f575050610f09906113bd565b85610e7a565b95965093949192915f1991828201918211610f8157610b6484610f35610f439488611080565b905490891b1c169186611080565b82548015610f6d570192610f578484611080565b81939154921b1b19169055558190848080610e7f565b634e487b7160e01b5f52603160045260245ffd5b634e487b7160e01b5f52601160045260245ffd5b50610e7f565b604051631dc3d17b60e11b8152600490fd5b6313ec158f60e11b8152600490fd5b602435906001600160a01b038216820361015057565b5f5b838110610fe35750505f910152565b8181015183820152602001610fd4565b9060209161100c81518092818552858086019101610fd2565b601f01601f1916010190565b9060048210156108705752565b6080810190811067ffffffffffffffff82111761085c57604052565b610100810190811067ffffffffffffffff82111761085c57604052565b90601f8019910116810190811067ffffffffffffffff82111761085c57604052565b8054821015611095575f5260205f2001905f90565b634e487b7160e01b5f52603260045260245ffd5b90600182811c921680156110d7575b60208310146110c357565b634e487b7160e01b5f52602260045260245ffd5b91607f16916110b8565b9060405191825f8254926110f4846110a9565b9081845260019485811690815f1461115f575060011461111f575b505061111d9250038361105e565b565b909391505f52602090815f20935f915b81831061114757505061111d93508201015f8061110f565b8554888401850152948501948794509183019161112f565b91505061111d94506020925060ff191682840152151560051b8201015f8061110f565b90600481101561087057815460ff60a01b191660a09190911b60ff60a01b16179055565b60048210156108705752565b5f9081526020819052604081206001015490949392916001600160a01b03918216156112b85760016020528160408720911686526020526040852060e0604051926111fc84611041565b82548452600183015460208501526002830154936040810190828616825261122e60ff606083019760a01c16876111a6565b826003860154166080820152600485015460a082015260ff60066005870154968760c0850152015416151593849101525116159081156112be575b506112b85780151590816112ae575b506112a95751600481101561129557611292939450611549565b90565b634e487b7160e01b85526021600452602485fd5b505050565b905042115f611278565b50505050565b90505f611269565b905f91825260016020526040822060018060a01b0380921683526020526040822060e0604051926112f684611041565b82548452600183015460208501526002830154936040810190828616825261132860ff606083019760a01c16876111a6565b826003860154166080820152600485015460a082015260ff60066005870154968760c0850152015416151593849101525116159081156113b5575b506113ad5780151590816113a3575b5061139d5751906004821015611389575090600190565b634e487b7160e01b81526021600452602490fd5b50600291565b905042115f611372565b506002929050565b90505f611363565b5f198114610f815760010190565b905f91825260206002815260408320604051808284829454938481520190875284872092875b8682821061144e575050506114089250038261105e565b835b815181101561144757600581901b82018301516001600160a01b0385811691161461143d57611438906113bd565b61140a565b5050505050600190565b5050505090565b85546001600160a01b03168452600195860195879550930192016113f1565b905f91825260016020526040822060018060a01b0380921683526020526040822060e06040519261149d84611041565b8254845260018301546020850152600283015493604081019082861682526114cf60ff606083019760a01c16876111a6565b826003860154166080820152600485015460a082015260ff60066005870154968760c085015201541615159384910152511615908115611541575b5061153c578015159081611532575b5061152e575190600482101561138957501590565b5090565b905042115f611519565b505090565b90505f61150a565b91600490818410156115b45783156116f5576003841461163f576001938481146115c75760021461157c57505050505f90565b60068110156115b457600214611593575050505f90565b60078210156115a157501490565b602190634e487b7160e01b5f525260245ffd5b602182634e487b7160e01b5f525260245ffd5b5060068110156115b45780156116225783811461160157600281149081156115f6575b50611593575050505f90565b60039150145f6115ea565b50600782939210156115a15750811591821561161c57505090565b14919050565b50600782939210156115a157506005821491821561161c57505090565b9091925060068110156115b45780156116b0575f6001821480156116a6575b611694576115b4576003146116735750505f90565b60078210156115a157506001811490811561168c575090565b600691501490565b505060078210156115a1575060011490565b506002821461165e565b5090600781101591826115a15781159283156116e8575b83156116d4575b50505090565b909192506115a157506001145f80806116ce565b506005821492505f6116c7565b5050505060019056fea26469706673582212205b88c2767265a647db49a74977d23aa72f8d77bc0cc68a71c1c22beb7cbb6f3564736f6c63430008140033","opcodes":"PUSH1 0x80 DUP1 PUSH1 0x40 MSTORE CALLVALUE PUSH2 0x1A JUMPI PUSH0 PUSH1 0x3 SSTORE PUSH2 0x1734 SWAP1 DUP2 PUSH2 0x1F DUP3 CODECOPY RETURN JUMPDEST PUSH0 DUP1 REVERT INVALID PUSH1 0x80 DUP1 PUSH1 0x40 MSTORE PUSH1 0x4 CALLDATASIZE LT ISZERO PUSH2 0x12 JUMPI PUSH0 DUP1 REVERT JUMPDEST PUSH0 CALLDATALOAD PUSH1 0xE0 SHR SWAP1 DUP2 PUSH4 0x10548797 EQ PUSH2 0xDE6 JUMPI POP DUP1 PUSH4 0x22B3CD4E EQ PUSH2 0xD22 JUMPI DUP1 PUSH4 0x263A77EF EQ PUSH2 0xCE7 JUMPI DUP1 PUSH4 0x28073C7C EQ PUSH2 0xBB5 JUMPI DUP1 PUSH4 0x610070F0 EQ PUSH2 0x96E JUMPI DUP1 PUSH4 0x6427ACCA EQ PUSH2 0x474 JUMPI DUP1 PUSH4 0x7622F042 EQ PUSH2 0x424 JUMPI DUP1 PUSH4 0x877C5E2C EQ PUSH2 0x2F5 JUMPI DUP1 PUSH4 0x93F36BD8 EQ PUSH2 0x2C3 JUMPI DUP1 PUSH4 0xACD7FACD EQ PUSH2 0x278 JUMPI DUP1 PUSH4 0xBA51B14E EQ PUSH2 0x206 JUMPI DUP1 PUSH4 0xC1F8218A EQ PUSH2 0x154 JUMPI PUSH4 0xF078E5DB EQ PUSH2 0xAB JUMPI PUSH0 DUP1 REVERT JUMPDEST CALLVALUE PUSH2 0x150 JUMPI PUSH1 0x40 CALLDATASIZE PUSH1 0x3 NOT ADD SLT PUSH2 0x150 JUMPI PUSH2 0x100 PUSH2 0xC7 PUSH2 0xFBC JUMP JUMPDEST PUSH1 0x4 CALLDATALOAD PUSH0 MSTORE PUSH1 0x1 PUSH1 0x20 MSTORE PUSH1 0x40 PUSH0 KECCAK256 PUSH1 0x1 DUP1 PUSH1 0xA0 SHL SUB DUP1 SWAP3 AND PUSH0 MSTORE PUSH1 0x20 MSTORE PUSH1 0x40 PUSH0 KECCAK256 SWAP1 DUP2 SLOAD SWAP2 PUSH1 0x1 DUP2 ADD SLOAD SWAP2 PUSH1 0x2 DUP3 ADD SLOAD PUSH2 0x138 DUP3 PUSH1 0x3 DUP6 ADD SLOAD AND SWAP2 PUSH1 0x4 DUP6 ADD SLOAD SWAP4 PUSH1 0xFF PUSH1 0x6 PUSH1 0x5 DUP9 ADD SLOAD SWAP8 ADD SLOAD AND SWAP7 PUSH1 0x40 MLOAD SWAP9 DUP10 MSTORE PUSH1 0x20 DUP10 ADD MSTORE DUP2 AND PUSH1 0x40 DUP9 ADD MSTORE PUSH1 0xFF PUSH1 0x60 DUP9 ADD SWAP2 PUSH1 0xA0 SHR AND PUSH2 0x1018 JUMP JUMPDEST PUSH1 0x80 DUP6 ADD MSTORE PUSH1 0xA0 DUP5 ADD MSTORE PUSH1 0xC0 DUP4 ADD MSTORE ISZERO ISZERO PUSH1 0xE0 DUP3 ADD MSTORE RETURN JUMPDEST PUSH0 DUP1 REVERT JUMPDEST CALLVALUE PUSH2 0x150 JUMPI PUSH1 0x20 DUP1 PUSH1 0x3 NOT CALLDATASIZE ADD SLT PUSH2 0x150 JUMPI PUSH1 0x4 CALLDATALOAD PUSH0 MSTORE PUSH1 0x2 DUP2 MSTORE PUSH1 0x40 PUSH0 KECCAK256 PUSH1 0x40 MLOAD SWAP1 DUP2 DUP4 DUP3 SLOAD SWAP2 DUP3 DUP2 MSTORE ADD SWAP1 DUP2 SWAP3 PUSH0 MSTORE DUP5 PUSH0 KECCAK256 SWAP1 PUSH0 JUMPDEST DUP7 DUP3 DUP3 LT PUSH2 0x1E9 JUMPI DUP7 DUP7 PUSH2 0x1A1 DUP3 DUP9 SUB DUP4 PUSH2 0x105E JUMP JUMPDEST PUSH1 0x40 MLOAD SWAP3 DUP4 SWAP3 DUP2 DUP5 ADD SWAP1 DUP3 DUP6 MSTORE MLOAD DUP1 SWAP2 MSTORE PUSH1 0x40 DUP5 ADD SWAP3 SWAP2 PUSH0 JUMPDEST DUP3 DUP2 LT PUSH2 0x1C9 JUMPI POP POP POP POP SUB SWAP1 RETURN JUMPDEST DUP4 MLOAD PUSH1 0x1 PUSH1 0x1 PUSH1 0xA0 SHL SUB AND DUP6 MSTORE DUP7 SWAP6 POP SWAP4 DUP2 ADD SWAP4 SWAP3 DUP2 ADD SWAP3 PUSH1 0x1 ADD PUSH2 0x1BA JUMP JUMPDEST DUP4 SLOAD PUSH1 0x1 PUSH1 0x1 PUSH1 0xA0 SHL SUB AND DUP6 MSTORE SWAP1 SWAP4 ADD SWAP3 PUSH1 0x1 SWAP3 DUP4 ADD SWAP3 ADD PUSH2 0x18B JUMP JUMPDEST CALLVALUE PUSH2 0x150 JUMPI PUSH1 0x20 CALLDATASIZE PUSH1 0x3 NOT ADD SLT PUSH2 0x150 JUMPI PUSH1 0x4 CALLDATALOAD PUSH0 MSTORE PUSH0 PUSH1 0x20 MSTORE PUSH2 0x264 PUSH1 0x40 PUSH0 KECCAK256 PUSH2 0x230 DUP2 PUSH2 0x10E1 JUMP JUMPDEST SWAP1 PUSH1 0x1 DUP1 PUSH1 0xA0 SHL SUB PUSH1 0x1 DUP3 ADD SLOAD AND SWAP1 PUSH4 0xFFFFFFFF PUSH1 0x3 PUSH1 0x2 DUP4 ADD SLOAD SWAP3 ADD SLOAD AND SWAP1 PUSH1 0x40 MLOAD SWAP5 DUP6 SWAP5 PUSH1 0x80 DUP7 MSTORE PUSH1 0x80 DUP7 ADD SWAP1 PUSH2 0xFF3 JUMP JUMPDEST SWAP3 PUSH1 0x20 DUP6 ADD MSTORE PUSH1 0x40 DUP5 ADD MSTORE PUSH1 0x60 DUP4 ADD MSTORE SUB SWAP1 RETURN JUMPDEST CALLVALUE PUSH2 0x150 JUMPI PUSH1 0x80 CALLDATASIZE PUSH1 0x3 NOT ADD SLT PUSH2 0x150 JUMPI PUSH2 0x291 PUSH2 0xFBC JUMP JUMPDEST PUSH1 0x44 CALLDATALOAD SWAP1 PUSH1 0x7 DUP3 LT ISZERO PUSH2 0x150 JUMPI PUSH1 0x64 CALLDATALOAD PUSH1 0x6 DUP2 LT ISZERO PUSH2 0x150 JUMPI PUSH1 0x20 SWAP3 PUSH2 0x2B9 SWAP3 PUSH1 0x4 CALLDATALOAD PUSH2 0x11B2 JUMP JUMPDEST PUSH1 0x40 MLOAD SWAP1 ISZERO ISZERO DUP2 MSTORE RETURN JUMPDEST CALLVALUE PUSH2 0x150 JUMPI PUSH1 0x20 CALLDATASIZE PUSH1 0x3 NOT ADD SLT PUSH2 0x150 JUMPI PUSH1 0x4 CALLDATALOAD PUSH0 MSTORE PUSH0 PUSH1 0x20 MSTORE PUSH1 0x20 PUSH4 0xFFFFFFFF PUSH1 0x3 PUSH1 0x40 PUSH0 KECCAK256 ADD SLOAD AND PUSH1 0x40 MLOAD SWAP1 DUP2 MSTORE RETURN JUMPDEST CALLVALUE PUSH2 0x150 JUMPI PUSH1 0x60 CALLDATASIZE PUSH1 0x3 NOT ADD SLT PUSH2 0x150 JUMPI PUSH1 0x4 CALLDATALOAD PUSH2 0x311 PUSH2 0xFBC JUMP JUMPDEST SWAP1 PUSH1 0x44 CALLDATALOAD PUSH1 0x4 DUP2 LT ISZERO PUSH2 0x150 JUMPI PUSH0 DUP3 DUP2 MSTORE PUSH1 0x20 DUP2 SWAP1 MSTORE PUSH1 0x40 SWAP1 KECCAK256 PUSH1 0x1 ADD SLOAD PUSH1 0x1 PUSH1 0x1 PUSH1 0xA0 SHL SUB SWAP2 SWAP1 DUP3 AND ISZERO PUSH2 0x412 JUMPI PUSH2 0x34A CALLER DUP5 PUSH2 0x146D JUMP JUMPDEST ISZERO PUSH2 0x400 JUMPI DUP3 PUSH0 MSTORE PUSH1 0x1 PUSH1 0x20 MSTORE DUP2 PUSH1 0x40 PUSH0 KECCAK256 SWAP5 AND SWAP4 DUP5 PUSH0 MSTORE PUSH1 0x20 MSTORE PUSH1 0x40 PUSH0 KECCAK256 PUSH1 0x2 DUP2 ADD SWAP1 DUP2 SLOAD SWAP4 DUP5 AND ISZERO PUSH2 0x3EE JUMPI PUSH1 0x6 ADD SLOAD PUSH1 0xFF AND PUSH2 0x3DC JUMPI PUSH2 0x3D3 DUP3 PUSH2 0x3C9 PUSH32 0x29EF24661D99CBC3B2C8EC400AADB4BB814214D294AFC41FC7791ACB3ACED679 SWAP6 PUSH2 0x3BA PUSH1 0x60 SWAP7 PUSH1 0xFF SWAP7 PUSH2 0x1182 JUMP JUMPDEST PUSH1 0x40 MLOAD SWAP5 DUP6 SWAP2 PUSH1 0xA0 SHR AND PUSH2 0x1018 JUMP JUMPDEST PUSH1 0x20 DUP4 ADD SWAP1 PUSH2 0x1018 JUMP JUMPDEST TIMESTAMP PUSH1 0x40 DUP3 ADD MSTORE LOG3 STOP JUMPDEST PUSH1 0x40 MLOAD PUSH4 0xBD583CF5 PUSH1 0xE0 SHL DUP2 MSTORE PUSH1 0x4 SWAP1 REVERT JUMPDEST PUSH1 0x40 MLOAD PUSH4 0x192C78B7 PUSH1 0xE0 SHL DUP2 MSTORE PUSH1 0x4 SWAP1 REVERT JUMPDEST PUSH1 0x40 MLOAD PUSH4 0x1E5D7481 PUSH1 0xE3 SHL DUP2 MSTORE PUSH1 0x4 SWAP1 REVERT JUMPDEST PUSH1 0x40 MLOAD PUSH4 0x13EC158F PUSH1 0xE1 SHL DUP2 MSTORE PUSH1 0x4 SWAP1 REVERT JUMPDEST CALLVALUE PUSH2 0x150 JUMPI PUSH1 0x40 CALLDATASIZE PUSH1 0x3 NOT ADD SLT PUSH2 0x150 JUMPI PUSH1 0x24 CALLDATALOAD PUSH1 0x4 CALLDATALOAD PUSH0 MSTORE PUSH1 0x2 PUSH1 0x20 MSTORE PUSH1 0x40 PUSH0 KECCAK256 DUP1 SLOAD DUP3 LT ISZERO PUSH2 0x150 JUMPI PUSH1 0x20 SWAP2 PUSH2 0x45B SWAP2 PUSH2 0x1080 JUMP JUMPDEST SWAP1 SLOAD PUSH1 0x40 MLOAD PUSH1 0x3 SWAP3 SWAP1 SWAP3 SHL SHR PUSH1 0x1 PUSH1 0x1 PUSH1 0xA0 SHL SUB AND DUP2 MSTORE RETURN JUMPDEST CALLVALUE PUSH2 0x150 JUMPI PUSH1 0x20 CALLDATASIZE PUSH1 0x3 NOT ADD SLT PUSH2 0x150 JUMPI PUSH1 0x4 CALLDATALOAD PUSH8 0xFFFFFFFFFFFFFFFF DUP1 DUP3 GT PUSH2 0x150 JUMPI CALLDATASIZE PUSH1 0x23 DUP4 ADD SLT ISZERO PUSH2 0x150 JUMPI DUP2 PUSH1 0x4 ADD CALLDATALOAD SWAP2 DUP2 DUP4 GT PUSH2 0x85C JUMPI PUSH1 0x40 MLOAD SWAP3 PUSH2 0x4C8 PUSH1 0x1F DUP3 ADD PUSH1 0x1F NOT AND PUSH1 0x20 ADD DUP6 PUSH2 0x105E JUMP JUMPDEST DUP1 DUP5 MSTORE PUSH1 0x20 DUP5 ADD SWAP2 CALLDATASIZE PUSH1 0x24 DUP4 DUP4 ADD ADD GT PUSH2 0x150 JUMPI DUP2 PUSH0 SWAP3 PUSH1 0x24 PUSH1 0x20 SWAP4 ADD DUP6 CALLDATACOPY DUP6 ADD ADD MSTORE DUP3 MLOAD DUP1 ISZERO SWAP1 DUP2 ISZERO PUSH2 0x963 JUMPI JUMPDEST POP PUSH2 0x951 JUMPI PUSH2 0x51B SWAP1 PUSH2 0x53A PUSH1 0x54 PUSH1 0x40 MLOAD DUP1 SWAP4 PUSH1 0x20 DUP3 ADD SWAP6 DUP7 SWAP2 DUP10 MLOAD SWAP3 DUP4 SWAP2 PUSH2 0xFD2 JUMP JUMPDEST DUP2 ADD CALLER PUSH1 0x60 SHL PUSH1 0x20 DUP3 ADD MSTORE TIMESTAMP PUSH1 0x34 DUP3 ADD MSTORE SUB PUSH1 0x34 DUP2 ADD DUP5 MSTORE ADD DUP3 PUSH2 0x105E JUMP JUMPDEST MLOAD SWAP1 KECCAK256 SWAP1 DUP2 PUSH0 MSTORE PUSH0 PUSH1 0x20 MSTORE PUSH1 0x1 DUP1 PUSH1 0xA0 SHL SUB PUSH1 0x1 PUSH1 0x40 PUSH0 KECCAK256 ADD SLOAD AND PUSH2 0x93F JUMPI PUSH1 0x40 MLOAD PUSH2 0x565 DUP2 PUSH2 0x1025 JUMP JUMPDEST DUP4 DUP2 MSTORE CALLER PUSH1 0x20 DUP3 ADD MSTORE TIMESTAMP PUSH1 0x40 DUP3 ADD MSTORE PUSH1 0x1 PUSH1 0x60 DUP3 ADD MSTORE DUP3 PUSH0 MSTORE PUSH0 PUSH1 0x20 MSTORE PUSH1 0x40 PUSH0 KECCAK256 SWAP2 DUP2 MLOAD DUP1 MLOAD SWAP2 DUP3 GT PUSH2 0x85C JUMPI PUSH2 0x59C DUP5 SLOAD PUSH2 0x10A9 JUMP JUMPDEST PUSH1 0x1F DUP2 GT PUSH2 0x8FE JUMPI JUMPDEST POP PUSH1 0x20 SWAP1 PUSH1 0x1F DUP4 GT PUSH1 0x1 EQ PUSH2 0x88F JUMPI SWAP3 DUP3 PUSH4 0xFFFFFFFF SWAP4 PUSH1 0x60 SWAP4 PUSH1 0x3 SWAP7 PUSH0 SWAP3 PUSH2 0x884 JUMPI JUMPDEST POP POP DUP2 PUSH1 0x1 SHL SWAP2 PUSH0 NOT SWAP1 DUP8 SHL SHR NOT AND OR DUP6 SSTORE JUMPDEST PUSH1 0x1 DUP6 ADD PUSH1 0x1 DUP1 PUSH1 0xA0 SHL SUB PUSH1 0x20 DUP4 ADD MLOAD AND PUSH1 0x1 PUSH1 0x1 PUSH1 0x60 SHL SUB PUSH1 0xA0 SHL DUP3 SLOAD AND OR SWAP1 SSTORE PUSH1 0x40 DUP2 ADD MLOAD PUSH1 0x2 DUP7 ADD SSTORE ADD MLOAD AND PUSH4 0xFFFFFFFF NOT DUP3 DUP5 ADD SLOAD AND OR SWAP2 ADD SSTORE PUSH1 0x3 SLOAD PUSH1 0x40 MLOAD PUSH1 0x20 DUP2 ADD SWAP2 DUP3 MSTORE TIMESTAMP PUSH1 0x40 DUP3 ADD MSTORE CALLER PUSH1 0x60 SHL PUSH1 0x60 DUP3 ADD MSTORE PUSH1 0x54 DUP2 MSTORE PUSH2 0x643 DUP2 PUSH2 0x1025 JUMP JUMPDEST MLOAD SWAP1 KECCAK256 SWAP2 PUSH1 0x40 MLOAD PUSH2 0x653 DUP2 PUSH2 0x1041 JUMP JUMPDEST DUP4 DUP2 MSTORE DUP3 PUSH1 0x20 DUP3 ADD MSTORE CALLER PUSH1 0x40 DUP3 ADD MSTORE PUSH0 PUSH1 0x60 DUP3 ADD MSTORE CALLER PUSH1 0x80 DUP3 ADD MSTORE TIMESTAMP PUSH1 0xA0 DUP3 ADD MSTORE PUSH0 PUSH1 0xC0 DUP3 ADD MSTORE PUSH0 PUSH1 0xE0 DUP3 ADD MSTORE DUP3 PUSH0 MSTORE PUSH1 0x1 PUSH1 0x20 MSTORE PUSH1 0x40 PUSH0 KECCAK256 CALLER PUSH0 MSTORE PUSH1 0x20 MSTORE PUSH1 0x40 PUSH0 KECCAK256 DUP2 MLOAD DUP2 SSTORE PUSH1 0x20 DUP3 ADD MLOAD PUSH1 0x1 DUP3 ADD SSTORE PUSH1 0x1 DUP1 PUSH1 0xA0 SHL SUB PUSH1 0x40 DUP4 ADD MLOAD AND PUSH1 0x1 PUSH1 0x1 PUSH1 0x60 SHL SUB PUSH1 0xA0 SHL PUSH1 0x2 DUP4 ADD SLOAD AND OR PUSH1 0x2 DUP3 ADD SSTORE PUSH1 0x60 DUP3 ADD MLOAD SWAP2 PUSH1 0x4 DUP4 LT ISZERO PUSH2 0x870 JUMPI PUSH1 0xE0 PUSH1 0x6 SWAP2 PUSH2 0x6EC PUSH2 0x739 SWAP6 PUSH1 0x2 DUP7 ADD PUSH2 0x1182 JUMP JUMPDEST PUSH1 0x3 DUP5 ADD PUSH1 0x1 DUP1 PUSH1 0xA0 SHL SUB PUSH1 0x80 DUP4 ADD MLOAD AND PUSH1 0x1 PUSH1 0x1 PUSH1 0x60 SHL SUB PUSH1 0xA0 SHL DUP3 SLOAD AND OR SWAP1 SSTORE PUSH1 0xA0 DUP2 ADD MLOAD PUSH1 0x4 DUP6 ADD SSTORE PUSH1 0xC0 DUP2 ADD MLOAD PUSH1 0x5 DUP6 ADD SSTORE ADD MLOAD ISZERO ISZERO SWAP2 ADD SWAP1 PUSH1 0xFF DUP1 NOT DUP4 SLOAD AND SWAP2 ISZERO ISZERO AND OR SWAP1 SSTORE JUMP JUMPDEST PUSH2 0x743 CALLER DUP4 PUSH2 0x13CB JUMP JUMPDEST ISZERO PUSH2 0x7DE JUMPI JUMPDEST PUSH1 0x20 SWAP3 PUSH2 0x757 PUSH1 0x3 SLOAD PUSH2 0x13BD JUMP JUMPDEST PUSH1 0x3 SSTORE DUP3 PUSH1 0x40 MLOAD SWAP2 PUSH0 DUP4 MSTORE CALLER DUP7 DUP5 ADD MSTORE TIMESTAMP PUSH1 0x40 DUP5 ADD MSTORE PUSH32 0x5ACBD21A5CF96723712686ED23534969240DF6498893B2A15B0FB3A75C112113 PUSH1 0x60 CALLER SWAP5 LOG4 DUP2 PUSH32 0x3E593B27B72277702561F73A85195C02DD25B324183253D096A6E84B53D7CE74 PUSH2 0x7CA PUSH1 0x40 MLOAD SWAP4 PUSH1 0x40 DUP6 MSTORE PUSH1 0x40 DUP6 ADD SWAP1 PUSH2 0xFF3 JUMP JUMPDEST SWAP3 TIMESTAMP DUP7 DUP3 ADD MSTORE DUP1 CALLER SWAP5 SUB SWAP1 LOG3 PUSH1 0x40 MLOAD SWAP1 DUP2 MSTORE RETURN JUMPDEST DUP2 PUSH0 MSTORE PUSH1 0x2 PUSH1 0x20 MSTORE PUSH1 0x40 PUSH0 KECCAK256 SWAP3 DUP4 SLOAD PUSH1 0x1 PUSH1 0x40 SHL DUP2 LT ISZERO PUSH2 0x85C JUMPI PUSH2 0x80E DUP2 PUSH1 0x20 SWAP7 PUSH1 0x1 PUSH2 0x82C SWAP5 ADD DUP2 SSTORE PUSH2 0x1080 JUMP JUMPDEST DUP2 SLOAD PUSH1 0x1 PUSH1 0x1 PUSH1 0xA0 SHL SUB PUSH1 0x3 SWAP3 SWAP1 SWAP3 SHL SWAP2 DUP3 SHL NOT AND CALLER SWAP1 SWAP2 SHL OR SWAP1 SSTORE JUMP JUMPDEST DUP3 PUSH0 MSTORE PUSH1 0x2 DUP5 MSTORE PUSH4 0xFFFFFFFF PUSH1 0x40 PUSH0 KECCAK256 SLOAD AND PUSH0 DUP6 MSTORE PUSH1 0x3 PUSH1 0x40 PUSH0 KECCAK256 ADD SWAP1 PUSH4 0xFFFFFFFF NOT DUP3 SLOAD AND OR SWAP1 SSTORE SWAP3 POP PUSH2 0x749 JUMP JUMPDEST PUSH4 0x4E487B71 PUSH1 0xE0 SHL PUSH0 MSTORE PUSH1 0x41 PUSH1 0x4 MSTORE PUSH1 0x24 PUSH0 REVERT JUMPDEST PUSH4 0x4E487B71 PUSH1 0xE0 SHL PUSH0 MSTORE PUSH1 0x21 PUSH1 0x4 MSTORE PUSH1 0x24 PUSH0 REVERT JUMPDEST ADD MLOAD SWAP1 POP DUP10 DUP1 PUSH2 0x5C9 JUMP JUMPDEST SWAP1 DUP5 PUSH0 MSTORE PUSH1 0x20 PUSH0 KECCAK256 SWAP2 PUSH0 JUMPDEST PUSH1 0x1F NOT DUP6 AND DUP2 LT PUSH2 0x8E6 JUMPI POP DUP4 PUSH1 0x60 SWAP4 PUSH1 0x3 SWAP7 SWAP4 PUSH1 0x1 SWAP4 PUSH4 0xFFFFFFFF SWAP8 PUSH1 0x1F NOT DUP2 AND LT PUSH2 0x8CF JUMPI JUMPDEST POP POP POP DUP2 SHL ADD DUP6 SSTORE PUSH2 0x5DC JUMP JUMPDEST ADD MLOAD PUSH0 NOT DUP4 DUP10 SHL PUSH1 0xF8 AND SHR NOT AND SWAP1 SSTORE DUP10 DUP1 DUP1 PUSH2 0x8C2 JUMP JUMPDEST SWAP2 SWAP3 PUSH1 0x20 PUSH1 0x1 DUP2 SWAP3 DUP7 DUP6 ADD MLOAD DUP2 SSTORE ADD SWAP5 ADD SWAP3 ADD PUSH2 0x89A JUMP JUMPDEST DUP5 PUSH0 MSTORE PUSH1 0x20 PUSH0 KECCAK256 PUSH1 0x1F DUP5 ADD PUSH1 0x5 SHR DUP2 ADD PUSH1 0x20 DUP6 LT PUSH2 0x938 JUMPI JUMPDEST PUSH1 0x1F DUP4 ADD PUSH1 0x5 SHR DUP3 ADD DUP2 LT PUSH2 0x92D JUMPI POP POP PUSH2 0x5A5 JUMP JUMPDEST PUSH0 DUP2 SSTORE PUSH1 0x1 ADD PUSH2 0x917 JUMP JUMPDEST POP DUP1 PUSH2 0x917 JUMP JUMPDEST PUSH1 0x40 MLOAD PUSH4 0x101E3929 PUSH1 0xE3 SHL DUP2 MSTORE PUSH1 0x4 SWAP1 REVERT JUMPDEST PUSH1 0x40 MLOAD PUSH4 0x2DD83D51 PUSH1 0xE0 SHL DUP2 MSTORE PUSH1 0x4 SWAP1 REVERT JUMPDEST PUSH1 0x40 SWAP2 POP GT DUP5 PUSH2 0x4F7 JUMP JUMPDEST CALLVALUE PUSH2 0x150 JUMPI PUSH1 0x80 CALLDATASIZE PUSH1 0x3 NOT ADD SLT PUSH2 0x150 JUMPI PUSH2 0x987 PUSH2 0xFBC JUMP JUMPDEST PUSH1 0x4 PUSH1 0x44 CALLDATALOAD LT ISZERO PUSH2 0x150 JUMPI PUSH1 0x4 CALLDATALOAD PUSH0 SWAP1 DUP2 MSTORE PUSH1 0x20 DUP2 SWAP1 MSTORE PUSH1 0x40 SWAP1 KECCAK256 PUSH1 0x1 ADD SLOAD PUSH1 0x1 PUSH1 0x1 PUSH1 0xA0 SHL SUB AND ISZERO PUSH2 0x412 JUMPI PUSH2 0x9C0 CALLER PUSH1 0x4 CALLDATALOAD PUSH2 0x146D JUMP JUMPDEST ISZERO PUSH2 0x400 JUMPI PUSH1 0x3 SLOAD PUSH1 0x40 MLOAD PUSH1 0x20 DUP2 ADD SWAP2 DUP3 MSTORE TIMESTAMP PUSH1 0x40 DUP3 ADD MSTORE CALLER PUSH1 0x60 SHL PUSH1 0x60 DUP3 ADD MSTORE PUSH1 0x54 DUP2 MSTORE PUSH2 0x9EE DUP2 PUSH2 0x1025 JUMP JUMPDEST MLOAD SWAP1 KECCAK256 PUSH1 0x40 MLOAD PUSH2 0x9FD DUP2 PUSH2 0x1041 JUMP JUMPDEST DUP2 DUP2 MSTORE PUSH1 0x4 CALLDATALOAD PUSH1 0x20 DUP3 ADD MSTORE PUSH1 0x1 PUSH1 0x1 PUSH1 0xA0 SHL SUB DUP4 AND PUSH1 0x40 DUP3 ADD MSTORE PUSH1 0x60 DUP2 ADD PUSH2 0xA27 PUSH1 0x44 CALLDATALOAD DUP3 PUSH2 0x11A6 JUMP JUMPDEST CALLER PUSH1 0x80 DUP4 ADD MSTORE TIMESTAMP PUSH1 0xA0 DUP4 ADD MSTORE PUSH1 0x64 CALLDATALOAD PUSH1 0xC0 DUP4 ADD MSTORE PUSH0 PUSH1 0xE0 DUP4 ADD MSTORE PUSH1 0x4 CALLDATALOAD PUSH0 MSTORE PUSH1 0x1 PUSH1 0x20 MSTORE PUSH1 0x40 PUSH0 KECCAK256 PUSH1 0x1 DUP1 PUSH1 0xA0 SHL SUB DUP6 AND PUSH0 MSTORE PUSH1 0x20 MSTORE PUSH1 0x40 PUSH0 KECCAK256 SWAP1 DUP3 MLOAD DUP3 SSTORE PUSH1 0x20 DUP4 ADD MLOAD PUSH1 0x1 DUP4 ADD SSTORE PUSH1 0x1 DUP1 PUSH1 0xA0 SHL SUB PUSH1 0x40 DUP5 ADD MLOAD AND PUSH1 0x1 PUSH1 0x1 PUSH1 0x60 SHL SUB PUSH1 0xA0 SHL PUSH1 0x2 DUP5 ADD SLOAD AND OR PUSH1 0x2 DUP4 ADD SSTORE MLOAD SWAP2 PUSH1 0x4 DUP4 LT ISZERO PUSH2 0x870 JUMPI PUSH1 0xE0 PUSH1 0x6 SWAP2 PUSH2 0x6EC PUSH2 0xAB4 SWAP6 PUSH1 0x2 DUP7 ADD PUSH2 0x1182 JUMP JUMPDEST PUSH2 0xAC0 DUP3 PUSH1 0x4 CALLDATALOAD PUSH2 0x13CB JUMP JUMPDEST ISZERO PUSH2 0xB30 JUMPI JUMPDEST PUSH1 0x20 SWAP2 PUSH2 0xAD4 PUSH1 0x3 SLOAD PUSH2 0x13BD JUMP JUMPDEST PUSH1 0x3 SSTORE PUSH1 0x40 MLOAD SWAP1 PUSH2 0xAE7 DUP3 PUSH1 0x44 CALLDATALOAD PUSH2 0x1018 JUMP JUMPDEST CALLER DUP3 DUP6 ADD MSTORE TIMESTAMP PUSH1 0x40 DUP4 ADD MSTORE PUSH1 0x1 PUSH1 0x1 PUSH1 0xA0 SHL SUB AND SWAP1 PUSH1 0x4 CALLDATALOAD SWAP1 DUP4 SWAP1 PUSH32 0x5ACBD21A5CF96723712686ED23534969240DF6498893B2A15B0FB3A75C112113 SWAP1 PUSH1 0x60 SWAP1 LOG4 PUSH1 0x40 MLOAD SWAP1 DUP2 MSTORE RETURN JUMPDEST PUSH1 0x4 CALLDATALOAD PUSH0 MSTORE PUSH1 0x2 PUSH1 0x20 MSTORE PUSH1 0x40 PUSH0 KECCAK256 SWAP2 DUP3 SLOAD SWAP3 PUSH1 0x1 PUSH1 0x40 SHL DUP5 LT ISZERO PUSH2 0x85C JUMPI DUP2 PUSH2 0xB64 DUP6 PUSH2 0xB83 SWAP4 PUSH1 0x1 PUSH1 0x20 SWAP9 ADD DUP2 SSTORE PUSH2 0x1080 JUMP JUMPDEST SWAP1 SWAP2 SWAP1 DUP3 SLOAD SWAP1 PUSH1 0x3 SHL SWAP2 PUSH1 0x1 DUP1 PUSH1 0xA0 SHL SUB DUP1 SWAP2 AND DUP4 SHL SWAP3 SHL NOT AND OR SWAP1 SSTORE JUMP JUMPDEST PUSH1 0x4 CALLDATALOAD PUSH0 MSTORE PUSH1 0x2 DUP4 MSTORE PUSH4 0xFFFFFFFF PUSH1 0x40 PUSH0 KECCAK256 SLOAD AND PUSH0 DUP5 MSTORE PUSH1 0x3 PUSH1 0x40 PUSH0 KECCAK256 ADD SWAP1 PUSH4 0xFFFFFFFF NOT DUP3 SLOAD AND OR SWAP1 SSTORE SWAP2 POP PUSH2 0xAC6 JUMP JUMPDEST CALLVALUE PUSH2 0x150 JUMPI PUSH1 0x40 CALLDATASIZE PUSH1 0x3 NOT ADD SLT PUSH2 0x150 JUMPI PUSH2 0x100 PUSH2 0xBD1 PUSH2 0xFBC JUMP JUMPDEST PUSH0 PUSH1 0xE0 PUSH1 0x40 MLOAD PUSH2 0xBE0 DUP2 PUSH2 0x1041 JUMP JUMPDEST DUP3 DUP2 MSTORE DUP3 PUSH1 0x20 DUP3 ADD MSTORE DUP3 PUSH1 0x40 DUP3 ADD MSTORE DUP3 PUSH1 0x60 DUP3 ADD MSTORE DUP3 PUSH1 0x80 DUP3 ADD MSTORE DUP3 PUSH1 0xA0 DUP3 ADD MSTORE DUP3 PUSH1 0xC0 DUP3 ADD MSTORE ADD MSTORE PUSH1 0x4 CALLDATALOAD PUSH0 MSTORE PUSH1 0x1 PUSH1 0x20 MSTORE PUSH1 0x40 PUSH0 KECCAK256 PUSH1 0x1 DUP1 PUSH1 0xA0 SHL SUB DUP1 SWAP3 AND PUSH0 MSTORE PUSH1 0x20 MSTORE PUSH1 0x40 PUSH0 KECCAK256 SWAP1 PUSH1 0x40 MLOAD SWAP2 PUSH2 0xC38 DUP4 PUSH2 0x1041 JUMP JUMPDEST DUP1 SLOAD DUP4 MSTORE PUSH1 0x1 DUP2 ADD SLOAD SWAP2 PUSH1 0x20 DUP5 ADD SWAP3 DUP4 MSTORE PUSH1 0x2 DUP3 ADD SLOAD SWAP1 PUSH1 0x40 DUP6 ADD SWAP2 DUP2 DUP2 AND DUP4 MSTORE PUSH2 0xC6D PUSH1 0xFF PUSH1 0x60 DUP9 ADD SWAP3 PUSH1 0xA0 SHR AND DUP3 PUSH2 0x11A6 JUMP JUMPDEST PUSH2 0xCCA DUP3 PUSH1 0x3 DUP7 ADD SLOAD AND SWAP2 PUSH1 0x80 DUP9 ADD SWAP3 DUP4 MSTORE DUP4 PUSH1 0x4 DUP8 ADD SLOAD SWAP6 PUSH1 0xA0 DUP11 ADD SWAP7 DUP8 MSTORE PUSH1 0xFF PUSH1 0x6 PUSH1 0x5 DUP11 ADD SLOAD SWAP10 PUSH1 0xC0 DUP14 ADD SWAP11 DUP12 MSTORE ADD SLOAD AND SWAP9 PUSH1 0xE0 DUP12 ADD SWAP10 ISZERO ISZERO DUP11 MSTORE PUSH1 0x40 MLOAD SWAP11 MLOAD DUP12 MSTORE MLOAD PUSH1 0x20 DUP12 ADD MSTORE MLOAD AND PUSH1 0x40 DUP10 ADD MSTORE MLOAD PUSH1 0x60 DUP9 ADD SWAP1 PUSH2 0x1018 JUMP JUMPDEST MLOAD AND PUSH1 0x80 DUP6 ADD MSTORE MLOAD PUSH1 0xA0 DUP5 ADD MSTORE MLOAD PUSH1 0xC0 DUP4 ADD MSTORE MLOAD ISZERO ISZERO PUSH1 0xE0 DUP3 ADD MSTORE RETURN JUMPDEST CALLVALUE PUSH2 0x150 JUMPI PUSH1 0x40 CALLDATASIZE PUSH1 0x3 NOT ADD SLT PUSH2 0x150 JUMPI PUSH1 0x40 PUSH2 0xD0D PUSH2 0xD05 PUSH2 0xFBC JUMP JUMPDEST PUSH1 0x4 CALLDATALOAD PUSH2 0x12C6 JUMP JUMPDEST PUSH2 0xD19 DUP4 MLOAD DUP1 SWAP4 PUSH2 0x1018 JUMP JUMPDEST ISZERO ISZERO PUSH1 0x20 DUP3 ADD MSTORE RETURN JUMPDEST CALLVALUE PUSH2 0x150 JUMPI PUSH1 0x20 DUP1 PUSH1 0x3 NOT CALLDATASIZE ADD SLT PUSH2 0x150 JUMPI PUSH1 0x80 SWAP1 PUSH0 PUSH1 0x60 PUSH1 0x40 MLOAD PUSH2 0xD46 DUP2 PUSH2 0x1025 JUMP JUMPDEST DUP2 DUP2 MSTORE DUP3 DUP5 DUP3 ADD MSTORE DUP3 PUSH1 0x40 DUP3 ADD MSTORE ADD MSTORE PUSH1 0x4 CALLDATALOAD PUSH0 MSTORE PUSH0 DUP2 MSTORE PUSH1 0x40 PUSH0 KECCAK256 PUSH1 0x3 PUSH1 0x40 MLOAD SWAP3 PUSH2 0xD71 DUP5 PUSH2 0x1025 JUMP JUMPDEST PUSH2 0xD7A DUP4 PUSH2 0x10E1 JUMP JUMPDEST DUP5 MSTORE PUSH1 0x1 DUP1 PUSH1 0xA0 SHL SUB SWAP3 DUP4 PUSH1 0x1 DUP3 ADD SLOAD AND SWAP4 DUP3 DUP7 ADD SWAP5 DUP6 MSTORE PUSH2 0xDCD PUSH1 0x2 DUP4 ADD SLOAD SWAP3 PUSH1 0x40 DUP9 ADD SWAP4 DUP5 MSTORE PUSH4 0xFFFFFFFF SWAP6 DUP7 SWAP2 ADD SLOAD AND SWAP4 PUSH1 0x60 DUP9 ADD SWAP5 DUP6 MSTORE PUSH1 0x40 MLOAD SWAP9 DUP10 SWAP9 DUP3 DUP11 MSTORE MLOAD SWAP2 DUP10 ADD MSTORE PUSH1 0xA0 DUP9 ADD SWAP1 PUSH2 0xFF3 JUMP JUMPDEST SWAP5 MLOAD AND PUSH1 0x40 DUP7 ADD MSTORE MLOAD PUSH1 0x60 DUP6 ADD MSTORE MLOAD AND PUSH1 0x80 DUP4 ADD MSTORE SUB SWAP1 RETURN JUMPDEST CALLVALUE PUSH2 0x150 JUMPI PUSH1 0x40 CALLDATASIZE PUSH1 0x3 NOT ADD SLT PUSH2 0x150 JUMPI PUSH1 0x4 CALLDATALOAD SWAP1 PUSH2 0xE03 PUSH2 0xFBC JUMP JUMPDEST DUP3 PUSH0 MSTORE PUSH1 0x20 SWAP3 PUSH0 DUP5 MSTORE PUSH1 0x1 DUP1 PUSH1 0xA0 SHL SUB PUSH1 0x1 SWAP4 DUP2 DUP6 PUSH1 0x40 PUSH0 KECCAK256 ADD SLOAD AND ISZERO PUSH2 0xFAD JUMPI POP PUSH2 0xE2F CALLER DUP4 PUSH2 0x146D JUMP JUMPDEST ISZERO PUSH2 0x400 JUMPI DUP2 PUSH0 MSTORE DUP4 DUP6 MSTORE DUP1 PUSH1 0x40 PUSH0 KECCAK256 SWAP4 AND SWAP3 DUP4 PUSH0 MSTORE DUP6 MSTORE PUSH1 0x40 PUSH0 KECCAK256 DUP2 PUSH1 0x2 DUP3 ADD SLOAD AND ISZERO PUSH2 0x3EE JUMPI CALLER DUP5 EQ PUSH2 0xF9B JUMPI PUSH1 0x6 ADD DUP1 SLOAD PUSH1 0xFF NOT AND DUP6 OR SWAP1 SSTORE PUSH0 DUP3 DUP2 MSTORE PUSH1 0x2 DUP7 MSTORE PUSH1 0x40 DUP2 KECCAK256 SWAP1 DUP6 JUMPDEST PUSH2 0xED8 JUMPI JUMPDEST DUP7 DUP6 DUP6 DUP1 PUSH0 MSTORE PUSH1 0x2 DUP4 MSTORE PUSH4 0xFFFFFFFF PUSH1 0x40 PUSH0 KECCAK256 SLOAD AND PUSH0 DUP5 MSTORE PUSH1 0x3 PUSH1 0x40 PUSH0 KECCAK256 ADD SWAP1 PUSH4 0xFFFFFFFF NOT DUP3 SLOAD AND OR SWAP1 SSTORE PUSH32 0xA3C406139CB7C877D96B790D54AB43BF55058B2D40CEC2DD4C5723300E50515E PUSH1 0x40 MLOAD SWAP4 TIMESTAMP DUP6 MSTORE CALLER SWAP5 LOG4 STOP JUMPDEST DUP2 SLOAD DUP1 DUP3 LT ISZERO PUSH2 0xF95 JUMPI DUP4 SWAP1 DUP7 PUSH2 0xEEF DUP5 DUP7 PUSH2 0x1080 JUMP JUMPDEST SWAP4 SWAP1 SLOAD PUSH1 0x3 SWAP5 DUP6 SHL SHR AND EQ PUSH2 0xF0F JUMPI POP POP PUSH2 0xF09 SWAP1 PUSH2 0x13BD JUMP JUMPDEST DUP6 PUSH2 0xE7A JUMP JUMPDEST SWAP6 SWAP7 POP SWAP4 SWAP5 SWAP2 SWAP3 SWAP2 PUSH0 NOT SWAP2 DUP3 DUP3 ADD SWAP2 DUP3 GT PUSH2 0xF81 JUMPI PUSH2 0xB64 DUP5 PUSH2 0xF35 PUSH2 0xF43 SWAP5 DUP9 PUSH2 0x1080 JUMP JUMPDEST SWAP1 SLOAD SWAP1 DUP10 SHL SHR AND SWAP2 DUP7 PUSH2 0x1080 JUMP JUMPDEST DUP3 SLOAD DUP1 ISZERO PUSH2 0xF6D JUMPI ADD SWAP3 PUSH2 0xF57 DUP5 DUP5 PUSH2 0x1080 JUMP JUMPDEST DUP2 SWAP4 SWAP2 SLOAD SWAP3 SHL SHL NOT AND SWAP1 SSTORE SSTORE DUP2 SWAP1 DUP5 DUP1 DUP1 PUSH2 0xE7F JUMP JUMPDEST PUSH4 0x4E487B71 PUSH1 0xE0 SHL PUSH0 MSTORE PUSH1 0x31 PUSH1 0x4 MSTORE PUSH1 0x24 PUSH0 REVERT JUMPDEST PUSH4 0x4E487B71 PUSH1 0xE0 SHL PUSH0 MSTORE PUSH1 0x11 PUSH1 0x4 MSTORE PUSH1 0x24 PUSH0 REVERT JUMPDEST POP PUSH2 0xE7F JUMP JUMPDEST PUSH1 0x40 MLOAD PUSH4 0x1DC3D17B PUSH1 0xE1 SHL DUP2 MSTORE PUSH1 0x4 SWAP1 REVERT JUMPDEST PUSH4 0x13EC158F PUSH1 0xE1 SHL DUP2 MSTORE PUSH1 0x4 SWAP1 REVERT JUMPDEST PUSH1 0x24 CALLDATALOAD SWAP1 PUSH1 0x1 PUSH1 0x1 PUSH1 0xA0 SHL SUB DUP3 AND DUP3 SUB PUSH2 0x150 JUMPI JUMP JUMPDEST PUSH0 JUMPDEST DUP4 DUP2 LT PUSH2 0xFE3 JUMPI POP POP PUSH0 SWAP2 ADD MSTORE JUMP JUMPDEST DUP2 DUP2 ADD MLOAD DUP4 DUP3 ADD MSTORE PUSH1 0x20 ADD PUSH2 0xFD4 JUMP JUMPDEST SWAP1 PUSH1 0x20 SWAP2 PUSH2 0x100C DUP2 MLOAD DUP1 SWAP3 DUP2 DUP6 MSTORE DUP6 DUP1 DUP7 ADD SWAP2 ADD PUSH2 0xFD2 JUMP JUMPDEST PUSH1 0x1F ADD PUSH1 0x1F NOT AND ADD ADD SWAP1 JUMP JUMPDEST SWAP1 PUSH1 0x4 DUP3 LT ISZERO PUSH2 0x870 JUMPI MSTORE JUMP JUMPDEST PUSH1 0x80 DUP2 ADD SWAP1 DUP2 LT PUSH8 0xFFFFFFFFFFFFFFFF DUP3 GT OR PUSH2 0x85C JUMPI PUSH1 0x40 MSTORE JUMP JUMPDEST PUSH2 0x100 DUP2 ADD SWAP1 DUP2 LT PUSH8 0xFFFFFFFFFFFFFFFF DUP3 GT OR PUSH2 0x85C JUMPI PUSH1 0x40 MSTORE JUMP JUMPDEST SWAP1 PUSH1 0x1F DUP1 NOT SWAP2 ADD AND DUP2 ADD SWAP1 DUP2 LT PUSH8 0xFFFFFFFFFFFFFFFF DUP3 GT OR PUSH2 0x85C JUMPI PUSH1 0x40 MSTORE JUMP JUMPDEST DUP1 SLOAD DUP3 LT ISZERO PUSH2 0x1095 JUMPI PUSH0 MSTORE PUSH1 0x20 PUSH0 KECCAK256 ADD SWAP1 PUSH0 SWAP1 JUMP JUMPDEST PUSH4 0x4E487B71 PUSH1 0xE0 SHL PUSH0 MSTORE PUSH1 0x32 PUSH1 0x4 MSTORE PUSH1 0x24 PUSH0 REVERT JUMPDEST SWAP1 PUSH1 0x1 DUP3 DUP2 SHR SWAP3 AND DUP1 ISZERO PUSH2 0x10D7 JUMPI JUMPDEST PUSH1 0x20 DUP4 LT EQ PUSH2 0x10C3 JUMPI JUMP JUMPDEST PUSH4 0x4E487B71 PUSH1 0xE0 SHL PUSH0 MSTORE PUSH1 0x22 PUSH1 0x4 MSTORE PUSH1 0x24 PUSH0 REVERT JUMPDEST SWAP2 PUSH1 0x7F AND SWAP2 PUSH2 0x10B8 JUMP JUMPDEST SWAP1 PUSH1 0x40 MLOAD SWAP2 DUP3 PUSH0 DUP3 SLOAD SWAP3 PUSH2 0x10F4 DUP5 PUSH2 0x10A9 JUMP JUMPDEST SWAP1 DUP2 DUP5 MSTORE PUSH1 0x1 SWAP5 DUP6 DUP2 AND SWAP1 DUP2 PUSH0 EQ PUSH2 0x115F JUMPI POP PUSH1 0x1 EQ PUSH2 0x111F JUMPI JUMPDEST POP POP PUSH2 0x111D SWAP3 POP SUB DUP4 PUSH2 0x105E JUMP JUMPDEST JUMP JUMPDEST SWAP1 SWAP4 SWAP2 POP PUSH0 MSTORE PUSH1 0x20 SWAP1 DUP2 PUSH0 KECCAK256 SWAP4 PUSH0 SWAP2 JUMPDEST DUP2 DUP4 LT PUSH2 0x1147 JUMPI POP POP PUSH2 0x111D SWAP4 POP DUP3 ADD ADD PUSH0 DUP1 PUSH2 0x110F JUMP JUMPDEST DUP6 SLOAD DUP9 DUP5 ADD DUP6 ADD MSTORE SWAP5 DUP6 ADD SWAP5 DUP8 SWAP5 POP SWAP2 DUP4 ADD SWAP2 PUSH2 0x112F JUMP JUMPDEST SWAP2 POP POP PUSH2 0x111D SWAP5 POP PUSH1 0x20 SWAP3 POP PUSH1 0xFF NOT AND DUP3 DUP5 ADD MSTORE ISZERO ISZERO PUSH1 0x5 SHL DUP3 ADD ADD PUSH0 DUP1 PUSH2 0x110F JUMP JUMPDEST SWAP1 PUSH1 0x4 DUP2 LT ISZERO PUSH2 0x870 JUMPI DUP2 SLOAD PUSH1 0xFF PUSH1 0xA0 SHL NOT AND PUSH1 0xA0 SWAP2 SWAP1 SWAP2 SHL PUSH1 0xFF PUSH1 0xA0 SHL AND OR SWAP1 SSTORE JUMP JUMPDEST PUSH1 0x4 DUP3 LT ISZERO PUSH2 0x870 JUMPI MSTORE JUMP JUMPDEST PUSH0 SWAP1 DUP2 MSTORE PUSH1 0x20 DUP2 SWAP1 MSTORE PUSH1 0x40 DUP2 KECCAK256 PUSH1 0x1 ADD SLOAD SWAP1 SWAP5 SWAP4 SWAP3 SWAP2 PUSH1 0x1 PUSH1 0x1 PUSH1 0xA0 SHL SUB SWAP2 DUP3 AND ISZERO PUSH2 0x12B8 JUMPI PUSH1 0x1 PUSH1 0x20 MSTORE DUP2 PUSH1 0x40 DUP8 KECCAK256 SWAP2 AND DUP7 MSTORE PUSH1 0x20 MSTORE PUSH1 0x40 DUP6 KECCAK256 PUSH1 0xE0 PUSH1 0x40 MLOAD SWAP3 PUSH2 0x11FC DUP5 PUSH2 0x1041 JUMP JUMPDEST DUP3 SLOAD DUP5 MSTORE PUSH1 0x1 DUP4 ADD SLOAD PUSH1 0x20 DUP6 ADD MSTORE PUSH1 0x2 DUP4 ADD SLOAD SWAP4 PUSH1 0x40 DUP2 ADD SWAP1 DUP3 DUP7 AND DUP3 MSTORE PUSH2 0x122E PUSH1 0xFF PUSH1 0x60 DUP4 ADD SWAP8 PUSH1 0xA0 SHR AND DUP8 PUSH2 0x11A6 JUMP JUMPDEST DUP3 PUSH1 0x3 DUP7 ADD SLOAD AND PUSH1 0x80 DUP3 ADD MSTORE PUSH1 0x4 DUP6 ADD SLOAD PUSH1 0xA0 DUP3 ADD MSTORE PUSH1 0xFF PUSH1 0x6 PUSH1 0x5 DUP8 ADD SLOAD SWAP7 DUP8 PUSH1 0xC0 DUP6 ADD MSTORE ADD SLOAD AND ISZERO ISZERO SWAP4 DUP5 SWAP2 ADD MSTORE MLOAD AND ISZERO SWAP1 DUP2 ISZERO PUSH2 0x12BE JUMPI JUMPDEST POP PUSH2 0x12B8 JUMPI DUP1 ISZERO ISZERO SWAP1 DUP2 PUSH2 0x12AE JUMPI JUMPDEST POP PUSH2 0x12A9 JUMPI MLOAD PUSH1 0x4 DUP2 LT ISZERO PUSH2 0x1295 JUMPI PUSH2 0x1292 SWAP4 SWAP5 POP PUSH2 0x1549 JUMP JUMPDEST SWAP1 JUMP JUMPDEST PUSH4 0x4E487B71 PUSH1 0xE0 SHL DUP6 MSTORE PUSH1 0x21 PUSH1 0x4 MSTORE PUSH1 0x24 DUP6 REVERT JUMPDEST POP POP POP JUMP JUMPDEST SWAP1 POP TIMESTAMP GT PUSH0 PUSH2 0x1278 JUMP JUMPDEST POP POP POP POP JUMP JUMPDEST SWAP1 POP PUSH0 PUSH2 0x1269 JUMP JUMPDEST SWAP1 PUSH0 SWAP2 DUP3 MSTORE PUSH1 0x1 PUSH1 0x20 MSTORE PUSH1 0x40 DUP3 KECCAK256 PUSH1 0x1 DUP1 PUSH1 0xA0 SHL SUB DUP1 SWAP3 AND DUP4 MSTORE PUSH1 0x20 MSTORE PUSH1 0x40 DUP3 KECCAK256 PUSH1 0xE0 PUSH1 0x40 MLOAD SWAP3 PUSH2 0x12F6 DUP5 PUSH2 0x1041 JUMP JUMPDEST DUP3 SLOAD DUP5 MSTORE PUSH1 0x1 DUP4 ADD SLOAD PUSH1 0x20 DUP6 ADD MSTORE PUSH1 0x2 DUP4 ADD SLOAD SWAP4 PUSH1 0x40 DUP2 ADD SWAP1 DUP3 DUP7 AND DUP3 MSTORE PUSH2 0x1328 PUSH1 0xFF PUSH1 0x60 DUP4 ADD SWAP8 PUSH1 0xA0 SHR AND DUP8 PUSH2 0x11A6 JUMP JUMPDEST DUP3 PUSH1 0x3 DUP7 ADD SLOAD AND PUSH1 0x80 DUP3 ADD MSTORE PUSH1 0x4 DUP6 ADD SLOAD PUSH1 0xA0 DUP3 ADD MSTORE PUSH1 0xFF PUSH1 0x6 PUSH1 0x5 DUP8 ADD SLOAD SWAP7 DUP8 PUSH1 0xC0 DUP6 ADD MSTORE ADD SLOAD AND ISZERO ISZERO SWAP4 DUP5 SWAP2 ADD MSTORE MLOAD AND ISZERO SWAP1 DUP2 ISZERO PUSH2 0x13B5 JUMPI JUMPDEST POP PUSH2 0x13AD JUMPI DUP1 ISZERO ISZERO SWAP1 DUP2 PUSH2 0x13A3 JUMPI JUMPDEST POP PUSH2 0x139D JUMPI MLOAD SWAP1 PUSH1 0x4 DUP3 LT ISZERO PUSH2 0x1389 JUMPI POP SWAP1 PUSH1 0x1 SWAP1 JUMP JUMPDEST PUSH4 0x4E487B71 PUSH1 0xE0 SHL DUP2 MSTORE PUSH1 0x21 PUSH1 0x4 MSTORE PUSH1 0x24 SWAP1 REVERT JUMPDEST POP PUSH1 0x2 SWAP2 JUMP JUMPDEST SWAP1 POP TIMESTAMP GT PUSH0 PUSH2 0x1372 JUMP JUMPDEST POP PUSH1 0x2 SWAP3 SWAP1 POP JUMP JUMPDEST SWAP1 POP PUSH0 PUSH2 0x1363 JUMP JUMPDEST PUSH0 NOT DUP2 EQ PUSH2 0xF81 JUMPI PUSH1 0x1 ADD SWAP1 JUMP JUMPDEST SWAP1 PUSH0 SWAP2 DUP3 MSTORE PUSH1 0x20 PUSH1 0x2 DUP2 MSTORE PUSH1 0x40 DUP4 KECCAK256 PUSH1 0x40 MLOAD DUP1 DUP3 DUP5 DUP3 SWAP5 SLOAD SWAP4 DUP5 DUP2 MSTORE ADD SWAP1 DUP8 MSTORE DUP5 DUP8 KECCAK256 SWAP3 DUP8 JUMPDEST DUP7 DUP3 DUP3 LT PUSH2 0x144E JUMPI POP POP POP PUSH2 0x1408 SWAP3 POP SUB DUP3 PUSH2 0x105E JUMP JUMPDEST DUP4 JUMPDEST DUP2 MLOAD DUP2 LT ISZERO PUSH2 0x1447 JUMPI PUSH1 0x5 DUP2 SWAP1 SHL DUP3 ADD DUP4 ADD MLOAD PUSH1 0x1 PUSH1 0x1 PUSH1 0xA0 SHL SUB DUP6 DUP2 AND SWAP2 AND EQ PUSH2 0x143D JUMPI PUSH2 0x1438 SWAP1 PUSH2 0x13BD JUMP JUMPDEST PUSH2 0x140A JUMP JUMPDEST POP POP POP POP POP PUSH1 0x1 SWAP1 JUMP JUMPDEST POP POP POP POP SWAP1 JUMP JUMPDEST DUP6 SLOAD PUSH1 0x1 PUSH1 0x1 PUSH1 0xA0 SHL SUB AND DUP5 MSTORE PUSH1 0x1 SWAP6 DUP7 ADD SWAP6 DUP8 SWAP6 POP SWAP4 ADD SWAP3 ADD PUSH2 0x13F1 JUMP JUMPDEST SWAP1 PUSH0 SWAP2 DUP3 MSTORE PUSH1 0x1 PUSH1 0x20 MSTORE PUSH1 0x40 DUP3 KECCAK256 PUSH1 0x1 DUP1 PUSH1 0xA0 SHL SUB DUP1 SWAP3 AND DUP4 MSTORE PUSH1 0x20 MSTORE PUSH1 0x40 DUP3 KECCAK256 PUSH1 0xE0 PUSH1 0x40 MLOAD SWAP3 PUSH2 0x149D DUP5 PUSH2 0x1041 JUMP JUMPDEST DUP3 SLOAD DUP5 MSTORE PUSH1 0x1 DUP4 ADD SLOAD PUSH1 0x20 DUP6 ADD MSTORE PUSH1 0x2 DUP4 ADD SLOAD SWAP4 PUSH1 0x40 DUP2 ADD SWAP1 DUP3 DUP7 AND DUP3 MSTORE PUSH2 0x14CF PUSH1 0xFF PUSH1 0x60 DUP4 ADD SWAP8 PUSH1 0xA0 SHR AND DUP8 PUSH2 0x11A6 JUMP JUMPDEST DUP3 PUSH1 0x3 DUP7 ADD SLOAD AND PUSH1 0x80 DUP3 ADD MSTORE PUSH1 0x4 DUP6 ADD SLOAD PUSH1 0xA0 DUP3 ADD MSTORE PUSH1 0xFF PUSH1 0x6 PUSH1 0x5 DUP8 ADD SLOAD SWAP7 DUP8 PUSH1 0xC0 DUP6 ADD MSTORE ADD SLOAD AND ISZERO ISZERO SWAP4 DUP5 SWAP2 ADD MSTORE MLOAD AND ISZERO SWAP1 DUP2 ISZERO PUSH2 0x1541 JUMPI JUMPDEST POP PUSH2 0x153C JUMPI DUP1 ISZERO ISZERO SWAP1 DUP2 PUSH2 0x1532 JUMPI JUMPDEST POP PUSH2 0x152E JUMPI MLOAD SWAP1 PUSH1 0x4 DUP3 LT ISZERO PUSH2 0x1389 JUMPI POP ISZERO SWAP1 JUMP JUMPDEST POP SWAP1 JUMP JUMPDEST SWAP1 POP TIMESTAMP GT PUSH0 PUSH2 0x1519 JUMP JUMPDEST POP POP SWAP1 JUMP JUMPDEST SWAP1 POP PUSH0 PUSH2 0x150A JUMP JUMPDEST SWAP2 PUSH1 0x4 SWAP1 DUP2 DUP5 LT ISZERO PUSH2 0x15B4 JUMPI DUP4 ISZERO PUSH2 0x16F5 JUMPI PUSH1 0x3 DUP5 EQ PUSH2 0x163F JUMPI PUSH1 0x1 SWAP4 DUP5 DUP2 EQ PUSH2 0x15C7 JUMPI PUSH1 0x2 EQ PUSH2 0x157C JUMPI POP POP POP POP PUSH0 SWAP1 JUMP JUMPDEST PUSH1 0x6 DUP2 LT ISZERO PUSH2 0x15B4 JUMPI PUSH1 0x2 EQ PUSH2 0x1593 JUMPI POP POP POP PUSH0 SWAP1 JUMP JUMPDEST PUSH1 0x7 DUP3 LT ISZERO PUSH2 0x15A1 JUMPI POP EQ SWAP1 JUMP JUMPDEST PUSH1 0x21 SWAP1 PUSH4 0x4E487B71 PUSH1 0xE0 SHL PUSH0 MSTORE MSTORE PUSH1 0x24 PUSH0 REVERT JUMPDEST PUSH1 0x21 DUP3 PUSH4 0x4E487B71 PUSH1 0xE0 SHL PUSH0 MSTORE MSTORE PUSH1 0x24 PUSH0 REVERT JUMPDEST POP PUSH1 0x6 DUP2 LT ISZERO PUSH2 0x15B4 JUMPI DUP1 ISZERO PUSH2 0x1622 JUMPI DUP4 DUP2 EQ PUSH2 0x1601 JUMPI PUSH1 0x2 DUP2 EQ SWAP1 DUP2 ISZERO PUSH2 0x15F6 JUMPI JUMPDEST POP PUSH2 0x1593 JUMPI POP POP POP PUSH0 SWAP1 JUMP JUMPDEST PUSH1 0x3 SWAP2 POP EQ PUSH0 PUSH2 0x15EA JUMP JUMPDEST POP PUSH1 0x7 DUP3 SWAP4 SWAP3 LT ISZERO PUSH2 0x15A1 JUMPI POP DUP2 ISZERO SWAP2 DUP3 ISZERO PUSH2 0x161C JUMPI POP POP SWAP1 JUMP JUMPDEST EQ SWAP2 SWAP1 POP JUMP JUMPDEST POP PUSH1 0x7 DUP3 SWAP4 SWAP3 LT ISZERO PUSH2 0x15A1 JUMPI POP PUSH1 0x5 DUP3 EQ SWAP2 DUP3 ISZERO PUSH2 0x161C JUMPI POP POP SWAP1 JUMP JUMPDEST SWAP1 SWAP2 SWAP3 POP PUSH1 0x6 DUP2 LT ISZERO PUSH2 0x15B4 JUMPI DUP1 ISZERO PUSH2 0x16B0 JUMPI PUSH0 PUSH1 0x1 DUP3 EQ DUP1 ISZERO PUSH2 0x16A6 JUMPI JUMPDEST PUSH2 0x1694 JUMPI PUSH2 0x15B4 JUMPI PUSH1 0x3 EQ PUSH2 0x1673 JUMPI POP POP PUSH0 SWAP1 JUMP JUMPDEST PUSH1 0x7 DUP3 LT ISZERO PUSH2 0x15A1 JUMPI POP PUSH1 0x1 DUP2 EQ SWAP1 DUP2 ISZERO PUSH2 0x168C JUMPI POP SWAP1 JUMP JUMPDEST PUSH1 0x6 SWAP2 POP EQ SWAP1 JUMP JUMPDEST POP POP PUSH1 0x7 DUP3 LT ISZERO PUSH2 0x15A1 JUMPI POP PUSH1 0x1 EQ SWAP1 JUMP JUMPDEST POP PUSH1 0x2 DUP3 EQ PUSH2 0x165E JUMP JUMPDEST POP SWAP1 PUSH1 0x7 DUP2 LT ISZERO SWAP2 DUP3 PUSH2 0x15A1 JUMPI DUP2 ISZERO SWAP3 DUP4 ISZERO PUSH2 0x16E8 JUMPI JUMPDEST DUP4 ISZERO PUSH2 0x16D4 JUMPI JUMPDEST POP POP POP SWAP1 JUMP JUMPDEST SWAP1 SWAP2 SWAP3 POP PUSH2 0x15A1 JUMPI POP PUSH1 0x1 EQ PUSH0 DUP1 DUP1 PUSH2 0x16CE JUMP JUMPDEST POP PUSH1 0x5 DUP3 EQ SWAP3 POP PUSH0 PUSH2 0x16C7 JUMP JUMPDEST POP POP POP POP PUSH1 0x1 SWAP1 JUMP INVALID LOG2 PUSH5 0x6970667358 0x22 SLT KECCAK256 JUMPDEST DUP9 0xC2 PUSH23 0x7265A647DB49A74977D23AA72F8D77BC0CC68A71C1C22B 0xEB PUSH29 0xBB6F3564736F6C63430008140033000000000000000000000000000000 "},"methodIdentifiers":{"createOrganization(string)":"6427acca","credentials(bytes32,address)":"f078e5db","getCredential(bytes32,address)":"28073c7c","getMemberCount(bytes32)":"93f36bd8","getOrganization(bytes32)":"22b3cd4e","getOrganizationMembers(bytes32)":"c1f8218a","getUserRole(bytes32,address)":"263a77ef","hasPermission(bytes32,address,uint8,uint8)":"acd7facd","issueCredential(bytes32,address,uint8,uint256)":"610070f0","orgMembers(bytes32,uint256)":"7622f042","organizations(bytes32)":"ba51b14e","revokeCredential(bytes32,address)":"10548797","updateRole(bytes32,address,uint8)":"877c5e2c"}}}}}