{"project/contracts/Intran3tAccessPass.sol":{"Intran3tAccessPass":{"abi":[{"inputs":[],"stateMutability":"nonpayable","type":"constructor"},{"inputs":[],"name":"AccessControlBadConfirmation","type":"error"},{"inputs":[{"internalType":"address","name":"account","type":"address"},{"internalType":"bytes32","name":"neededRole","type":"bytes32"}],"name":"AccessControlUnauthorizedAccount","type":"error"},{"inputs":[{"internalType":"address","name":"sender","type":"address"},{"internalType":"uint256","name":"tokenId","type":"uint256"},{"internalType":"address","name":"owner","type":"address"}],"name":"ERC721IncorrectOwner","type":"error"},{"inputs":[{"internalType":"address","name":"operator","type":"address"},{"internalType":"uint256","name":"tokenId","type":"uint256"}],"name":"ERC721InsufficientApproval","type":"error"},{"inputs":[{"internalType":"address","name":"approver","type":"address"}],"name":"ERC721InvalidApprover","type":"error"},{"inputs":[{"internalType":"address","name":"operator","type":"address"}],"name":"ERC721InvalidOperator","type":"error"},{"inputs":[{"internalType":"address","name":"owner","type":"address"}],"name":"ERC721InvalidOwner","type":"error"},{"inputs":[{"internalType":"address","name":"receiver","type":"address"}],"name":"ERC721InvalidReceiver","type":"error"},{"inputs":[{"internalType":"address","name":"sender","type":"address"}],"name":"ERC721InvalidSender","type":"error"},{"inputs":[{"internalType":"uint256","name":"tokenId","type":"uint256"}],"name":"ERC721NonexistentToken","type":"error"},{"inputs":[],"name":"Intran3tAccessPass__InvalidExpiration","type":"error"},{"inputs":[],"name":"Intran3tAccessPass__PassExpired","type":"error"},{"inputs":[],"name":"Intran3tAccessPass__PassNotFound","type":"error"},{"inputs":[],"name":"Intran3tAccessPass__PassRevoked","type":"error"},{"inputs":[],"name":"Intran3tAccessPass__TransferNotAllowed","type":"error"},{"inputs":[],"name":"Intran3tAccessPass__Unauthorized","type":"error"},{"inputs":[{"internalType":"uint256","name":"value","type":"uint256"},{"internalType":"uint256","name":"length","type":"uint256"}],"name":"StringsInsufficientHexLength","type":"error"},{"anonymous":false,"inputs":[{"indexed":true,"internalType":"uint256","name":"tokenId","type":"uint256"},{"indexed":true,"internalType":"address","name":"holder","type":"address"},{"indexed":false,"internalType":"string","name":"location","type":"string"},{"indexed":false,"internalType":"string","name":"locationId","type":"string"},{"indexed":false,"internalType":"uint256","name":"expiresAt","type":"uint256"},{"indexed":false,"internalType":"uint256","name":"timestamp","type":"uint256"}],"name":"AccessPassMinted","type":"event"},{"anonymous":false,"inputs":[{"indexed":true,"internalType":"uint256","name":"tokenId","type":"uint256"},{"indexed":true,"internalType":"address","name":"revokedBy","type":"address"},{"indexed":false,"internalType":"uint256","name":"timestamp","type":"uint256"}],"name":"AccessPassRevoked","type":"event"},{"anonymous":false,"inputs":[{"indexed":true,"internalType":"uint256","name":"tokenId","type":"uint256"},{"indexed":true,"internalType":"address","name":"from","type":"address"},{"indexed":true,"internalType":"address","name":"to","type":"address"},{"indexed":false,"internalType":"uint256","name":"timestamp","type":"uint256"}],"name":"AccessPassTransferred","type":"event"},{"anonymous":false,"inputs":[{"indexed":true,"internalType":"address","name":"owner","type":"address"},{"indexed":true,"internalType":"address","name":"approved","type":"address"},{"indexed":true,"internalType":"uint256","name":"tokenId","type":"uint256"}],"name":"Approval","type":"event"},{"anonymous":false,"inputs":[{"indexed":true,"internalType":"address","name":"owner","type":"address"},{"indexed":true,"internalType":"address","name":"operator","type":"address"},{"indexed":false,"internalType":"bool","name":"approved","type":"bool"}],"name":"ApprovalForAll","type":"event"},{"anonymous":false,"inputs":[{"indexed":true,"internalType":"bytes32","name":"role","type":"bytes32"},{"indexed":true,"internalType":"bytes32","name":"previousAdminRole","type":"bytes32"},{"indexed":true,"internalType":"bytes32","name":"newAdminRole","type":"bytes32"}],"name":"RoleAdminChanged","type":"event"},{"anonymous":false,"inputs":[{"indexed":true,"internalType":"bytes32","name":"role","type":"bytes32"},{"indexed":true,"internalType":"address","name":"account","type":"address"},{"indexed":true,"internalType":"address","name":"sender","type":"address"}],"name":"RoleGranted","type":"event"},{"anonymous":false,"inputs":[{"indexed":true,"internalType":"bytes32","name":"role","type":"bytes32"},{"indexed":true,"internalType":"address","name":"account","type":"address"},{"indexed":true,"internalType":"address","name":"sender","type":"address"}],"name":"RoleRevoked","type":"event"},{"anonymous":false,"inputs":[{"indexed":true,"internalType":"address","name":"from","type":"address"},{"indexed":true,"internalType":"address","name":"to","type":"address"},{"indexed":true,"internalType":"uint256","name":"tokenId","type":"uint256"}],"name":"Transfer","type":"event"},{"inputs":[],"name":"ADMIN_ROLE","outputs":[{"internalType":"bytes32","name":"","type":"bytes32"}],"stateMutability":"view","type":"function"},{"inputs":[],"name":"DEFAULT_ADMIN_ROLE","outputs":[{"internalType":"bytes32","name":"","type":"bytes32"}],"stateMutability":"view","type":"function"},{"inputs":[],"name":"MINTER_ROLE","outputs":[{"internalType":"bytes32","name":"","type":"bytes32"}],"stateMutability":"view","type":"function"},{"inputs":[{"internalType":"address","name":"to","type":"address"},{"internalType":"uint256","name":"tokenId","type":"uint256"}],"name":"approve","outputs":[],"stateMutability":"nonpayable","type":"function"},{"inputs":[{"internalType":"address","name":"owner","type":"address"}],"name":"balanceOf","outputs":[{"internalType":"uint256","name":"","type":"uint256"}],"stateMutability":"view","type":"function"},{"inputs":[{"internalType":"uint256","name":"tokenId","type":"uint256"}],"name":"getApproved","outputs":[{"internalType":"address","name":"","type":"address"}],"stateMutability":"view","type":"function"},{"inputs":[{"internalType":"uint256","name":"tokenId","type":"uint256"}],"name":"getPassMetadata","outputs":[{"components":[{"internalType":"string","name":"location","type":"string"},{"internalType":"string","name":"locationId","type":"string"},{"internalType":"address","name":"holder","type":"address"},{"internalType":"uint256","name":"issuedAt","type":"uint256"},{"internalType":"uint256","name":"expiresAt","type":"uint256"},{"internalType":"string","name":"accessLevel","type":"string"},{"internalType":"bool","name":"revoked","type":"bool"},{"internalType":"string","name":"identityDisplay","type":"string"}],"internalType":"struct Intran3tAccessPass.AccessPassMetadata","name":"metadata","type":"tuple"}],"stateMutability":"view","type":"function"},{"inputs":[{"internalType":"address","name":"holder","type":"address"}],"name":"getPassesByHolder","outputs":[{"internalType":"uint256[]","name":"tokenIds","type":"uint256[]"}],"stateMutability":"view","type":"function"},{"inputs":[{"internalType":"string","name":"locationId","type":"string"}],"name":"getPassesByLocation","outputs":[{"internalType":"uint256[]","name":"tokenIds","type":"uint256[]"}],"stateMutability":"view","type":"function"},{"inputs":[{"internalType":"bytes32","name":"role","type":"bytes32"}],"name":"getRoleAdmin","outputs":[{"internalType":"bytes32","name":"","type":"bytes32"}],"stateMutability":"view","type":"function"},{"inputs":[{"internalType":"address","name":"account","type":"address"}],"name":"grantMinterRole","outputs":[],"stateMutability":"nonpayable","type":"function"},{"inputs":[{"internalType":"bytes32","name":"role","type":"bytes32"},{"internalType":"address","name":"account","type":"address"}],"name":"grantRole","outputs":[],"stateMutability":"nonpayable","type":"function"},{"inputs":[{"internalType":"bytes32","name":"role","type":"bytes32"},{"internalType":"address","name":"account","type":"address"}],"name":"hasRole","outputs":[{"internalType":"bool","name":"","type":"bool"}],"stateMutability":"view","type":"function"},{"inputs":[{"internalType":"address","name":"owner","type":"address"},{"internalType":"address","name":"operator","type":"address"}],"name":"isApprovedForAll","outputs":[{"internalType":"bool","name":"","type":"bool"}],"stateMutability":"view","type":"function"},{"inputs":[{"internalType":"uint256","name":"tokenId","type":"uint256"}],"name":"isPassValid","outputs":[{"internalType":"bool","name":"isValid","type":"bool"}],"stateMutability":"view","type":"function"},{"inputs":[{"internalType":"address","name":"to","type":"address"},{"internalType":"string","name":"location","type":"string"},{"internalType":"string","name":"locationId","type":"string"},{"internalType":"uint256","name":"expiresAt","type":"uint256"},{"internalType":"string","name":"accessLevel","type":"string"},{"internalType":"string","name":"identityDisplay","type":"string"}],"name":"mintAccessPass","outputs":[{"internalType":"uint256","name":"tokenId","type":"uint256"}],"stateMutability":"nonpayable","type":"function"},{"inputs":[],"name":"name","outputs":[{"internalType":"string","name":"","type":"string"}],"stateMutability":"view","type":"function"},{"inputs":[{"internalType":"uint256","name":"tokenId","type":"uint256"}],"name":"ownerOf","outputs":[{"internalType":"address","name":"","type":"address"}],"stateMutability":"view","type":"function"},{"inputs":[{"internalType":"uint256","name":"","type":"uint256"}],"name":"passMetadata","outputs":[{"internalType":"string","name":"location","type":"string"},{"internalType":"string","name":"locationId","type":"string"},{"internalType":"address","name":"holder","type":"address"},{"internalType":"uint256","name":"issuedAt","type":"uint256"},{"internalType":"uint256","name":"expiresAt","type":"uint256"},{"internalType":"string","name":"accessLevel","type":"string"},{"internalType":"bool","name":"revoked","type":"bool"},{"internalType":"string","name":"identityDisplay","type":"string"}],"stateMutability":"view","type":"function"},{"inputs":[{"internalType":"bytes32","name":"role","type":"bytes32"},{"internalType":"address","name":"callerConfirmation","type":"address"}],"name":"renounceRole","outputs":[],"stateMutability":"nonpayable","type":"function"},{"inputs":[{"internalType":"uint256","name":"tokenId","type":"uint256"}],"name":"revokeAccessPass","outputs":[],"stateMutability":"nonpayable","type":"function"},{"inputs":[{"internalType":"address","name":"account","type":"address"}],"name":"revokeMinterRole","outputs":[],"stateMutability":"nonpayable","type":"function"},{"inputs":[{"internalType":"bytes32","name":"role","type":"bytes32"},{"internalType":"address","name":"account","type":"address"}],"name":"revokeRole","outputs":[],"stateMutability":"nonpayable","type":"function"},{"inputs":[{"internalType":"address","name":"from","type":"address"},{"internalType":"address","name":"to","type":"address"},{"internalType":"uint256","name":"tokenId","type":"uint256"}],"name":"safeTransferFrom","outputs":[],"stateMutability":"nonpayable","type":"function"},{"inputs":[{"internalType":"address","name":"from","type":"address"},{"internalType":"address","name":"to","type":"address"},{"internalType":"uint256","name":"tokenId","type":"uint256"},{"internalType":"bytes","name":"data","type":"bytes"}],"name":"safeTransferFrom","outputs":[],"stateMutability":"nonpayable","type":"function"},{"inputs":[{"internalType":"address","name":"operator","type":"address"},{"internalType":"bool","name":"approved","type":"bool"}],"name":"setApprovalForAll","outputs":[],"stateMutability":"nonpayable","type":"function"},{"inputs":[{"internalType":"bytes4","name":"interfaceId","type":"bytes4"}],"name":"supportsInterface","outputs":[{"internalType":"bool","name":"","type":"bool"}],"stateMutability":"view","type":"function"},{"inputs":[],"name":"symbol","outputs":[{"internalType":"string","name":"","type":"string"}],"stateMutability":"view","type":"function"},{"inputs":[{"internalType":"uint256","name":"tokenId","type":"uint256"}],"name":"tokenURI","outputs":[{"internalType":"string","name":"","type":"string"}],"stateMutability":"view","type":"function"},{"inputs":[],"name":"totalMinted","outputs":[{"internalType":"uint256","name":"count","type":"uint256"}],"stateMutability":"view","type":"function"},{"inputs":[{"internalType":"address","name":"from","type":"address"},{"internalType":"address","name":"to","type":"address"},{"internalType":"uint256","name":"tokenId","type":"uint256"}],"name":"transferFrom","outputs":[],"stateMutability":"nonpayable","type":"function"}],"evm":{"bytecode":{"linkReferences":{},"object":"60803462000341576001600160401b0390604090808201838111828210176200032d578252601481526020927f496e7472616e3374204163636573732050617373000000000000000000000000848301528251838101818110838211176200032d57845260048152634941434360e01b858201528251908282116200032d575f8054926001958685811c9516801562000322575b898610146200030e578190601f95868111620002bb575b508990868311600114620002585784926200024c575b50505f19600383901b1c191690861b1781555b8151938411620002385784548581811c911680156200022d575b888210146200021957838111620001d1575b50869284116001146200016c5783949596509262000160575b50505f19600383901b1c191690821b1781555b620001363362000345565b506200014233620003c4565b506200014e3362000465565b50600755516129b59081620005028239f35b015190505f8062000118565b9190601f1984169685845280842093905b888210620001b95750508385969710620001a0575b505050811b0181556200012b565b01515f1960f88460031b161c191690555f808062000192565b8087859682949686015181550195019301906200017d565b8582528782208480870160051c8201928a88106200020f575b0160051c019086905b82811062000203575050620000ff565b838155018690620001f3565b92508192620001ea565b634e487b7160e01b82526022600452602482fd5b90607f1690620000ed565b634e487b7160e01b81526041600452602490fd5b015190505f80620000c0565b8480528a85208994509190601f198416865b8d828210620002a457505084116200028b575b505050811b018155620000d3565b01515f1960f88460031b161c191690555f80806200027d565b8385015186558c979095019493840193016200026a565b9091508380528984208680850160051c8201928c861062000304575b918a91869594930160051c01915b828110620002f5575050620000aa565b8681558594508a9101620002e5565b92508192620002d7565b634e487b7160e01b83526022600452602483fd5b94607f169462000093565b634e487b7160e01b5f52604160045260245ffd5b5f80fd5b6001600160a01b03165f8181527f54cdd369e4e8a8515e52ca72ec816c2101831ad1f18bf44102ed171459c9b4f8602052604081205490919060ff16620003c05781805260066020526040822081835260205260408220600160ff1982541617905533915f8051602062002eb78339815191528180a4600190565b5090565b6001600160a01b03165f8181527f0c3bb05773fb95f6688e1e7d9c896674dccd66884026cf30a3d5e3a9bfecd81160205260408120549091907fa49807205ce4d355092ef5a8a18f56e8913cf4a201fbe287825b095693c217759060ff16620004605780835260066020526040832082845260205260408320600160ff198254161790555f8051602062002eb7833981519152339380a4600190565b505090565b6001600160a01b03165f8181527f3195c024b2ddd6d9b8f6c836aa52f67fe69376c8903d009b80229b3ce4425f5160205260408120549091907f9f2df0fed2c77648de5860a4cc508cd0818c85b8b8a1ab4ceeef8d981c8956a69060ff16620004605780835260066020526040832082845260205260408320600160ff198254161790555f8051602062002eb7833981519152339380a460019056fe6080806040526004361015610012575f80fd5b5f3560e01c90816301ffc9a714611b825750806306fdde0314611ae2578063081812fc14611aa657806308df632814611a02578063095ea7b31461192157806314e2e8d71461104d57806323b872dd14611036578063248a9ca314611009578063279967f514610ef35780632f2ff15d14610eb657806336568abe14610e6f5780633dd1eb6114610e4657806342842e0e14610e1957806348c6195d14610df1578063519db6c514610d475780636352211e14610d1757806369e2f0fb14610cee57806370a0823114610cc357806375b238fc14610c895780637a5bb4b614610b0c57806391d1485414610ac357806395d89b41146109e75780639ba9b29d14610914578063a217fddf146108fa578063a22cb46514610850578063a2309ff814610827578063b88d4fde146107bc578063c87b56dd14610240578063d539139314610206578063d547741f146101c75763e985e9c514610171575f80fd5b346101c35760403660031901126101c35761018a611d69565b610192611d7f565b9060018060a01b038091165f52600560205260405f2091165f52602052602060ff60405f2054166040519015158152f35b5f80fd5b346101c35760403660031901126101c3576102046004356101e6611d7f565b90805f5260066020526101ff600160405f200154611f1c565b612114565b005b346101c3575f3660031901126101c35760206040517f9f2df0fed2c77648de5860a4cc508cd0818c85b8b8a1ab4ceeef8d981c8956a68152f35b346101c3576020806003193601126101c35760043590815f526002815260018060a01b038060405f205416156107aa57825f526008825260405f206040519361028885611c4d565b61029182611e02565b8552846001916102a2838501611e02565b8683015284600285015416604083019081526003850154956060840196875261030b6004870154936080860194855261030160076102e260058b01611e02565b9960a089019a8b5260c060ff6006830154169901981515895201611e02565b60e08c0152612819565b98519551915116958660405197606089018981106001600160401b0382111761079657604052602a89528989019660403689378951156107825760308853895181101561078257607860218b01536029905b808211610727575050610708575061037861037f9151612819565b9251612819565b9251156106e35760405161039281611c84565b6006815265113a393ab29160d11b88820152935b6040519687968988019a7f7b226e616d65223a2022416363657373205061737320230000000000000000008c52805190818c60378c019201916103e892611c07565b7f222c20226465736372697074696f6e223a2022496e7472616e337420416363656037918a01918201526b039b9902830b9b9903337b9160a51b605782015281518b8301929161043c826063830186611c07565b019071222c202261747472696275746573223a205b60701b6063830152607582017f7b2274726169745f74797065223a20224c6f636174696f6e222c202276616c7590526432911d101160d91b6095830152519182609a830161049e92611c07565b019262089f4b60ea1b9384609a820152609d81017f7b2274726169745f74797065223a2022416363657373204c6576656c222c20229052683b30b63ab2911d101160b91b60bd820152815191828c60c684019201916104fc92611c07565b01908360c683015260c982017f7b2274726169745f74797065223a2022486f6c646572222c202276616c7565229052621d101160e91b60e983015251918260ec830161054792611c07565b019060ec82015260ef81017f7b2274726169745f74797065223a2022497373756564204174222c202276616c90526403ab2911d160dd1b61010f82015281519061011492828985840192019161059c92611c07565b01611f4b60f21b809282015261011681017f7b2274726169745f74797065223a202245787069726573204174222c202276619052650363ab2911d160d51b61013682015282519061013c9382898684019201916105f892611c07565b01918201527f7b2274726169745f74797065223a20225265766f6b6564222c202276616c756561013e820152620111d160ed1b61015e82015281516101619290919061064b908390858401908901611c07565b01908101607d60f81b90526101628101615d7d60f01b90520361014481018252610164016106799082611c9f565b6040519283918383017f646174613a6170706c69636174696f6e2f6a736f6e3b757466382c00000000009052519081603b84016106b592611c07565b810103601b81018352603b016106cb9083611c9f565b60405191818392835282016106df91611c28565b0390f35b6040516106ef81611c84565b6007815266113330b639b29160c91b88820152936103a6565b6044906040519063e22e27eb60e01b8252600482015260146024820152fd5b9091600f81166010811015610782578b51841015610782576f181899199a1a9b1b9c1cb0b131b232b360811b901a8b84018d015360041c91801561076e575f19019061035d565b634e487b7160e01b5f52601160045260245ffd5b634e487b7160e01b5f52603260045260245ffd5b634e487b7160e01b5f52604160045260245ffd5b6040516328e6dbb160e01b8152600490fd5b346101c35760803660031901126101c3576107d5611d69565b6107dd611d7f565b90604435606435926001600160401b0384116101c357366023850112156101c357610815610204943690602481600401359101611cdb565b926108218383836121bf565b33612235565b346101c3575f3660031901126101c3576007545f19810190811161076e57602090604051908152f35b346101c35760403660031901126101c357610869611d69565b60243590811515908183036101c3576001600160a01b03169182156108e1576108b390335f52600560205260405f20845f5260205260405f209060ff801983541691151516179055565b6040519081527f17307eab39ab6107e8899845ad3d59bd9653f200f220920489ca2b5937696c3160203392a3005b604051630b61174360e31b815260048101849052602490fd5b346101c3575f3660031901126101c35760206040515f8152f35b346101c35760203660031901126101c3576004355f5260086020526109a760405f206106df61094282611e02565b9161094f60018201611e02565b6002820154600383015460048401546109d2926001600160a01b0316919061097960058701611e02565b916109b5610991600760ff60068b0154169901611e02565b966040519b8c9b8c6101008091528d0190611c28565b908b820360208d0152611c28565b9360408a01526060890152608088015286820360a0880152611c28565b91151560c085015283820360e0850152611c28565b346101c3575f3660031901126101c3576040515f6001805490610a0982611dca565b80855291818116908115610a9c5750600114610a44575b6106df84610a3081860382611c9f565b604051918291602083526020830190611c28565b5f81815292507fb10e2d527612073b26eecdfd717e6a320cf44b4afac2b0732d9fcbe2b7fa0cf65b828410610a84575050508101602001610a3082610a20565b80546020858701810191909152909301928101610a6c565b60ff191660208087019190915292151560051b85019092019250610a309150839050610a20565b346101c35760403660031901126101c357610adc611d7f565b6004355f52600660205260405f209060018060a01b03165f52602052602060ff60405f2054166040519015158152f35b346101c3576020806003193601126101c3576004359060e0604051610b3081611c4d565b606091818380935282858201525f60408201525f838201525f60808201528260a08201525f60c08201520152825f526002825260018060a01b03928360405f205416156107aa575f526008825260405f2060405192610b8e84611c4d565b610b9782611e02565b8452610ba560018301611e02565b928185019384528560028401541660408601908152600384015482870190815260048501546080880190815260058601610bde90611e02565b9160a08901928352600687015460ff169660c08a019715158852600701610c0490611e02565b9460e08a019586526040519a8b9a888c525161010080998d01526101208c01610c2c91611c28565b9951601f198c8c03810160408e01529a610c4591611c28565b955116908a01525160808901525160a08801525190858782030160c0880152610c6d91611c28565b9251151560e0860152519284830301908401526106df91611c28565b346101c3575f3660031901126101c35760206040517fa49807205ce4d355092ef5a8a18f56e8913cf4a201fbe287825b095693c217758152f35b346101c35760203660031901126101c3576020610ce6610ce1611d69565b612189565b604051908152f35b346101c35760203660031901126101c357610204610d0a611d69565b610d12611ea3565b612069565b346101c35760203660031901126101c3576020610d35600435612213565b6040516001600160a01b039091168152f35b346101c35760203660031901126101c357600435610d63611ea3565b5f818152600260205260409020546001600160a01b03908116156107aa57815f526008602052600660405f2001600160ff19825416179055610da4826124fc565b1615610dd957604051904282527f20b97a918b5112d5e8de2cc65dd70ba035d2655d44a4c042e197fe20dec3a46d60203393a3005b60249060405190637e27328960e01b82526004820152fd5b346101c35760203660031901126101c3576020610e0f6004356123bb565b6040519015158152f35b346101c357610204610e2a36611d95565b9060405192610e3884611c69565b5f84526108218383836121bf565b346101c35760203660031901126101c357610204610e62611d69565b610e6a611ea3565b611f3e565b346101c35760403660031901126101c357610e88611d7f565b336001600160a01b03821603610ea45761020490600435612114565b60405163334bd91960e11b8152600490fd5b346101c35760403660031901126101c357610204600435610ed5611d7f565b90805f526006602052610eee600160405f200154611f1c565b611ff0565b346101c3576020806003193601126101c357610f0d611d69565b610f1681612189565b610f1f81612489565b90610f2d6040519283611c9f565b808252610f3c601f1991612489565b0136848301376001600160a01b039182165f818152600a85526040808220905181548082529183528683209096929391879081850190865b86828210610ff357505050610f8b92500387611c9f565b5f5b8651811015610fe557610fa081886124a0565b51805f5260028452828760405f20541614610fc5575b50610fc090612381565b610f8d565b84610fde91610fd8610fc09497896124a0565b52612381565b9390610fb6565b604051806106df8782611d2f565b855484526001958601958c955093019201610f74565b346101c35760203660031901126101c3576004355f5260066020526020600160405f200154604051908152f35b346101c35761020461104736611d95565b916121bf565b346101c35760c03660031901126101c357611066611d69565b6024356001600160401b0381116101c357611085903690600401611d11565b906044356001600160401b0381116101c3576110a5903690600401611d11565b906084356001600160401b0381116101c3576110c5903690600401611d11565b9160a4356001600160401b0381116101c3576110e5903690600401611d11565b926001600160a01b038316331415806118e9575b6118d7576064351515806118cb575b6118b9576007549361111985612381565b60075560405161112881611c69565b5f81526001600160a01b038516156118a1576001600160a01b0361114c87876124b4565b1661188957843b611746575b506040519161116683611c4d565b86835283602084015260018060a01b0385166040840152426060840152606435608084015260a08301525f60c083015260e0820152835f52600860205260405f209080518051906001600160401b0382116107965781906111c78554611dca565b601f81116116f9575b50602090601f8311600114611695575f9261168a575b50508160011b915f199060031b1c19161782555b60208101518051906001600160401b03821161079657819061121f6001860154611dca565b601f811161163a575b50602090601f83116001146115cc575f926115c1575b50508160011b915f199060031b1c19161760018301555b6002820160018060a01b036040830151166001600160601b0360a01b825416179055606081015160038301556080810151600483015560a08101518051906001600160401b038211610796576112ae6005850154611dca565b601f811161157d575b50602090601f83116001146115105760e09392915f9183611505575b50508160011b915f199060031b1c19161760058401555b61130960c08201511515600685019060ff801983541691151516179055565b01518051906001600160401b038211610796576113296007840154611dca565b601f81116114bd575b5091859391602097938890601f831160011461142857926007836113f8946113eb97947f7b2cc9f2158661e5a08f51dfb404c738f98cc86ce50bfc3024c962837439be0099975f9261141d575b50508160011b915f199060031b1c1916179101555b6113bb866040518b8185516113ac8183858a01611c07565b8101600981520301902061238f565b60018060a01b0387165f52600a89526113d78660405f2061238f565b604051938493608085526080850190611c28565b908382038a850152611c28565b60643560408301524260608301526001600160a01b03909516940390a3604051908152f35b015190508d8061137f565b90601f19831691600785015f528a5f20925f5b8181106114a35750846113eb97947f7b2cc9f2158661e5a08f51dfb404c738f98cc86ce50bfc3024c962837439be009997946007946113f8986001951061148b575b505050811b01910155611394565b01515f1960f88460031b161c191690558d808061147d565b8284015185558b9950600190940193928c01928c0161143b565b600784015f5260205f20601f840160051c810191602085106114fb575b601f0160051c01905b8181106114f05750611332565b5f81556001016114e3565b90915081906114da565b0151905089806112d3565b90601f19831691600586015f5260205f20925f5b818110611565575091600193918560e09796941061154d575b505050811b0160058401556112ea565b01515f1960f88460031b161c1916905589808061153d565b92936020600181928786015181550195019301611524565b600585015f5260205f20601f840160051c8101602085106115ba575b601f830160051c820181106115af5750506112b7565b5f8155600101611599565b5080611599565b01519050888061123e565b9250600185015f5260205f20905f935b601f198416851061161f576001945083601f19811610611607575b505050811b016001830155611255565b01515f1960f88460031b161c191690558880806115f7565b818101518355602094850194600190930192909101906115dc565b909150600185015f5260205f20601f840160051c810160208510611683575b90849392915b601f830160051c82018110611675575050611228565b5f815585945060010161165f565b5080611659565b0151905088806111e6565b5f868152602081209350601f198516905b8181106116e157509084600195949392106116c9575b505050811b0182556111fa565b01515f1960f88460031b161c191690558880806116bc565b929360206001819287860151815501950193016116a6565b909150845f5260205f20601f840160051c81016020851061173f575b90849392915b601f830160051c820181106117315750506111d0565b5f815585945060010161171b565b5080611715565b6020611784916040989796985180938192630a85bd0160e11b83523360048401525f6024840152896044840152608060648401526084830190611c28565b03815f6001600160a01b038c165af15f9181611844575b5061180257863d156117fa573d906117b282611cc0565b916117c06040519384611c9f565b82523d5f602084013e5b815191826117f357604051633250574960e11b81526001600160a01b0383166004820152602490fd5b6020915001fd5b6060906117ca565b949593946001600160e01b03191663757a42ff60e11b016118235786611158565b604051633250574960e11b81526001600160a01b0385166004820152602490fd5b9091506020813d602011611881575b8161186060209383611c9f565b810103126101c357516001600160e01b0319811681036101c357908861179b565b3d9150611853565b6040516339e3563760e11b81525f6004820152602490fd5b604051633250574960e11b81525f6004820152602490fd5b604051636d77e4a360e11b8152600490fd5b50426064351115611108565b6040516315f609bb60e21b8152600490fd5b50335f9081527f3195c024b2ddd6d9b8f6c836aa52f67fe69376c8903d009b80229b3ce4425f51602052604090205460ff16156110f9565b346101c35760403660031901126101c35761193a611d69565b60243561194681612213565b331515806119ef575b806119c6575b6119ae576001600160a01b039283169282918491167f8c5be1e5ebec7d5bd14f71427d1e84f3dd0314c0f7b2291e5b200ac8c7c3b9255f80a45f90815260046020526040902080546001600160a01b0319169091179055005b60405163a9fbf51f60e01b8152336004820152602490fd5b5060018060a01b0381165f52600560205260405f20335f5260205260ff60405f20541615611955565b506001600160a01b03811633141561194f565b346101c3576020806003193601126101c3576004356001600160401b0381116101c35781611a37611a4a923690600401611d11565b8160405193828580945193849201611c07565b810160098152030190209060405190818184549182815201935f52815f20915f905b828210611a8f576106df85611a8381890382611c9f565b60405191829182611d2f565b835486529485019460019384019390910190611a6c565b346101c35760203660031901126101c357600435611ac381612213565b505f526004602052602060018060a01b0360405f205416604051908152f35b346101c3575f3660031901126101c3576040515f8054611b0181611dca565b80845290600190818116908115610a9c5750600114611b2a576106df84610a3081860382611c9f565b5f80805292507f290decd9548b62a8d60345a988386fc84ba6bc95484008f6362f93160ef3e5635b828410611b6a575050508101602001610a3082610a20565b80546020858701810191909152909301928101611b52565b346101c35760203660031901126101c3576004359063ffffffff60e01b82168092036101c357602091637965db0b60e01b8114908115611bc4575b5015158152f35b6380ac58cd60e01b811491508115611bf6575b8115611be5575b5083611bbd565b6301ffc9a760e01b14905083611bde565b635b5e139f60e01b81149150611bd7565b5f5b838110611c185750505f910152565b8181015183820152602001611c09565b90602091611c4181518092818552858086019101611c07565b601f01601f1916010190565b61010081019081106001600160401b0382111761079657604052565b602081019081106001600160401b0382111761079657604052565b604081019081106001600160401b0382111761079657604052565b90601f801991011681019081106001600160401b0382111761079657604052565b6001600160401b03811161079657601f01601f191660200190565b929192611ce782611cc0565b91611cf56040519384611c9f565b8294818452818301116101c3578281602093845f960137010152565b9080601f830112156101c357816020611d2c93359101611cdb565b90565b602090816040818301928281528551809452019301915f5b828110611d55575050505090565b835185529381019392810192600101611d47565b600435906001600160a01b03821682036101c357565b602435906001600160a01b03821682036101c357565b60609060031901126101c3576001600160a01b039060043582811681036101c3579160243590811681036101c3579060443590565b90600182811c92168015611df8575b6020831014611de457565b634e487b7160e01b5f52602260045260245ffd5b91607f1691611dd9565b9060405191825f825492611e1584611dca565b9081845260019485811690815f14611e805750600114611e40575b5050611e3e92500383611c9f565b565b909391505f52602090815f20935f915b818310611e68575050611e3e93508201015f80611e30565b85548884018501529485019487945091830191611e50565b915050611e3e94506020925060ff191682840152151560051b8201015f80611e30565b335f9081527f0c3bb05773fb95f6688e1e7d9c896674dccd66884026cf30a3d5e3a9bfecd81160205260409020547fa49807205ce4d355092ef5a8a18f56e8913cf4a201fbe287825b095693c217759060ff1615611efe5750565b6044906040519063e2517d3f60e01b82523360048301526024820152fd5b805f52600660205260405f20335f5260205260ff60405f20541615611efe5750565b6001600160a01b03165f8181527f3195c024b2ddd6d9b8f6c836aa52f67fe69376c8903d009b80229b3ce4425f5160205260408120549091907f9f2df0fed2c77648de5860a4cc508cd0818c85b8b8a1ab4ceeef8d981c8956a69060ff16611feb5780835260066020526040832082845260205260408320600160ff198254161790557f2f8788117e7eff1d82e926ec794901d17c78024a50270940304540a733656f0d339380a4600190565b505090565b905f918083526006602052604083209160018060a01b03169182845260205260ff604084205416155f14611feb5780835260066020526040832082845260205260408320600160ff198254161790557f2f8788117e7eff1d82e926ec794901d17c78024a50270940304540a733656f0d339380a4600190565b6001600160a01b03165f8181527f3195c024b2ddd6d9b8f6c836aa52f67fe69376c8903d009b80229b3ce4425f5160205260408120549091907f9f2df0fed2c77648de5860a4cc508cd0818c85b8b8a1ab4ceeef8d981c8956a69060ff1615611feb578083526006602052604083208284526020526040832060ff1981541690557ff6391f5c32d9c69d2a47ea670b442974b53935d1edc7fd64eb21e047a839171b339380a4600190565b905f918083526006602052604083209160018060a01b03169182845260205260ff6040842054165f14611feb578083526006602052604083208284526020526040832060ff1981541690557ff6391f5c32d9c69d2a47ea670b442974b53935d1edc7fd64eb21e047a839171b339380a4600190565b6001600160a01b031680156121a7575f52600360205260405f205490565b6040516322718ad960e21b81525f6004820152602490fd5b91906001600160a01b0390818116156118a1576121df829184339161252a565b93169216908282036121f057505050565b60649350604051926364283d7b60e01b8452600484015260248301526044820152fd5b5f818152600260205260409020546001600160a01b0316908115610dd9575090565b90939192833b612247575b5050505050565b604051630a85bd0160e11b8082526001600160a01b039384166004830152958316602482015260448101919091526080606482015294921692602092918590612294906084830190611c28565b039483815f978189895af186918161233d575b50612307575050503d5f146122fe573d6122c081611cc0565b906122ce6040519283611c9f565b81528093823d92013e5b825192836122f957604051633250574960e11b815260048101849052602490fd5b019050fd5b606092506122d8565b919450915063ffffffff60e01b160361232557505f80808080612240565b60249060405190633250574960e11b82526004820152fd5b9091508481813d831161237a575b6123558183611c9f565b8101031261237657516001600160e01b03198116810361237657905f6122a7565b8680fd5b503d61234b565b5f19811461076e5760010190565b805490680100000000000000008210156107965760018201808255821015610782575f5260205f200155565b5f908152600260205260408120546001600160a01b039081161561248557600860205260408220604051916123ef83611c4d565b6123f882611e02565b835261240660018301611e02565b60208401526002820154166040830152600381015460608301526004810154916080810192835261243960058301611e02565b60a082015260e061245d600760ff6006860154169460c08501951515865201611e02565b910152516124855751801515908161247b575b50611d2c5750600190565b905042115f612470565b5090565b6001600160401b0381116107965760051b60200190565b80518210156107825760209160051b010190565b90805f52600260205260018060a01b038060405f205416156124f2578216156124e95760405163f6d0f92f60e01b8152600490fd5b611d2c91612573565b50611d2c91612573565b5f818152600260205260409020546001600160a01b03161561252157611d2c9061262a565b611d2c9061262a565b9190805f52600260205260018060a01b038060405f20541615612569578316156125605760405163f6d0f92f60e01b8152600490fd5b611d2c926126bc565b50611d2c926126bc565b5f828152600260205260408120546001600160a01b03908116939284917fddf252ad1be2c89b69c2b068fc378daa952ba7f163c4a11628f55a4df523b3ef91836125f9575b1692836125e1575b84815260026020526040812080546001600160a01b0319168517905580a490565b838152600360205260408120600181540190556125c0565b6004602052604085206001600160601b0360a01b81541690558385526003602052604085205f1981540190556125b8565b5f818152600260205260408120546001600160a01b031691908261268b575b81815260026020526040812080546001600160a01b0319169055827fddf252ad1be2c89b69c2b068fc378daa952ba7f163c4a11628f55a4df523b3ef8280a490565b6004602052604081206001600160601b0360a01b81541690558281526003602052604081205f198154019055612649565b915f928284526020916002835260018060a01b0394604086808284205416978894168015158061277c575b505060029084957fddf252ad1be2c89b69c2b068fc378daa952ba7f163c4a11628f55a4df523b3ef9561274e575b169586612738575b87845252812080546001600160a01b0319168517905580a490565b868452600381528284206001815401905561271d565b8885526004885283852080546001600160a01b03191690558685526003885283852080545f19019055612715565b93959294509092806127d8575b1561279a57918288949295936126e7565b86849189155f146127bc57506024915190637e27328960e01b82526004820152fd5b90604492519163177e802f60e01b835260048301526024820152fd5b5080881480156127fd575b806127895750868552600486528083858720541614612789565b5087855260058652838520818652865260ff84862054166127e3565b805f917a184f03e93ff9f4daa797ed6e38ed64bf6a1f01000000000000000080821015612971575b506d04ee2d6d415b85acef810000000080831015612962575b50662386f26fc1000080831015612953575b506305f5e10080831015612944575b5061271080831015612935575b506064821015612925575b600a8092101561291b575b600190816021818601956128b187611cc0565b966128bf6040519889611c9f565b8088526128ce601f1991611cc0565b01366020890137860101905b6128e6575b5050505090565b5f19019083906f181899199a1a9b1b9c1cb0b131b232b360811b8282061a835304918215612916579190826128da565b6128df565b916001019161289e565b9190606460029104910191612893565b6004919392049101915f612888565b6008919392049101915f61287b565b6010919392049101915f61286c565b6020919392049101915f61285a565b60409350810491505f61284156fea264697066735822122096cc58461b4ff130172cade162643959bdca2cc4035d14210d847228fdf7003d64736f6c634300081400332f8788117e7eff1d82e926ec794901d17c78024a50270940304540a733656f0d","opcodes":"PUSH1 0x80 CALLVALUE PUSH3 0x341 JUMPI PUSH1 0x1 PUSH1 0x1 PUSH1 0x40 SHL SUB SWAP1 PUSH1 0x40 SWAP1 DUP1 DUP3 ADD DUP4 DUP2 GT DUP3 DUP3 LT OR PUSH3 0x32D JUMPI DUP3 MSTORE PUSH1 0x14 DUP2 MSTORE PUSH1 0x20 SWAP3 PUSH32 0x496E7472616E3374204163636573732050617373000000000000000000000000 DUP5 DUP4 ADD MSTORE DUP3 MLOAD DUP4 DUP2 ADD DUP2 DUP2 LT DUP4 DUP3 GT OR PUSH3 0x32D JUMPI DUP5 MSTORE PUSH1 0x4 DUP2 MSTORE PUSH4 0x49414343 PUSH1 0xE0 SHL DUP6 DUP3 ADD MSTORE DUP3 MLOAD SWAP1 DUP3 DUP3 GT PUSH3 0x32D JUMPI PUSH0 DUP1 SLOAD SWAP3 PUSH1 0x1 SWAP6 DUP7 DUP6 DUP2 SHR SWAP6 AND DUP1 ISZERO PUSH3 0x322 JUMPI JUMPDEST DUP10 DUP7 LT EQ PUSH3 0x30E JUMPI DUP2 SWAP1 PUSH1 0x1F SWAP6 DUP7 DUP2 GT PUSH3 0x2BB JUMPI JUMPDEST POP DUP10 SWAP1 DUP7 DUP4 GT PUSH1 0x1 EQ PUSH3 0x258 JUMPI DUP5 SWAP3 PUSH3 0x24C JUMPI JUMPDEST POP POP PUSH0 NOT PUSH1 0x3 DUP4 SWAP1 SHL SHR NOT AND SWAP1 DUP7 SHL OR DUP2 SSTORE JUMPDEST DUP2 MLOAD SWAP4 DUP5 GT PUSH3 0x238 JUMPI DUP5 SLOAD DUP6 DUP2 DUP2 SHR SWAP2 AND DUP1 ISZERO PUSH3 0x22D JUMPI JUMPDEST DUP9 DUP3 LT EQ PUSH3 0x219 JUMPI DUP4 DUP2 GT PUSH3 0x1D1 JUMPI JUMPDEST POP DUP7 SWAP3 DUP5 GT PUSH1 0x1 EQ PUSH3 0x16C JUMPI DUP4 SWAP5 SWAP6 SWAP7 POP SWAP3 PUSH3 0x160 JUMPI JUMPDEST POP POP PUSH0 NOT PUSH1 0x3 DUP4 SWAP1 SHL SHR NOT AND SWAP1 DUP3 SHL OR DUP2 SSTORE JUMPDEST PUSH3 0x136 CALLER PUSH3 0x345 JUMP JUMPDEST POP PUSH3 0x142 CALLER PUSH3 0x3C4 JUMP JUMPDEST POP PUSH3 0x14E CALLER PUSH3 0x465 JUMP JUMPDEST POP PUSH1 0x7 SSTORE MLOAD PUSH2 0x29B5 SWAP1 DUP2 PUSH3 0x502 DUP3 CODECOPY RETURN JUMPDEST ADD MLOAD SWAP1 POP PUSH0 DUP1 PUSH3 0x118 JUMP JUMPDEST SWAP2 SWAP1 PUSH1 0x1F NOT DUP5 AND SWAP7 DUP6 DUP5 MSTORE DUP1 DUP5 KECCAK256 SWAP4 SWAP1 JUMPDEST DUP9 DUP3 LT PUSH3 0x1B9 JUMPI POP POP DUP4 DUP6 SWAP7 SWAP8 LT PUSH3 0x1A0 JUMPI JUMPDEST POP POP POP DUP2 SHL ADD DUP2 SSTORE PUSH3 0x12B JUMP JUMPDEST ADD MLOAD PUSH0 NOT PUSH1 0xF8 DUP5 PUSH1 0x3 SHL AND SHR NOT AND SWAP1 SSTORE PUSH0 DUP1 DUP1 PUSH3 0x192 JUMP JUMPDEST DUP1 DUP8 DUP6 SWAP7 DUP3 SWAP5 SWAP7 DUP7 ADD MLOAD DUP2 SSTORE ADD SWAP6 ADD SWAP4 ADD SWAP1 PUSH3 0x17D JUMP JUMPDEST DUP6 DUP3 MSTORE DUP8 DUP3 KECCAK256 DUP5 DUP1 DUP8 ADD PUSH1 0x5 SHR DUP3 ADD SWAP3 DUP11 DUP9 LT PUSH3 0x20F JUMPI JUMPDEST ADD PUSH1 0x5 SHR ADD SWAP1 DUP7 SWAP1 JUMPDEST DUP3 DUP2 LT PUSH3 0x203 JUMPI POP POP PUSH3 0xFF JUMP JUMPDEST DUP4 DUP2 SSTORE ADD DUP7 SWAP1 PUSH3 0x1F3 JUMP JUMPDEST SWAP3 POP DUP2 SWAP3 PUSH3 0x1EA JUMP JUMPDEST PUSH4 0x4E487B71 PUSH1 0xE0 SHL DUP3 MSTORE PUSH1 0x22 PUSH1 0x4 MSTORE PUSH1 0x24 DUP3 REVERT JUMPDEST SWAP1 PUSH1 0x7F AND SWAP1 PUSH3 0xED JUMP JUMPDEST PUSH4 0x4E487B71 PUSH1 0xE0 SHL DUP2 MSTORE PUSH1 0x41 PUSH1 0x4 MSTORE PUSH1 0x24 SWAP1 REVERT JUMPDEST ADD MLOAD SWAP1 POP PUSH0 DUP1 PUSH3 0xC0 JUMP JUMPDEST DUP5 DUP1 MSTORE DUP11 DUP6 KECCAK256 DUP10 SWAP5 POP SWAP2 SWAP1 PUSH1 0x1F NOT DUP5 AND DUP7 JUMPDEST DUP14 DUP3 DUP3 LT PUSH3 0x2A4 JUMPI POP POP DUP5 GT PUSH3 0x28B JUMPI JUMPDEST POP POP POP DUP2 SHL ADD DUP2 SSTORE PUSH3 0xD3 JUMP JUMPDEST ADD MLOAD PUSH0 NOT PUSH1 0xF8 DUP5 PUSH1 0x3 SHL AND SHR NOT AND SWAP1 SSTORE PUSH0 DUP1 DUP1 PUSH3 0x27D JUMP JUMPDEST DUP4 DUP6 ADD MLOAD DUP7 SSTORE DUP13 SWAP8 SWAP1 SWAP6 ADD SWAP5 SWAP4 DUP5 ADD SWAP4 ADD PUSH3 0x26A JUMP JUMPDEST SWAP1 SWAP2 POP DUP4 DUP1 MSTORE DUP10 DUP5 KECCAK256 DUP7 DUP1 DUP6 ADD PUSH1 0x5 SHR DUP3 ADD SWAP3 DUP13 DUP7 LT PUSH3 0x304 JUMPI JUMPDEST SWAP2 DUP11 SWAP2 DUP7 SWAP6 SWAP5 SWAP4 ADD PUSH1 0x5 SHR ADD SWAP2 JUMPDEST DUP3 DUP2 LT PUSH3 0x2F5 JUMPI POP POP PUSH3 0xAA JUMP JUMPDEST DUP7 DUP2 SSTORE DUP6 SWAP5 POP DUP11 SWAP2 ADD PUSH3 0x2E5 JUMP JUMPDEST SWAP3 POP DUP2 SWAP3 PUSH3 0x2D7 JUMP JUMPDEST PUSH4 0x4E487B71 PUSH1 0xE0 SHL DUP4 MSTORE PUSH1 0x22 PUSH1 0x4 MSTORE PUSH1 0x24 DUP4 REVERT JUMPDEST SWAP5 PUSH1 0x7F AND SWAP5 PUSH3 0x93 JUMP JUMPDEST PUSH4 0x4E487B71 PUSH1 0xE0 SHL PUSH0 MSTORE PUSH1 0x41 PUSH1 0x4 MSTORE PUSH1 0x24 PUSH0 REVERT JUMPDEST PUSH0 DUP1 REVERT JUMPDEST PUSH1 0x1 PUSH1 0x1 PUSH1 0xA0 SHL SUB AND PUSH0 DUP2 DUP2 MSTORE PUSH32 0x54CDD369E4E8A8515E52CA72EC816C2101831AD1F18BF44102ED171459C9B4F8 PUSH1 0x20 MSTORE PUSH1 0x40 DUP2 KECCAK256 SLOAD SWAP1 SWAP2 SWAP1 PUSH1 0xFF AND PUSH3 0x3C0 JUMPI DUP2 DUP1 MSTORE PUSH1 0x6 PUSH1 0x20 MSTORE PUSH1 0x40 DUP3 KECCAK256 DUP2 DUP4 MSTORE PUSH1 0x20 MSTORE PUSH1 0x40 DUP3 KECCAK256 PUSH1 0x1 PUSH1 0xFF NOT DUP3 SLOAD AND OR SWAP1 SSTORE CALLER SWAP2 PUSH0 DUP1 MLOAD PUSH1 0x20 PUSH3 0x2EB7 DUP4 CODECOPY DUP2 MLOAD SWAP2 MSTORE DUP2 DUP1 LOG4 PUSH1 0x1 SWAP1 JUMP JUMPDEST POP SWAP1 JUMP JUMPDEST PUSH1 0x1 PUSH1 0x1 PUSH1 0xA0 SHL SUB AND PUSH0 DUP2 DUP2 MSTORE PUSH32 0xC3BB05773FB95F6688E1E7D9C896674DCCD66884026CF30A3D5E3A9BFECD811 PUSH1 0x20 MSTORE PUSH1 0x40 DUP2 KECCAK256 SLOAD SWAP1 SWAP2 SWAP1 PUSH32 0xA49807205CE4D355092EF5A8A18F56E8913CF4A201FBE287825B095693C21775 SWAP1 PUSH1 0xFF AND PUSH3 0x460 JUMPI DUP1 DUP4 MSTORE PUSH1 0x6 PUSH1 0x20 MSTORE PUSH1 0x40 DUP4 KECCAK256 DUP3 DUP5 MSTORE PUSH1 0x20 MSTORE PUSH1 0x40 DUP4 KECCAK256 PUSH1 0x1 PUSH1 0xFF NOT DUP3 SLOAD AND OR SWAP1 SSTORE PUSH0 DUP1 MLOAD PUSH1 0x20 PUSH3 0x2EB7 DUP4 CODECOPY DUP2 MLOAD SWAP2 MSTORE CALLER SWAP4 DUP1 LOG4 PUSH1 0x1 SWAP1 JUMP JUMPDEST POP POP SWAP1 JUMP JUMPDEST PUSH1 0x1 PUSH1 0x1 PUSH1 0xA0 SHL SUB AND PUSH0 DUP2 DUP2 MSTORE PUSH32 0x3195C024B2DDD6D9B8F6C836AA52F67FE69376C8903D009B80229B3CE4425F51 PUSH1 0x20 MSTORE PUSH1 0x40 DUP2 KECCAK256 SLOAD SWAP1 SWAP2 SWAP1 PUSH32 0x9F2DF0FED2C77648DE5860A4CC508CD0818C85B8B8A1AB4CEEEF8D981C8956A6 SWAP1 PUSH1 0xFF AND PUSH3 0x460 JUMPI DUP1 DUP4 MSTORE PUSH1 0x6 PUSH1 0x20 MSTORE PUSH1 0x40 DUP4 KECCAK256 DUP3 DUP5 MSTORE PUSH1 0x20 MSTORE PUSH1 0x40 DUP4 KECCAK256 PUSH1 0x1 PUSH1 0xFF NOT DUP3 SLOAD AND OR SWAP1 SSTORE PUSH0 DUP1 MLOAD PUSH1 0x20 PUSH3 0x2EB7 DUP4 CODECOPY DUP2 MLOAD SWAP2 MSTORE CALLER SWAP4 DUP1 LOG4 PUSH1 0x1 SWAP1 JUMP INVALID PUSH1 0x80 DUP1 PUSH1 0x40 MSTORE PUSH1 0x4 CALLDATASIZE LT ISZERO PUSH2 0x12 JUMPI PUSH0 DUP1 REVERT JUMPDEST PUSH0 CALLDATALOAD PUSH1 0xE0 SHR SWAP1 DUP2 PUSH4 0x1FFC9A7 EQ PUSH2 0x1B82 JUMPI POP DUP1 PUSH4 0x6FDDE03 EQ PUSH2 0x1AE2 JUMPI DUP1 PUSH4 0x81812FC EQ PUSH2 0x1AA6 JUMPI DUP1 PUSH4 0x8DF6328 EQ PUSH2 0x1A02 JUMPI DUP1 PUSH4 0x95EA7B3 EQ PUSH2 0x1921 JUMPI DUP1 PUSH4 0x14E2E8D7 EQ PUSH2 0x104D JUMPI DUP1 PUSH4 0x23B872DD EQ PUSH2 0x1036 JUMPI DUP1 PUSH4 0x248A9CA3 EQ PUSH2 0x1009 JUMPI DUP1 PUSH4 0x279967F5 EQ PUSH2 0xEF3 JUMPI DUP1 PUSH4 0x2F2FF15D EQ PUSH2 0xEB6 JUMPI DUP1 PUSH4 0x36568ABE EQ PUSH2 0xE6F JUMPI DUP1 PUSH4 0x3DD1EB61 EQ PUSH2 0xE46 JUMPI DUP1 PUSH4 0x42842E0E EQ PUSH2 0xE19 JUMPI DUP1 PUSH4 0x48C6195D EQ PUSH2 0xDF1 JUMPI DUP1 PUSH4 0x519DB6C5 EQ PUSH2 0xD47 JUMPI DUP1 PUSH4 0x6352211E EQ PUSH2 0xD17 JUMPI DUP1 PUSH4 0x69E2F0FB EQ PUSH2 0xCEE JUMPI DUP1 PUSH4 0x70A08231 EQ PUSH2 0xCC3 JUMPI DUP1 PUSH4 0x75B238FC EQ PUSH2 0xC89 JUMPI DUP1 PUSH4 0x7A5BB4B6 EQ PUSH2 0xB0C JUMPI DUP1 PUSH4 0x91D14854 EQ PUSH2 0xAC3 JUMPI DUP1 PUSH4 0x95D89B41 EQ PUSH2 0x9E7 JUMPI DUP1 PUSH4 0x9BA9B29D EQ PUSH2 0x914 JUMPI DUP1 PUSH4 0xA217FDDF EQ PUSH2 0x8FA JUMPI DUP1 PUSH4 0xA22CB465 EQ PUSH2 0x850 JUMPI DUP1 PUSH4 0xA2309FF8 EQ PUSH2 0x827 JUMPI DUP1 PUSH4 0xB88D4FDE EQ PUSH2 0x7BC JUMPI DUP1 PUSH4 0xC87B56DD EQ PUSH2 0x240 JUMPI DUP1 PUSH4 0xD5391393 EQ PUSH2 0x206 JUMPI DUP1 PUSH4 0xD547741F EQ PUSH2 0x1C7 JUMPI PUSH4 0xE985E9C5 EQ PUSH2 0x171 JUMPI PUSH0 DUP1 REVERT JUMPDEST CALLVALUE PUSH2 0x1C3 JUMPI PUSH1 0x40 CALLDATASIZE PUSH1 0x3 NOT ADD SLT PUSH2 0x1C3 JUMPI PUSH2 0x18A PUSH2 0x1D69 JUMP JUMPDEST PUSH2 0x192 PUSH2 0x1D7F JUMP JUMPDEST SWAP1 PUSH1 0x1 DUP1 PUSH1 0xA0 SHL SUB DUP1 SWAP2 AND PUSH0 MSTORE PUSH1 0x5 PUSH1 0x20 MSTORE PUSH1 0x40 PUSH0 KECCAK256 SWAP2 AND PUSH0 MSTORE PUSH1 0x20 MSTORE PUSH1 0x20 PUSH1 0xFF PUSH1 0x40 PUSH0 KECCAK256 SLOAD AND PUSH1 0x40 MLOAD SWAP1 ISZERO ISZERO DUP2 MSTORE RETURN JUMPDEST PUSH0 DUP1 REVERT JUMPDEST CALLVALUE PUSH2 0x1C3 JUMPI PUSH1 0x40 CALLDATASIZE PUSH1 0x3 NOT ADD SLT PUSH2 0x1C3 JUMPI PUSH2 0x204 PUSH1 0x4 CALLDATALOAD PUSH2 0x1E6 PUSH2 0x1D7F JUMP JUMPDEST SWAP1 DUP1 PUSH0 MSTORE PUSH1 0x6 PUSH1 0x20 MSTORE PUSH2 0x1FF PUSH1 0x1 PUSH1 0x40 PUSH0 KECCAK256 ADD SLOAD PUSH2 0x1F1C JUMP JUMPDEST PUSH2 0x2114 JUMP JUMPDEST STOP JUMPDEST CALLVALUE PUSH2 0x1C3 JUMPI PUSH0 CALLDATASIZE PUSH1 0x3 NOT ADD SLT PUSH2 0x1C3 JUMPI PUSH1 0x20 PUSH1 0x40 MLOAD PUSH32 0x9F2DF0FED2C77648DE5860A4CC508CD0818C85B8B8A1AB4CEEEF8D981C8956A6 DUP2 MSTORE RETURN JUMPDEST CALLVALUE PUSH2 0x1C3 JUMPI PUSH1 0x20 DUP1 PUSH1 0x3 NOT CALLDATASIZE ADD SLT PUSH2 0x1C3 JUMPI PUSH1 0x4 CALLDATALOAD SWAP1 DUP2 PUSH0 MSTORE PUSH1 0x2 DUP2 MSTORE PUSH1 0x1 DUP1 PUSH1 0xA0 SHL SUB DUP1 PUSH1 0x40 PUSH0 KECCAK256 SLOAD AND ISZERO PUSH2 0x7AA JUMPI DUP3 PUSH0 MSTORE PUSH1 0x8 DUP3 MSTORE PUSH1 0x40 PUSH0 KECCAK256 PUSH1 0x40 MLOAD SWAP4 PUSH2 0x288 DUP6 PUSH2 0x1C4D JUMP JUMPDEST PUSH2 0x291 DUP3 PUSH2 0x1E02 JUMP JUMPDEST DUP6 MSTORE DUP5 PUSH1 0x1 SWAP2 PUSH2 0x2A2 DUP4 DUP6 ADD PUSH2 0x1E02 JUMP JUMPDEST DUP7 DUP4 ADD MSTORE DUP5 PUSH1 0x2 DUP6 ADD SLOAD AND PUSH1 0x40 DUP4 ADD SWAP1 DUP2 MSTORE PUSH1 0x3 DUP6 ADD SLOAD SWAP6 PUSH1 0x60 DUP5 ADD SWAP7 DUP8 MSTORE PUSH2 0x30B PUSH1 0x4 DUP8 ADD SLOAD SWAP4 PUSH1 0x80 DUP7 ADD SWAP5 DUP6 MSTORE PUSH2 0x301 PUSH1 0x7 PUSH2 0x2E2 PUSH1 0x5 DUP12 ADD PUSH2 0x1E02 JUMP JUMPDEST SWAP10 PUSH1 0xA0 DUP10 ADD SWAP11 DUP12 MSTORE PUSH1 0xC0 PUSH1 0xFF PUSH1 0x6 DUP4 ADD SLOAD AND SWAP10 ADD SWAP9 ISZERO ISZERO DUP10 MSTORE ADD PUSH2 0x1E02 JUMP JUMPDEST PUSH1 0xE0 DUP13 ADD MSTORE PUSH2 0x2819 JUMP JUMPDEST SWAP9 MLOAD SWAP6 MLOAD SWAP2 MLOAD AND SWAP6 DUP7 PUSH1 0x40 MLOAD SWAP8 PUSH1 0x60 DUP10 ADD DUP10 DUP2 LT PUSH1 0x1 PUSH1 0x1 PUSH1 0x40 SHL SUB DUP3 GT OR PUSH2 0x796 JUMPI PUSH1 0x40 MSTORE PUSH1 0x2A DUP10 MSTORE DUP10 DUP10 ADD SWAP7 PUSH1 0x40 CALLDATASIZE DUP10 CALLDATACOPY DUP10 MLOAD ISZERO PUSH2 0x782 JUMPI PUSH1 0x30 DUP9 MSTORE8 DUP10 MLOAD DUP2 LT ISZERO PUSH2 0x782 JUMPI PUSH1 0x78 PUSH1 0x21 DUP12 ADD MSTORE8 PUSH1 0x29 SWAP1 JUMPDEST DUP1 DUP3 GT PUSH2 0x727 JUMPI POP POP PUSH2 0x708 JUMPI POP PUSH2 0x378 PUSH2 0x37F SWAP2 MLOAD PUSH2 0x2819 JUMP JUMPDEST SWAP3 MLOAD PUSH2 0x2819 JUMP JUMPDEST SWAP3 MLOAD ISZERO PUSH2 0x6E3 JUMPI PUSH1 0x40 MLOAD PUSH2 0x392 DUP2 PUSH2 0x1C84 JUMP JUMPDEST PUSH1 0x6 DUP2 MSTORE PUSH6 0x113A393AB291 PUSH1 0xD1 SHL DUP9 DUP3 ADD MSTORE SWAP4 JUMPDEST PUSH1 0x40 MLOAD SWAP7 DUP8 SWAP7 DUP10 DUP9 ADD SWAP11 PUSH32 0x7B226E616D65223A202241636365737320506173732023000000000000000000 DUP13 MSTORE DUP1 MLOAD SWAP1 DUP2 DUP13 PUSH1 0x37 DUP13 ADD SWAP3 ADD SWAP2 PUSH2 0x3E8 SWAP3 PUSH2 0x1C07 JUMP JUMPDEST PUSH32 0x222C20226465736372697074696F6E223A2022496E7472616E33742041636365 PUSH1 0x37 SWAP2 DUP11 ADD SWAP2 DUP3 ADD MSTORE PUSH12 0x39B9902830B9B9903337B91 PUSH1 0xA5 SHL PUSH1 0x57 DUP3 ADD MSTORE DUP2 MLOAD DUP12 DUP4 ADD SWAP3 SWAP2 PUSH2 0x43C DUP3 PUSH1 0x63 DUP4 ADD DUP7 PUSH2 0x1C07 JUMP JUMPDEST ADD SWAP1 PUSH18 0x222C202261747472696275746573223A205B PUSH1 0x70 SHL PUSH1 0x63 DUP4 ADD MSTORE PUSH1 0x75 DUP3 ADD PUSH32 0x7B2274726169745F74797065223A20224C6F636174696F6E222C202276616C75 SWAP1 MSTORE PUSH5 0x32911D1011 PUSH1 0xD9 SHL PUSH1 0x95 DUP4 ADD MSTORE MLOAD SWAP2 DUP3 PUSH1 0x9A DUP4 ADD PUSH2 0x49E SWAP3 PUSH2 0x1C07 JUMP JUMPDEST ADD SWAP3 PUSH3 0x89F4B PUSH1 0xEA SHL SWAP4 DUP5 PUSH1 0x9A DUP3 ADD MSTORE PUSH1 0x9D DUP2 ADD PUSH32 0x7B2274726169745F74797065223A2022416363657373204C6576656C222C2022 SWAP1 MSTORE PUSH9 0x3B30B63AB2911D1011 PUSH1 0xB9 SHL PUSH1 0xBD DUP3 ADD MSTORE DUP2 MLOAD SWAP2 DUP3 DUP13 PUSH1 0xC6 DUP5 ADD SWAP3 ADD SWAP2 PUSH2 0x4FC SWAP3 PUSH2 0x1C07 JUMP JUMPDEST ADD SWAP1 DUP4 PUSH1 0xC6 DUP4 ADD MSTORE PUSH1 0xC9 DUP3 ADD PUSH32 0x7B2274726169745F74797065223A2022486F6C646572222C202276616C756522 SWAP1 MSTORE PUSH3 0x1D1011 PUSH1 0xE9 SHL PUSH1 0xE9 DUP4 ADD MSTORE MLOAD SWAP2 DUP3 PUSH1 0xEC DUP4 ADD PUSH2 0x547 SWAP3 PUSH2 0x1C07 JUMP JUMPDEST ADD SWAP1 PUSH1 0xEC DUP3 ADD MSTORE PUSH1 0xEF DUP2 ADD PUSH32 0x7B2274726169745F74797065223A2022497373756564204174222C202276616C SWAP1 MSTORE PUSH5 0x3AB2911D1 PUSH1 0xDD SHL PUSH2 0x10F DUP3 ADD MSTORE DUP2 MLOAD SWAP1 PUSH2 0x114 SWAP3 DUP3 DUP10 DUP6 DUP5 ADD SWAP3 ADD SWAP2 PUSH2 0x59C SWAP3 PUSH2 0x1C07 JUMP JUMPDEST ADD PUSH2 0x1F4B PUSH1 0xF2 SHL DUP1 SWAP3 DUP3 ADD MSTORE PUSH2 0x116 DUP2 ADD PUSH32 0x7B2274726169745F74797065223A202245787069726573204174222C20227661 SWAP1 MSTORE PUSH6 0x363AB2911D1 PUSH1 0xD5 SHL PUSH2 0x136 DUP3 ADD MSTORE DUP3 MLOAD SWAP1 PUSH2 0x13C SWAP4 DUP3 DUP10 DUP7 DUP5 ADD SWAP3 ADD SWAP2 PUSH2 0x5F8 SWAP3 PUSH2 0x1C07 JUMP JUMPDEST ADD SWAP2 DUP3 ADD MSTORE PUSH32 0x7B2274726169745F74797065223A20225265766F6B6564222C202276616C7565 PUSH2 0x13E DUP3 ADD MSTORE PUSH3 0x111D1 PUSH1 0xED SHL PUSH2 0x15E DUP3 ADD MSTORE DUP2 MLOAD PUSH2 0x161 SWAP3 SWAP1 SWAP2 SWAP1 PUSH2 0x64B SWAP1 DUP4 SWAP1 DUP6 DUP5 ADD SWAP1 DUP10 ADD PUSH2 0x1C07 JUMP JUMPDEST ADD SWAP1 DUP2 ADD PUSH1 0x7D PUSH1 0xF8 SHL SWAP1 MSTORE PUSH2 0x162 DUP2 ADD PUSH2 0x5D7D PUSH1 0xF0 SHL SWAP1 MSTORE SUB PUSH2 0x144 DUP2 ADD DUP3 MSTORE PUSH2 0x164 ADD PUSH2 0x679 SWAP1 DUP3 PUSH2 0x1C9F JUMP JUMPDEST PUSH1 0x40 MLOAD SWAP3 DUP4 SWAP2 DUP4 DUP4 ADD PUSH32 0x646174613A6170706C69636174696F6E2F6A736F6E3B757466382C0000000000 SWAP1 MSTORE MLOAD SWAP1 DUP2 PUSH1 0x3B DUP5 ADD PUSH2 0x6B5 SWAP3 PUSH2 0x1C07 JUMP JUMPDEST DUP2 ADD SUB PUSH1 0x1B DUP2 ADD DUP4 MSTORE PUSH1 0x3B ADD PUSH2 0x6CB SWAP1 DUP4 PUSH2 0x1C9F JUMP JUMPDEST PUSH1 0x40 MLOAD SWAP2 DUP2 DUP4 SWAP3 DUP4 MSTORE DUP3 ADD PUSH2 0x6DF SWAP2 PUSH2 0x1C28 JUMP JUMPDEST SUB SWAP1 RETURN JUMPDEST PUSH1 0x40 MLOAD PUSH2 0x6EF DUP2 PUSH2 0x1C84 JUMP JUMPDEST PUSH1 0x7 DUP2 MSTORE PUSH7 0x113330B639B291 PUSH1 0xC9 SHL DUP9 DUP3 ADD MSTORE SWAP4 PUSH2 0x3A6 JUMP JUMPDEST PUSH1 0x44 SWAP1 PUSH1 0x40 MLOAD SWAP1 PUSH4 0xE22E27EB PUSH1 0xE0 SHL DUP3 MSTORE PUSH1 0x4 DUP3 ADD MSTORE PUSH1 0x14 PUSH1 0x24 DUP3 ADD MSTORE REVERT JUMPDEST SWAP1 SWAP2 PUSH1 0xF DUP2 AND PUSH1 0x10 DUP2 LT ISZERO PUSH2 0x782 JUMPI DUP12 MLOAD DUP5 LT ISZERO PUSH2 0x782 JUMPI PUSH16 0x181899199A1A9B1B9C1CB0B131B232B3 PUSH1 0x81 SHL SWAP1 BYTE DUP12 DUP5 ADD DUP14 ADD MSTORE8 PUSH1 0x4 SHR SWAP2 DUP1 ISZERO PUSH2 0x76E JUMPI PUSH0 NOT ADD SWAP1 PUSH2 0x35D JUMP JUMPDEST PUSH4 0x4E487B71 PUSH1 0xE0 SHL PUSH0 MSTORE PUSH1 0x11 PUSH1 0x4 MSTORE PUSH1 0x24 PUSH0 REVERT JUMPDEST PUSH4 0x4E487B71 PUSH1 0xE0 SHL PUSH0 MSTORE PUSH1 0x32 PUSH1 0x4 MSTORE PUSH1 0x24 PUSH0 REVERT JUMPDEST PUSH4 0x4E487B71 PUSH1 0xE0 SHL PUSH0 MSTORE PUSH1 0x41 PUSH1 0x4 MSTORE PUSH1 0x24 PUSH0 REVERT JUMPDEST PUSH1 0x40 MLOAD PUSH4 0x28E6DBB1 PUSH1 0xE0 SHL DUP2 MSTORE PUSH1 0x4 SWAP1 REVERT JUMPDEST CALLVALUE PUSH2 0x1C3 JUMPI PUSH1 0x80 CALLDATASIZE PUSH1 0x3 NOT ADD SLT PUSH2 0x1C3 JUMPI PUSH2 0x7D5 PUSH2 0x1D69 JUMP JUMPDEST PUSH2 0x7DD PUSH2 0x1D7F JUMP JUMPDEST SWAP1 PUSH1 0x44 CALLDATALOAD PUSH1 0x64 CALLDATALOAD SWAP3 PUSH1 0x1 PUSH1 0x1 PUSH1 0x40 SHL SUB DUP5 GT PUSH2 0x1C3 JUMPI CALLDATASIZE PUSH1 0x23 DUP6 ADD SLT ISZERO PUSH2 0x1C3 JUMPI PUSH2 0x815 PUSH2 0x204 SWAP5 CALLDATASIZE SWAP1 PUSH1 0x24 DUP2 PUSH1 0x4 ADD CALLDATALOAD SWAP2 ADD PUSH2 0x1CDB JUMP JUMPDEST SWAP3 PUSH2 0x821 DUP4 DUP4 DUP4 PUSH2 0x21BF JUMP JUMPDEST CALLER PUSH2 0x2235 JUMP JUMPDEST CALLVALUE PUSH2 0x1C3 JUMPI PUSH0 CALLDATASIZE PUSH1 0x3 NOT ADD SLT PUSH2 0x1C3 JUMPI PUSH1 0x7 SLOAD PUSH0 NOT DUP2 ADD SWAP1 DUP2 GT PUSH2 0x76E JUMPI PUSH1 0x20 SWAP1 PUSH1 0x40 MLOAD SWAP1 DUP2 MSTORE RETURN JUMPDEST CALLVALUE PUSH2 0x1C3 JUMPI PUSH1 0x40 CALLDATASIZE PUSH1 0x3 NOT ADD SLT PUSH2 0x1C3 JUMPI PUSH2 0x869 PUSH2 0x1D69 JUMP JUMPDEST PUSH1 0x24 CALLDATALOAD SWAP1 DUP2 ISZERO ISZERO SWAP1 DUP2 DUP4 SUB PUSH2 0x1C3 JUMPI PUSH1 0x1 PUSH1 0x1 PUSH1 0xA0 SHL SUB AND SWAP2 DUP3 ISZERO PUSH2 0x8E1 JUMPI PUSH2 0x8B3 SWAP1 CALLER PUSH0 MSTORE PUSH1 0x5 PUSH1 0x20 MSTORE PUSH1 0x40 PUSH0 KECCAK256 DUP5 PUSH0 MSTORE PUSH1 0x20 MSTORE PUSH1 0x40 PUSH0 KECCAK256 SWAP1 PUSH1 0xFF DUP1 NOT DUP4 SLOAD AND SWAP2 ISZERO ISZERO AND OR SWAP1 SSTORE JUMP JUMPDEST PUSH1 0x40 MLOAD SWAP1 DUP2 MSTORE PUSH32 0x17307EAB39AB6107E8899845AD3D59BD9653F200F220920489CA2B5937696C31 PUSH1 0x20 CALLER SWAP3 LOG3 STOP JUMPDEST PUSH1 0x40 MLOAD PUSH4 0xB611743 PUSH1 0xE3 SHL DUP2 MSTORE PUSH1 0x4 DUP2 ADD DUP5 SWAP1 MSTORE PUSH1 0x24 SWAP1 REVERT JUMPDEST CALLVALUE PUSH2 0x1C3 JUMPI PUSH0 CALLDATASIZE PUSH1 0x3 NOT ADD SLT PUSH2 0x1C3 JUMPI PUSH1 0x20 PUSH1 0x40 MLOAD PUSH0 DUP2 MSTORE RETURN JUMPDEST CALLVALUE PUSH2 0x1C3 JUMPI PUSH1 0x20 CALLDATASIZE PUSH1 0x3 NOT ADD SLT PUSH2 0x1C3 JUMPI PUSH1 0x4 CALLDATALOAD PUSH0 MSTORE PUSH1 0x8 PUSH1 0x20 MSTORE PUSH2 0x9A7 PUSH1 0x40 PUSH0 KECCAK256 PUSH2 0x6DF PUSH2 0x942 DUP3 PUSH2 0x1E02 JUMP JUMPDEST SWAP2 PUSH2 0x94F PUSH1 0x1 DUP3 ADD PUSH2 0x1E02 JUMP JUMPDEST PUSH1 0x2 DUP3 ADD SLOAD PUSH1 0x3 DUP4 ADD SLOAD PUSH1 0x4 DUP5 ADD SLOAD PUSH2 0x9D2 SWAP3 PUSH1 0x1 PUSH1 0x1 PUSH1 0xA0 SHL SUB AND SWAP2 SWAP1 PUSH2 0x979 PUSH1 0x5 DUP8 ADD PUSH2 0x1E02 JUMP JUMPDEST SWAP2 PUSH2 0x9B5 PUSH2 0x991 PUSH1 0x7 PUSH1 0xFF PUSH1 0x6 DUP12 ADD SLOAD AND SWAP10 ADD PUSH2 0x1E02 JUMP JUMPDEST SWAP7 PUSH1 0x40 MLOAD SWAP12 DUP13 SWAP12 DUP13 PUSH2 0x100 DUP1 SWAP2 MSTORE DUP14 ADD SWAP1 PUSH2 0x1C28 JUMP JUMPDEST SWAP1 DUP12 DUP3 SUB PUSH1 0x20 DUP14 ADD MSTORE PUSH2 0x1C28 JUMP JUMPDEST SWAP4 PUSH1 0x40 DUP11 ADD MSTORE PUSH1 0x60 DUP10 ADD MSTORE PUSH1 0x80 DUP9 ADD MSTORE DUP7 DUP3 SUB PUSH1 0xA0 DUP9 ADD MSTORE PUSH2 0x1C28 JUMP JUMPDEST SWAP2 ISZERO ISZERO PUSH1 0xC0 DUP6 ADD MSTORE DUP4 DUP3 SUB PUSH1 0xE0 DUP6 ADD MSTORE PUSH2 0x1C28 JUMP JUMPDEST CALLVALUE PUSH2 0x1C3 JUMPI PUSH0 CALLDATASIZE PUSH1 0x3 NOT ADD SLT PUSH2 0x1C3 JUMPI PUSH1 0x40 MLOAD PUSH0 PUSH1 0x1 DUP1 SLOAD SWAP1 PUSH2 0xA09 DUP3 PUSH2 0x1DCA JUMP JUMPDEST DUP1 DUP6 MSTORE SWAP2 DUP2 DUP2 AND SWAP1 DUP2 ISZERO PUSH2 0xA9C JUMPI POP PUSH1 0x1 EQ PUSH2 0xA44 JUMPI JUMPDEST PUSH2 0x6DF DUP5 PUSH2 0xA30 DUP2 DUP7 SUB DUP3 PUSH2 0x1C9F JUMP JUMPDEST PUSH1 0x40 MLOAD SWAP2 DUP3 SWAP2 PUSH1 0x20 DUP4 MSTORE PUSH1 0x20 DUP4 ADD SWAP1 PUSH2 0x1C28 JUMP JUMPDEST PUSH0 DUP2 DUP2 MSTORE SWAP3 POP PUSH32 0xB10E2D527612073B26EECDFD717E6A320CF44B4AFAC2B0732D9FCBE2B7FA0CF6 JUMPDEST DUP3 DUP5 LT PUSH2 0xA84 JUMPI POP POP POP DUP2 ADD PUSH1 0x20 ADD PUSH2 0xA30 DUP3 PUSH2 0xA20 JUMP JUMPDEST DUP1 SLOAD PUSH1 0x20 DUP6 DUP8 ADD DUP2 ADD SWAP2 SWAP1 SWAP2 MSTORE SWAP1 SWAP4 ADD SWAP3 DUP2 ADD PUSH2 0xA6C JUMP JUMPDEST PUSH1 0xFF NOT AND PUSH1 0x20 DUP1 DUP8 ADD SWAP2 SWAP1 SWAP2 MSTORE SWAP3 ISZERO ISZERO PUSH1 0x5 SHL DUP6 ADD SWAP1 SWAP3 ADD SWAP3 POP PUSH2 0xA30 SWAP2 POP DUP4 SWAP1 POP PUSH2 0xA20 JUMP JUMPDEST CALLVALUE PUSH2 0x1C3 JUMPI PUSH1 0x40 CALLDATASIZE PUSH1 0x3 NOT ADD SLT PUSH2 0x1C3 JUMPI PUSH2 0xADC PUSH2 0x1D7F JUMP JUMPDEST PUSH1 0x4 CALLDATALOAD PUSH0 MSTORE PUSH1 0x6 PUSH1 0x20 MSTORE PUSH1 0x40 PUSH0 KECCAK256 SWAP1 PUSH1 0x1 DUP1 PUSH1 0xA0 SHL SUB AND PUSH0 MSTORE PUSH1 0x20 MSTORE PUSH1 0x20 PUSH1 0xFF PUSH1 0x40 PUSH0 KECCAK256 SLOAD AND PUSH1 0x40 MLOAD SWAP1 ISZERO ISZERO DUP2 MSTORE RETURN JUMPDEST CALLVALUE PUSH2 0x1C3 JUMPI PUSH1 0x20 DUP1 PUSH1 0x3 NOT CALLDATASIZE ADD SLT PUSH2 0x1C3 JUMPI PUSH1 0x4 CALLDATALOAD SWAP1 PUSH1 0xE0 PUSH1 0x40 MLOAD PUSH2 0xB30 DUP2 PUSH2 0x1C4D JUMP JUMPDEST PUSH1 0x60 SWAP2 DUP2 DUP4 DUP1 SWAP4 MSTORE DUP3 DUP6 DUP3 ADD MSTORE PUSH0 PUSH1 0x40 DUP3 ADD MSTORE PUSH0 DUP4 DUP3 ADD MSTORE PUSH0 PUSH1 0x80 DUP3 ADD MSTORE DUP3 PUSH1 0xA0 DUP3 ADD MSTORE PUSH0 PUSH1 0xC0 DUP3 ADD MSTORE ADD MSTORE DUP3 PUSH0 MSTORE PUSH1 0x2 DUP3 MSTORE PUSH1 0x1 DUP1 PUSH1 0xA0 SHL SUB SWAP3 DUP4 PUSH1 0x40 PUSH0 KECCAK256 SLOAD AND ISZERO PUSH2 0x7AA JUMPI PUSH0 MSTORE PUSH1 0x8 DUP3 MSTORE PUSH1 0x40 PUSH0 KECCAK256 PUSH1 0x40 MLOAD SWAP3 PUSH2 0xB8E DUP5 PUSH2 0x1C4D JUMP JUMPDEST PUSH2 0xB97 DUP3 PUSH2 0x1E02 JUMP JUMPDEST DUP5 MSTORE PUSH2 0xBA5 PUSH1 0x1 DUP4 ADD PUSH2 0x1E02 JUMP JUMPDEST SWAP3 DUP2 DUP6 ADD SWAP4 DUP5 MSTORE DUP6 PUSH1 0x2 DUP5 ADD SLOAD AND PUSH1 0x40 DUP7 ADD SWAP1 DUP2 MSTORE PUSH1 0x3 DUP5 ADD SLOAD DUP3 DUP8 ADD SWAP1 DUP2 MSTORE PUSH1 0x4 DUP6 ADD SLOAD PUSH1 0x80 DUP9 ADD SWAP1 DUP2 MSTORE PUSH1 0x5 DUP7 ADD PUSH2 0xBDE SWAP1 PUSH2 0x1E02 JUMP JUMPDEST SWAP2 PUSH1 0xA0 DUP10 ADD SWAP3 DUP4 MSTORE PUSH1 0x6 DUP8 ADD SLOAD PUSH1 0xFF AND SWAP7 PUSH1 0xC0 DUP11 ADD SWAP8 ISZERO ISZERO DUP9 MSTORE PUSH1 0x7 ADD PUSH2 0xC04 SWAP1 PUSH2 0x1E02 JUMP JUMPDEST SWAP5 PUSH1 0xE0 DUP11 ADD SWAP6 DUP7 MSTORE PUSH1 0x40 MLOAD SWAP11 DUP12 SWAP11 DUP9 DUP13 MSTORE MLOAD PUSH2 0x100 DUP1 SWAP10 DUP14 ADD MSTORE PUSH2 0x120 DUP13 ADD PUSH2 0xC2C SWAP2 PUSH2 0x1C28 JUMP JUMPDEST SWAP10 MLOAD PUSH1 0x1F NOT DUP13 DUP13 SUB DUP2 ADD PUSH1 0x40 DUP15 ADD MSTORE SWAP11 PUSH2 0xC45 SWAP2 PUSH2 0x1C28 JUMP JUMPDEST SWAP6 MLOAD AND SWAP1 DUP11 ADD MSTORE MLOAD PUSH1 0x80 DUP10 ADD MSTORE MLOAD PUSH1 0xA0 DUP9 ADD MSTORE MLOAD SWAP1 DUP6 DUP8 DUP3 SUB ADD PUSH1 0xC0 DUP9 ADD MSTORE PUSH2 0xC6D SWAP2 PUSH2 0x1C28 JUMP JUMPDEST SWAP3 MLOAD ISZERO ISZERO PUSH1 0xE0 DUP7 ADD MSTORE MLOAD SWAP3 DUP5 DUP4 SUB ADD SWAP1 DUP5 ADD MSTORE PUSH2 0x6DF SWAP2 PUSH2 0x1C28 JUMP JUMPDEST CALLVALUE PUSH2 0x1C3 JUMPI PUSH0 CALLDATASIZE PUSH1 0x3 NOT ADD SLT PUSH2 0x1C3 JUMPI PUSH1 0x20 PUSH1 0x40 MLOAD PUSH32 0xA49807205CE4D355092EF5A8A18F56E8913CF4A201FBE287825B095693C21775 DUP2 MSTORE RETURN JUMPDEST CALLVALUE PUSH2 0x1C3 JUMPI PUSH1 0x20 CALLDATASIZE PUSH1 0x3 NOT ADD SLT PUSH2 0x1C3 JUMPI PUSH1 0x20 PUSH2 0xCE6 PUSH2 0xCE1 PUSH2 0x1D69 JUMP JUMPDEST PUSH2 0x2189 JUMP JUMPDEST PUSH1 0x40 MLOAD SWAP1 DUP2 MSTORE RETURN JUMPDEST CALLVALUE PUSH2 0x1C3 JUMPI PUSH1 0x20 CALLDATASIZE PUSH1 0x3 NOT ADD SLT PUSH2 0x1C3 JUMPI PUSH2 0x204 PUSH2 0xD0A PUSH2 0x1D69 JUMP JUMPDEST PUSH2 0xD12 PUSH2 0x1EA3 JUMP JUMPDEST PUSH2 0x2069 JUMP JUMPDEST CALLVALUE PUSH2 0x1C3 JUMPI PUSH1 0x20 CALLDATASIZE PUSH1 0x3 NOT ADD SLT PUSH2 0x1C3 JUMPI PUSH1 0x20 PUSH2 0xD35 PUSH1 0x4 CALLDATALOAD PUSH2 0x2213 JUMP JUMPDEST PUSH1 0x40 MLOAD PUSH1 0x1 PUSH1 0x1 PUSH1 0xA0 SHL SUB SWAP1 SWAP2 AND DUP2 MSTORE RETURN JUMPDEST CALLVALUE PUSH2 0x1C3 JUMPI PUSH1 0x20 CALLDATASIZE PUSH1 0x3 NOT ADD SLT PUSH2 0x1C3 JUMPI PUSH1 0x4 CALLDATALOAD PUSH2 0xD63 PUSH2 0x1EA3 JUMP JUMPDEST PUSH0 DUP2 DUP2 MSTORE PUSH1 0x2 PUSH1 0x20 MSTORE PUSH1 0x40 SWAP1 KECCAK256 SLOAD PUSH1 0x1 PUSH1 0x1 PUSH1 0xA0 SHL SUB SWAP1 DUP2 AND ISZERO PUSH2 0x7AA JUMPI DUP2 PUSH0 MSTORE PUSH1 0x8 PUSH1 0x20 MSTORE PUSH1 0x6 PUSH1 0x40 PUSH0 KECCAK256 ADD PUSH1 0x1 PUSH1 0xFF NOT DUP3 SLOAD AND OR SWAP1 SSTORE PUSH2 0xDA4 DUP3 PUSH2 0x24FC JUMP JUMPDEST AND ISZERO PUSH2 0xDD9 JUMPI PUSH1 0x40 MLOAD SWAP1 TIMESTAMP DUP3 MSTORE PUSH32 0x20B97A918B5112D5E8DE2CC65DD70BA035D2655D44A4C042E197FE20DEC3A46D PUSH1 0x20 CALLER SWAP4 LOG3 STOP JUMPDEST PUSH1 0x24 SWAP1 PUSH1 0x40 MLOAD SWAP1 PUSH4 0x7E273289 PUSH1 0xE0 SHL DUP3 MSTORE PUSH1 0x4 DUP3 ADD MSTORE REVERT JUMPDEST CALLVALUE PUSH2 0x1C3 JUMPI PUSH1 0x20 CALLDATASIZE PUSH1 0x3 NOT ADD SLT PUSH2 0x1C3 JUMPI PUSH1 0x20 PUSH2 0xE0F PUSH1 0x4 CALLDATALOAD PUSH2 0x23BB JUMP JUMPDEST PUSH1 0x40 MLOAD SWAP1 ISZERO ISZERO DUP2 MSTORE RETURN JUMPDEST CALLVALUE PUSH2 0x1C3 JUMPI PUSH2 0x204 PUSH2 0xE2A CALLDATASIZE PUSH2 0x1D95 JUMP JUMPDEST SWAP1 PUSH1 0x40 MLOAD SWAP3 PUSH2 0xE38 DUP5 PUSH2 0x1C69 JUMP JUMPDEST PUSH0 DUP5 MSTORE PUSH2 0x821 DUP4 DUP4 DUP4 PUSH2 0x21BF JUMP JUMPDEST CALLVALUE PUSH2 0x1C3 JUMPI PUSH1 0x20 CALLDATASIZE PUSH1 0x3 NOT ADD SLT PUSH2 0x1C3 JUMPI PUSH2 0x204 PUSH2 0xE62 PUSH2 0x1D69 JUMP JUMPDEST PUSH2 0xE6A PUSH2 0x1EA3 JUMP JUMPDEST PUSH2 0x1F3E JUMP JUMPDEST CALLVALUE PUSH2 0x1C3 JUMPI PUSH1 0x40 CALLDATASIZE PUSH1 0x3 NOT ADD SLT PUSH2 0x1C3 JUMPI PUSH2 0xE88 PUSH2 0x1D7F JUMP JUMPDEST CALLER PUSH1 0x1 PUSH1 0x1 PUSH1 0xA0 SHL SUB DUP3 AND SUB PUSH2 0xEA4 JUMPI PUSH2 0x204 SWAP1 PUSH1 0x4 CALLDATALOAD PUSH2 0x2114 JUMP JUMPDEST PUSH1 0x40 MLOAD PUSH4 0x334BD919 PUSH1 0xE1 SHL DUP2 MSTORE PUSH1 0x4 SWAP1 REVERT JUMPDEST CALLVALUE PUSH2 0x1C3 JUMPI PUSH1 0x40 CALLDATASIZE PUSH1 0x3 NOT ADD SLT PUSH2 0x1C3 JUMPI PUSH2 0x204 PUSH1 0x4 CALLDATALOAD PUSH2 0xED5 PUSH2 0x1D7F JUMP JUMPDEST SWAP1 DUP1 PUSH0 MSTORE PUSH1 0x6 PUSH1 0x20 MSTORE PUSH2 0xEEE PUSH1 0x1 PUSH1 0x40 PUSH0 KECCAK256 ADD SLOAD PUSH2 0x1F1C JUMP JUMPDEST PUSH2 0x1FF0 JUMP JUMPDEST CALLVALUE PUSH2 0x1C3 JUMPI PUSH1 0x20 DUP1 PUSH1 0x3 NOT CALLDATASIZE ADD SLT PUSH2 0x1C3 JUMPI PUSH2 0xF0D PUSH2 0x1D69 JUMP JUMPDEST PUSH2 0xF16 DUP2 PUSH2 0x2189 JUMP JUMPDEST PUSH2 0xF1F DUP2 PUSH2 0x2489 JUMP JUMPDEST SWAP1 PUSH2 0xF2D PUSH1 0x40 MLOAD SWAP3 DUP4 PUSH2 0x1C9F JUMP JUMPDEST DUP1 DUP3 MSTORE PUSH2 0xF3C PUSH1 0x1F NOT SWAP2 PUSH2 0x2489 JUMP JUMPDEST ADD CALLDATASIZE DUP5 DUP4 ADD CALLDATACOPY PUSH1 0x1 PUSH1 0x1 PUSH1 0xA0 SHL SUB SWAP2 DUP3 AND PUSH0 DUP2 DUP2 MSTORE PUSH1 0xA DUP6 MSTORE PUSH1 0x40 DUP1 DUP3 KECCAK256 SWAP1 MLOAD DUP2 SLOAD DUP1 DUP3 MSTORE SWAP2 DUP4 MSTORE DUP7 DUP4 KECCAK256 SWAP1 SWAP7 SWAP3 SWAP4 SWAP2 DUP8 SWAP1 DUP2 DUP6 ADD SWAP1 DUP7 JUMPDEST DUP7 DUP3 DUP3 LT PUSH2 0xFF3 JUMPI POP POP POP PUSH2 0xF8B SWAP3 POP SUB DUP8 PUSH2 0x1C9F JUMP JUMPDEST PUSH0 JUMPDEST DUP7 MLOAD DUP2 LT ISZERO PUSH2 0xFE5 JUMPI PUSH2 0xFA0 DUP2 DUP9 PUSH2 0x24A0 JUMP JUMPDEST MLOAD DUP1 PUSH0 MSTORE PUSH1 0x2 DUP5 MSTORE DUP3 DUP8 PUSH1 0x40 PUSH0 KECCAK256 SLOAD AND EQ PUSH2 0xFC5 JUMPI JUMPDEST POP PUSH2 0xFC0 SWAP1 PUSH2 0x2381 JUMP JUMPDEST PUSH2 0xF8D JUMP JUMPDEST DUP5 PUSH2 0xFDE SWAP2 PUSH2 0xFD8 PUSH2 0xFC0 SWAP5 SWAP8 DUP10 PUSH2 0x24A0 JUMP JUMPDEST MSTORE PUSH2 0x2381 JUMP JUMPDEST SWAP4 SWAP1 PUSH2 0xFB6 JUMP JUMPDEST PUSH1 0x40 MLOAD DUP1 PUSH2 0x6DF DUP8 DUP3 PUSH2 0x1D2F JUMP JUMPDEST DUP6 SLOAD DUP5 MSTORE PUSH1 0x1 SWAP6 DUP7 ADD SWAP6 DUP13 SWAP6 POP SWAP4 ADD SWAP3 ADD PUSH2 0xF74 JUMP JUMPDEST CALLVALUE PUSH2 0x1C3 JUMPI PUSH1 0x20 CALLDATASIZE PUSH1 0x3 NOT ADD SLT PUSH2 0x1C3 JUMPI PUSH1 0x4 CALLDATALOAD PUSH0 MSTORE PUSH1 0x6 PUSH1 0x20 MSTORE PUSH1 0x20 PUSH1 0x1 PUSH1 0x40 PUSH0 KECCAK256 ADD SLOAD PUSH1 0x40 MLOAD SWAP1 DUP2 MSTORE RETURN JUMPDEST CALLVALUE PUSH2 0x1C3 JUMPI PUSH2 0x204 PUSH2 0x1047 CALLDATASIZE PUSH2 0x1D95 JUMP JUMPDEST SWAP2 PUSH2 0x21BF JUMP JUMPDEST CALLVALUE PUSH2 0x1C3 JUMPI PUSH1 0xC0 CALLDATASIZE PUSH1 0x3 NOT ADD SLT PUSH2 0x1C3 JUMPI PUSH2 0x1066 PUSH2 0x1D69 JUMP JUMPDEST PUSH1 0x24 CALLDATALOAD PUSH1 0x1 PUSH1 0x1 PUSH1 0x40 SHL SUB DUP2 GT PUSH2 0x1C3 JUMPI PUSH2 0x1085 SWAP1 CALLDATASIZE SWAP1 PUSH1 0x4 ADD PUSH2 0x1D11 JUMP JUMPDEST SWAP1 PUSH1 0x44 CALLDATALOAD PUSH1 0x1 PUSH1 0x1 PUSH1 0x40 SHL SUB DUP2 GT PUSH2 0x1C3 JUMPI PUSH2 0x10A5 SWAP1 CALLDATASIZE SWAP1 PUSH1 0x4 ADD PUSH2 0x1D11 JUMP JUMPDEST SWAP1 PUSH1 0x84 CALLDATALOAD PUSH1 0x1 PUSH1 0x1 PUSH1 0x40 SHL SUB DUP2 GT PUSH2 0x1C3 JUMPI PUSH2 0x10C5 SWAP1 CALLDATASIZE SWAP1 PUSH1 0x4 ADD PUSH2 0x1D11 JUMP JUMPDEST SWAP2 PUSH1 0xA4 CALLDATALOAD PUSH1 0x1 PUSH1 0x1 PUSH1 0x40 SHL SUB DUP2 GT PUSH2 0x1C3 JUMPI PUSH2 0x10E5 SWAP1 CALLDATASIZE SWAP1 PUSH1 0x4 ADD PUSH2 0x1D11 JUMP JUMPDEST SWAP3 PUSH1 0x1 PUSH1 0x1 PUSH1 0xA0 SHL SUB DUP4 AND CALLER EQ ISZERO DUP1 PUSH2 0x18E9 JUMPI JUMPDEST PUSH2 0x18D7 JUMPI PUSH1 0x64 CALLDATALOAD ISZERO ISZERO DUP1 PUSH2 0x18CB JUMPI JUMPDEST PUSH2 0x18B9 JUMPI PUSH1 0x7 SLOAD SWAP4 PUSH2 0x1119 DUP6 PUSH2 0x2381 JUMP JUMPDEST PUSH1 0x7 SSTORE PUSH1 0x40 MLOAD PUSH2 0x1128 DUP2 PUSH2 0x1C69 JUMP JUMPDEST PUSH0 DUP2 MSTORE PUSH1 0x1 PUSH1 0x1 PUSH1 0xA0 SHL SUB DUP6 AND ISZERO PUSH2 0x18A1 JUMPI PUSH1 0x1 PUSH1 0x1 PUSH1 0xA0 SHL SUB PUSH2 0x114C DUP8 DUP8 PUSH2 0x24B4 JUMP JUMPDEST AND PUSH2 0x1889 JUMPI DUP5 EXTCODESIZE PUSH2 0x1746 JUMPI JUMPDEST POP PUSH1 0x40 MLOAD SWAP2 PUSH2 0x1166 DUP4 PUSH2 0x1C4D JUMP JUMPDEST DUP7 DUP4 MSTORE DUP4 PUSH1 0x20 DUP5 ADD MSTORE PUSH1 0x1 DUP1 PUSH1 0xA0 SHL SUB DUP6 AND PUSH1 0x40 DUP5 ADD MSTORE TIMESTAMP PUSH1 0x60 DUP5 ADD MSTORE PUSH1 0x64 CALLDATALOAD PUSH1 0x80 DUP5 ADD MSTORE PUSH1 0xA0 DUP4 ADD MSTORE PUSH0 PUSH1 0xC0 DUP4 ADD MSTORE PUSH1 0xE0 DUP3 ADD MSTORE DUP4 PUSH0 MSTORE PUSH1 0x8 PUSH1 0x20 MSTORE PUSH1 0x40 PUSH0 KECCAK256 SWAP1 DUP1 MLOAD DUP1 MLOAD SWAP1 PUSH1 0x1 PUSH1 0x1 PUSH1 0x40 SHL SUB DUP3 GT PUSH2 0x796 JUMPI DUP2 SWAP1 PUSH2 0x11C7 DUP6 SLOAD PUSH2 0x1DCA JUMP JUMPDEST PUSH1 0x1F DUP2 GT PUSH2 0x16F9 JUMPI JUMPDEST POP PUSH1 0x20 SWAP1 PUSH1 0x1F DUP4 GT PUSH1 0x1 EQ PUSH2 0x1695 JUMPI PUSH0 SWAP3 PUSH2 0x168A JUMPI JUMPDEST POP POP DUP2 PUSH1 0x1 SHL SWAP2 PUSH0 NOT SWAP1 PUSH1 0x3 SHL SHR NOT AND OR DUP3 SSTORE JUMPDEST PUSH1 0x20 DUP2 ADD MLOAD DUP1 MLOAD SWAP1 PUSH1 0x1 PUSH1 0x1 PUSH1 0x40 SHL SUB DUP3 GT PUSH2 0x796 JUMPI DUP2 SWAP1 PUSH2 0x121F PUSH1 0x1 DUP7 ADD SLOAD PUSH2 0x1DCA JUMP JUMPDEST PUSH1 0x1F DUP2 GT PUSH2 0x163A JUMPI JUMPDEST POP PUSH1 0x20 SWAP1 PUSH1 0x1F DUP4 GT PUSH1 0x1 EQ PUSH2 0x15CC JUMPI PUSH0 SWAP3 PUSH2 0x15C1 JUMPI JUMPDEST POP POP DUP2 PUSH1 0x1 SHL SWAP2 PUSH0 NOT SWAP1 PUSH1 0x3 SHL SHR NOT AND OR PUSH1 0x1 DUP4 ADD SSTORE JUMPDEST PUSH1 0x2 DUP3 ADD PUSH1 0x1 DUP1 PUSH1 0xA0 SHL SUB PUSH1 0x40 DUP4 ADD MLOAD AND PUSH1 0x1 PUSH1 0x1 PUSH1 0x60 SHL SUB PUSH1 0xA0 SHL DUP3 SLOAD AND OR SWAP1 SSTORE PUSH1 0x60 DUP2 ADD MLOAD PUSH1 0x3 DUP4 ADD SSTORE PUSH1 0x80 DUP2 ADD MLOAD PUSH1 0x4 DUP4 ADD SSTORE PUSH1 0xA0 DUP2 ADD MLOAD DUP1 MLOAD SWAP1 PUSH1 0x1 PUSH1 0x1 PUSH1 0x40 SHL SUB DUP3 GT PUSH2 0x796 JUMPI PUSH2 0x12AE PUSH1 0x5 DUP6 ADD SLOAD PUSH2 0x1DCA JUMP JUMPDEST PUSH1 0x1F DUP2 GT PUSH2 0x157D JUMPI JUMPDEST POP PUSH1 0x20 SWAP1 PUSH1 0x1F DUP4 GT PUSH1 0x1 EQ PUSH2 0x1510 JUMPI PUSH1 0xE0 SWAP4 SWAP3 SWAP2 PUSH0 SWAP2 DUP4 PUSH2 0x1505 JUMPI JUMPDEST POP POP DUP2 PUSH1 0x1 SHL SWAP2 PUSH0 NOT SWAP1 PUSH1 0x3 SHL SHR NOT AND OR PUSH1 0x5 DUP5 ADD SSTORE JUMPDEST PUSH2 0x1309 PUSH1 0xC0 DUP3 ADD MLOAD ISZERO ISZERO PUSH1 0x6 DUP6 ADD SWAP1 PUSH1 0xFF DUP1 NOT DUP4 SLOAD AND SWAP2 ISZERO ISZERO AND OR SWAP1 SSTORE JUMP JUMPDEST ADD MLOAD DUP1 MLOAD SWAP1 PUSH1 0x1 PUSH1 0x1 PUSH1 0x40 SHL SUB DUP3 GT PUSH2 0x796 JUMPI PUSH2 0x1329 PUSH1 0x7 DUP5 ADD SLOAD PUSH2 0x1DCA JUMP JUMPDEST PUSH1 0x1F DUP2 GT PUSH2 0x14BD JUMPI JUMPDEST POP SWAP2 DUP6 SWAP4 SWAP2 PUSH1 0x20 SWAP8 SWAP4 DUP9 SWAP1 PUSH1 0x1F DUP4 GT PUSH1 0x1 EQ PUSH2 0x1428 JUMPI SWAP3 PUSH1 0x7 DUP4 PUSH2 0x13F8 SWAP5 PUSH2 0x13EB SWAP8 SWAP5 PUSH32 0x7B2CC9F2158661E5A08F51DFB404C738F98CC86CE50BFC3024C962837439BE00 SWAP10 SWAP8 PUSH0 SWAP3 PUSH2 0x141D JUMPI JUMPDEST POP POP DUP2 PUSH1 0x1 SHL SWAP2 PUSH0 NOT SWAP1 PUSH1 0x3 SHL SHR NOT AND OR SWAP2 ADD SSTORE JUMPDEST PUSH2 0x13BB DUP7 PUSH1 0x40 MLOAD DUP12 DUP2 DUP6 MLOAD PUSH2 0x13AC DUP2 DUP4 DUP6 DUP11 ADD PUSH2 0x1C07 JUMP JUMPDEST DUP2 ADD PUSH1 0x9 DUP2 MSTORE SUB ADD SWAP1 KECCAK256 PUSH2 0x238F JUMP JUMPDEST PUSH1 0x1 DUP1 PUSH1 0xA0 SHL SUB DUP8 AND PUSH0 MSTORE PUSH1 0xA DUP10 MSTORE PUSH2 0x13D7 DUP7 PUSH1 0x40 PUSH0 KECCAK256 PUSH2 0x238F JUMP JUMPDEST PUSH1 0x40 MLOAD SWAP4 DUP5 SWAP4 PUSH1 0x80 DUP6 MSTORE PUSH1 0x80 DUP6 ADD SWAP1 PUSH2 0x1C28 JUMP JUMPDEST SWAP1 DUP4 DUP3 SUB DUP11 DUP6 ADD MSTORE PUSH2 0x1C28 JUMP JUMPDEST PUSH1 0x64 CALLDATALOAD PUSH1 0x40 DUP4 ADD MSTORE TIMESTAMP PUSH1 0x60 DUP4 ADD MSTORE PUSH1 0x1 PUSH1 0x1 PUSH1 0xA0 SHL SUB SWAP1 SWAP6 AND SWAP5 SUB SWAP1 LOG3 PUSH1 0x40 MLOAD SWAP1 DUP2 MSTORE RETURN JUMPDEST ADD MLOAD SWAP1 POP DUP14 DUP1 PUSH2 0x137F JUMP JUMPDEST SWAP1 PUSH1 0x1F NOT DUP4 AND SWAP2 PUSH1 0x7 DUP6 ADD PUSH0 MSTORE DUP11 PUSH0 KECCAK256 SWAP3 PUSH0 JUMPDEST DUP2 DUP2 LT PUSH2 0x14A3 JUMPI POP DUP5 PUSH2 0x13EB SWAP8 SWAP5 PUSH32 0x7B2CC9F2158661E5A08F51DFB404C738F98CC86CE50BFC3024C962837439BE00 SWAP10 SWAP8 SWAP5 PUSH1 0x7 SWAP5 PUSH2 0x13F8 SWAP9 PUSH1 0x1 SWAP6 LT PUSH2 0x148B JUMPI JUMPDEST POP POP POP DUP2 SHL ADD SWAP2 ADD SSTORE PUSH2 0x1394 JUMP JUMPDEST ADD MLOAD PUSH0 NOT PUSH1 0xF8 DUP5 PUSH1 0x3 SHL AND SHR NOT AND SWAP1 SSTORE DUP14 DUP1 DUP1 PUSH2 0x147D JUMP JUMPDEST DUP3 DUP5 ADD MLOAD DUP6 SSTORE DUP12 SWAP10 POP PUSH1 0x1 SWAP1 SWAP5 ADD SWAP4 SWAP3 DUP13 ADD SWAP3 DUP13 ADD PUSH2 0x143B JUMP JUMPDEST PUSH1 0x7 DUP5 ADD PUSH0 MSTORE PUSH1 0x20 PUSH0 KECCAK256 PUSH1 0x1F DUP5 ADD PUSH1 0x5 SHR DUP2 ADD SWAP2 PUSH1 0x20 DUP6 LT PUSH2 0x14FB JUMPI JUMPDEST PUSH1 0x1F ADD PUSH1 0x5 SHR ADD SWAP1 JUMPDEST DUP2 DUP2 LT PUSH2 0x14F0 JUMPI POP PUSH2 0x1332 JUMP JUMPDEST PUSH0 DUP2 SSTORE PUSH1 0x1 ADD PUSH2 0x14E3 JUMP JUMPDEST SWAP1 SWAP2 POP DUP2 SWAP1 PUSH2 0x14DA JUMP JUMPDEST ADD MLOAD SWAP1 POP DUP10 DUP1 PUSH2 0x12D3 JUMP JUMPDEST SWAP1 PUSH1 0x1F NOT DUP4 AND SWAP2 PUSH1 0x5 DUP7 ADD PUSH0 MSTORE PUSH1 0x20 PUSH0 KECCAK256 SWAP3 PUSH0 JUMPDEST DUP2 DUP2 LT PUSH2 0x1565 JUMPI POP SWAP2 PUSH1 0x1 SWAP4 SWAP2 DUP6 PUSH1 0xE0 SWAP8 SWAP7 SWAP5 LT PUSH2 0x154D JUMPI JUMPDEST POP POP POP DUP2 SHL ADD PUSH1 0x5 DUP5 ADD SSTORE PUSH2 0x12EA JUMP JUMPDEST ADD MLOAD PUSH0 NOT PUSH1 0xF8 DUP5 PUSH1 0x3 SHL AND SHR NOT AND SWAP1 SSTORE DUP10 DUP1 DUP1 PUSH2 0x153D JUMP JUMPDEST SWAP3 SWAP4 PUSH1 0x20 PUSH1 0x1 DUP2 SWAP3 DUP8 DUP7 ADD MLOAD DUP2 SSTORE ADD SWAP6 ADD SWAP4 ADD PUSH2 0x1524 JUMP JUMPDEST PUSH1 0x5 DUP6 ADD PUSH0 MSTORE PUSH1 0x20 PUSH0 KECCAK256 PUSH1 0x1F DUP5 ADD PUSH1 0x5 SHR DUP2 ADD PUSH1 0x20 DUP6 LT PUSH2 0x15BA JUMPI JUMPDEST PUSH1 0x1F DUP4 ADD PUSH1 0x5 SHR DUP3 ADD DUP2 LT PUSH2 0x15AF JUMPI POP POP PUSH2 0x12B7 JUMP JUMPDEST PUSH0 DUP2 SSTORE PUSH1 0x1 ADD PUSH2 0x1599 JUMP JUMPDEST POP DUP1 PUSH2 0x1599 JUMP JUMPDEST ADD MLOAD SWAP1 POP DUP9 DUP1 PUSH2 0x123E JUMP JUMPDEST SWAP3 POP PUSH1 0x1 DUP6 ADD PUSH0 MSTORE PUSH1 0x20 PUSH0 KECCAK256 SWAP1 PUSH0 SWAP4 JUMPDEST PUSH1 0x1F NOT DUP5 AND DUP6 LT PUSH2 0x161F JUMPI PUSH1 0x1 SWAP5 POP DUP4 PUSH1 0x1F NOT DUP2 AND LT PUSH2 0x1607 JUMPI JUMPDEST POP POP POP DUP2 SHL ADD PUSH1 0x1 DUP4 ADD SSTORE PUSH2 0x1255 JUMP JUMPDEST ADD MLOAD PUSH0 NOT PUSH1 0xF8 DUP5 PUSH1 0x3 SHL AND SHR NOT AND SWAP1 SSTORE DUP9 DUP1 DUP1 PUSH2 0x15F7 JUMP JUMPDEST DUP2 DUP2 ADD MLOAD DUP4 SSTORE PUSH1 0x20 SWAP5 DUP6 ADD SWAP5 PUSH1 0x1 SWAP1 SWAP4 ADD SWAP3 SWAP1 SWAP2 ADD SWAP1 PUSH2 0x15DC JUMP JUMPDEST SWAP1 SWAP2 POP PUSH1 0x1 DUP6 ADD PUSH0 MSTORE PUSH1 0x20 PUSH0 KECCAK256 PUSH1 0x1F DUP5 ADD PUSH1 0x5 SHR DUP2 ADD PUSH1 0x20 DUP6 LT PUSH2 0x1683 JUMPI JUMPDEST SWAP1 DUP5 SWAP4 SWAP3 SWAP2 JUMPDEST PUSH1 0x1F DUP4 ADD PUSH1 0x5 SHR DUP3 ADD DUP2 LT PUSH2 0x1675 JUMPI POP POP PUSH2 0x1228 JUMP JUMPDEST PUSH0 DUP2 SSTORE DUP6 SWAP5 POP PUSH1 0x1 ADD PUSH2 0x165F JUMP JUMPDEST POP DUP1 PUSH2 0x1659 JUMP JUMPDEST ADD MLOAD SWAP1 POP DUP9 DUP1 PUSH2 0x11E6 JUMP JUMPDEST PUSH0 DUP7 DUP2 MSTORE PUSH1 0x20 DUP2 KECCAK256 SWAP4 POP PUSH1 0x1F NOT DUP6 AND SWAP1 JUMPDEST DUP2 DUP2 LT PUSH2 0x16E1 JUMPI POP SWAP1 DUP5 PUSH1 0x1 SWAP6 SWAP5 SWAP4 SWAP3 LT PUSH2 0x16C9 JUMPI JUMPDEST POP POP POP DUP2 SHL ADD DUP3 SSTORE PUSH2 0x11FA JUMP JUMPDEST ADD MLOAD PUSH0 NOT PUSH1 0xF8 DUP5 PUSH1 0x3 SHL AND SHR NOT AND SWAP1 SSTORE DUP9 DUP1 DUP1 PUSH2 0x16BC JUMP JUMPDEST SWAP3 SWAP4 PUSH1 0x20 PUSH1 0x1 DUP2 SWAP3 DUP8 DUP7 ADD MLOAD DUP2 SSTORE ADD SWAP6 ADD SWAP4 ADD PUSH2 0x16A6 JUMP JUMPDEST SWAP1 SWAP2 POP DUP5 PUSH0 MSTORE PUSH1 0x20 PUSH0 KECCAK256 PUSH1 0x1F DUP5 ADD PUSH1 0x5 SHR DUP2 ADD PUSH1 0x20 DUP6 LT PUSH2 0x173F JUMPI JUMPDEST SWAP1 DUP5 SWAP4 SWAP3 SWAP2 JUMPDEST PUSH1 0x1F DUP4 ADD PUSH1 0x5 SHR DUP3 ADD DUP2 LT PUSH2 0x1731 JUMPI POP POP PUSH2 0x11D0 JUMP JUMPDEST PUSH0 DUP2 SSTORE DUP6 SWAP5 POP PUSH1 0x1 ADD PUSH2 0x171B JUMP JUMPDEST POP DUP1 PUSH2 0x1715 JUMP JUMPDEST PUSH1 0x20 PUSH2 0x1784 SWAP2 PUSH1 0x40 SWAP9 SWAP8 SWAP7 SWAP9 MLOAD DUP1 SWAP4 DUP2 SWAP3 PUSH4 0xA85BD01 PUSH1 0xE1 SHL DUP4 MSTORE CALLER PUSH1 0x4 DUP5 ADD MSTORE PUSH0 PUSH1 0x24 DUP5 ADD MSTORE DUP10 PUSH1 0x44 DUP5 ADD MSTORE PUSH1 0x80 PUSH1 0x64 DUP5 ADD MSTORE PUSH1 0x84 DUP4 ADD SWAP1 PUSH2 0x1C28 JUMP JUMPDEST SUB DUP2 PUSH0 PUSH1 0x1 PUSH1 0x1 PUSH1 0xA0 SHL SUB DUP13 AND GAS CALL PUSH0 SWAP2 DUP2 PUSH2 0x1844 JUMPI JUMPDEST POP PUSH2 0x1802 JUMPI DUP7 RETURNDATASIZE ISZERO PUSH2 0x17FA JUMPI RETURNDATASIZE SWAP1 PUSH2 0x17B2 DUP3 PUSH2 0x1CC0 JUMP JUMPDEST SWAP2 PUSH2 0x17C0 PUSH1 0x40 MLOAD SWAP4 DUP5 PUSH2 0x1C9F JUMP JUMPDEST DUP3 MSTORE RETURNDATASIZE PUSH0 PUSH1 0x20 DUP5 ADD RETURNDATACOPY JUMPDEST DUP2 MLOAD SWAP2 DUP3 PUSH2 0x17F3 JUMPI PUSH1 0x40 MLOAD PUSH4 0x32505749 PUSH1 0xE1 SHL DUP2 MSTORE PUSH1 0x1 PUSH1 0x1 PUSH1 0xA0 SHL SUB DUP4 AND PUSH1 0x4 DUP3 ADD MSTORE PUSH1 0x24 SWAP1 REVERT JUMPDEST PUSH1 0x20 SWAP2 POP ADD REVERT JUMPDEST PUSH1 0x60 SWAP1 PUSH2 0x17CA JUMP JUMPDEST SWAP5 SWAP6 SWAP4 SWAP5 PUSH1 0x1 PUSH1 0x1 PUSH1 0xE0 SHL SUB NOT AND PUSH4 0x757A42FF PUSH1 0xE1 SHL ADD PUSH2 0x1823 JUMPI DUP7 PUSH2 0x1158 JUMP JUMPDEST PUSH1 0x40 MLOAD PUSH4 0x32505749 PUSH1 0xE1 SHL DUP2 MSTORE PUSH1 0x1 PUSH1 0x1 PUSH1 0xA0 SHL SUB DUP6 AND PUSH1 0x4 DUP3 ADD MSTORE PUSH1 0x24 SWAP1 REVERT JUMPDEST SWAP1 SWAP2 POP PUSH1 0x20 DUP2 RETURNDATASIZE PUSH1 0x20 GT PUSH2 0x1881 JUMPI JUMPDEST DUP2 PUSH2 0x1860 PUSH1 0x20 SWAP4 DUP4 PUSH2 0x1C9F JUMP JUMPDEST DUP2 ADD SUB SLT PUSH2 0x1C3 JUMPI MLOAD PUSH1 0x1 PUSH1 0x1 PUSH1 0xE0 SHL SUB NOT DUP2 AND DUP2 SUB PUSH2 0x1C3 JUMPI SWAP1 DUP9 PUSH2 0x179B JUMP JUMPDEST RETURNDATASIZE SWAP2 POP PUSH2 0x1853 JUMP JUMPDEST PUSH1 0x40 MLOAD PUSH4 0x39E35637 PUSH1 0xE1 SHL DUP2 MSTORE PUSH0 PUSH1 0x4 DUP3 ADD MSTORE PUSH1 0x24 SWAP1 REVERT JUMPDEST PUSH1 0x40 MLOAD PUSH4 0x32505749 PUSH1 0xE1 SHL DUP2 MSTORE PUSH0 PUSH1 0x4 DUP3 ADD MSTORE PUSH1 0x24 SWAP1 REVERT JUMPDEST PUSH1 0x40 MLOAD PUSH4 0x6D77E4A3 PUSH1 0xE1 SHL DUP2 MSTORE PUSH1 0x4 SWAP1 REVERT JUMPDEST POP TIMESTAMP PUSH1 0x64 CALLDATALOAD GT ISZERO PUSH2 0x1108 JUMP JUMPDEST PUSH1 0x40 MLOAD PUSH4 0x15F609BB PUSH1 0xE2 SHL DUP2 MSTORE PUSH1 0x4 SWAP1 REVERT JUMPDEST POP CALLER PUSH0 SWAP1 DUP2 MSTORE PUSH32 0x3195C024B2DDD6D9B8F6C836AA52F67FE69376C8903D009B80229B3CE4425F51 PUSH1 0x20 MSTORE PUSH1 0x40 SWAP1 KECCAK256 SLOAD PUSH1 0xFF AND ISZERO PUSH2 0x10F9 JUMP JUMPDEST CALLVALUE PUSH2 0x1C3 JUMPI PUSH1 0x40 CALLDATASIZE PUSH1 0x3 NOT ADD SLT PUSH2 0x1C3 JUMPI PUSH2 0x193A PUSH2 0x1D69 JUMP JUMPDEST PUSH1 0x24 CALLDATALOAD PUSH2 0x1946 DUP2 PUSH2 0x2213 JUMP JUMPDEST CALLER ISZERO ISZERO DUP1 PUSH2 0x19EF JUMPI JUMPDEST DUP1 PUSH2 0x19C6 JUMPI JUMPDEST PUSH2 0x19AE JUMPI PUSH1 0x1 PUSH1 0x1 PUSH1 0xA0 SHL SUB SWAP3 DUP4 AND SWAP3 DUP3 SWAP2 DUP5 SWAP2 AND PUSH32 0x8C5BE1E5EBEC7D5BD14F71427D1E84F3DD0314C0F7B2291E5B200AC8C7C3B925 PUSH0 DUP1 LOG4 PUSH0 SWAP1 DUP2 MSTORE PUSH1 0x4 PUSH1 0x20 MSTORE PUSH1 0x40 SWAP1 KECCAK256 DUP1 SLOAD PUSH1 0x1 PUSH1 0x1 PUSH1 0xA0 SHL SUB NOT AND SWAP1 SWAP2 OR SWAP1 SSTORE STOP JUMPDEST PUSH1 0x40 MLOAD PUSH4 0xA9FBF51F PUSH1 0xE0 SHL DUP2 MSTORE CALLER PUSH1 0x4 DUP3 ADD MSTORE PUSH1 0x24 SWAP1 REVERT JUMPDEST POP PUSH1 0x1 DUP1 PUSH1 0xA0 SHL SUB DUP2 AND PUSH0 MSTORE PUSH1 0x5 PUSH1 0x20 MSTORE PUSH1 0x40 PUSH0 KECCAK256 CALLER PUSH0 MSTORE PUSH1 0x20 MSTORE PUSH1 0xFF PUSH1 0x40 PUSH0 KECCAK256 SLOAD AND ISZERO PUSH2 0x1955 JUMP JUMPDEST POP PUSH1 0x1 PUSH1 0x1 PUSH1 0xA0 SHL SUB DUP2 AND CALLER EQ ISZERO PUSH2 0x194F JUMP JUMPDEST CALLVALUE PUSH2 0x1C3 JUMPI PUSH1 0x20 DUP1 PUSH1 0x3 NOT CALLDATASIZE ADD SLT PUSH2 0x1C3 JUMPI PUSH1 0x4 CALLDATALOAD PUSH1 0x1 PUSH1 0x1 PUSH1 0x40 SHL SUB DUP2 GT PUSH2 0x1C3 JUMPI DUP2 PUSH2 0x1A37 PUSH2 0x1A4A SWAP3 CALLDATASIZE SWAP1 PUSH1 0x4 ADD PUSH2 0x1D11 JUMP JUMPDEST DUP2 PUSH1 0x40 MLOAD SWAP4 DUP3 DUP6 DUP1 SWAP5 MLOAD SWAP4 DUP5 SWAP3 ADD PUSH2 0x1C07 JUMP JUMPDEST DUP2 ADD PUSH1 0x9 DUP2 MSTORE SUB ADD SWAP1 KECCAK256 SWAP1 PUSH1 0x40 MLOAD SWAP1 DUP2 DUP2 DUP5 SLOAD SWAP2 DUP3 DUP2 MSTORE ADD SWAP4 PUSH0 MSTORE DUP2 PUSH0 KECCAK256 SWAP2 PUSH0 SWAP1 JUMPDEST DUP3 DUP3 LT PUSH2 0x1A8F JUMPI PUSH2 0x6DF DUP6 PUSH2 0x1A83 DUP2 DUP10 SUB DUP3 PUSH2 0x1C9F JUMP JUMPDEST PUSH1 0x40 MLOAD SWAP2 DUP3 SWAP2 DUP3 PUSH2 0x1D2F JUMP JUMPDEST DUP4 SLOAD DUP7 MSTORE SWAP5 DUP6 ADD SWAP5 PUSH1 0x1 SWAP4 DUP5 ADD SWAP4 SWAP1 SWAP2 ADD SWAP1 PUSH2 0x1A6C JUMP JUMPDEST CALLVALUE PUSH2 0x1C3 JUMPI PUSH1 0x20 CALLDATASIZE PUSH1 0x3 NOT ADD SLT PUSH2 0x1C3 JUMPI PUSH1 0x4 CALLDATALOAD PUSH2 0x1AC3 DUP2 PUSH2 0x2213 JUMP JUMPDEST POP PUSH0 MSTORE PUSH1 0x4 PUSH1 0x20 MSTORE PUSH1 0x20 PUSH1 0x1 DUP1 PUSH1 0xA0 SHL SUB PUSH1 0x40 PUSH0 KECCAK256 SLOAD AND PUSH1 0x40 MLOAD SWAP1 DUP2 MSTORE RETURN JUMPDEST CALLVALUE PUSH2 0x1C3 JUMPI PUSH0 CALLDATASIZE PUSH1 0x3 NOT ADD SLT PUSH2 0x1C3 JUMPI PUSH1 0x40 MLOAD PUSH0 DUP1 SLOAD PUSH2 0x1B01 DUP2 PUSH2 0x1DCA JUMP JUMPDEST DUP1 DUP5 MSTORE SWAP1 PUSH1 0x1 SWAP1 DUP2 DUP2 AND SWAP1 DUP2 ISZERO PUSH2 0xA9C JUMPI POP PUSH1 0x1 EQ PUSH2 0x1B2A JUMPI PUSH2 0x6DF DUP5 PUSH2 0xA30 DUP2 DUP7 SUB DUP3 PUSH2 0x1C9F JUMP JUMPDEST PUSH0 DUP1 DUP1 MSTORE SWAP3 POP PUSH32 0x290DECD9548B62A8D60345A988386FC84BA6BC95484008F6362F93160EF3E563 JUMPDEST DUP3 DUP5 LT PUSH2 0x1B6A JUMPI POP POP POP DUP2 ADD PUSH1 0x20 ADD PUSH2 0xA30 DUP3 PUSH2 0xA20 JUMP JUMPDEST DUP1 SLOAD PUSH1 0x20 DUP6 DUP8 ADD DUP2 ADD SWAP2 SWAP1 SWAP2 MSTORE SWAP1 SWAP4 ADD SWAP3 DUP2 ADD PUSH2 0x1B52 JUMP JUMPDEST CALLVALUE PUSH2 0x1C3 JUMPI PUSH1 0x20 CALLDATASIZE PUSH1 0x3 NOT ADD SLT PUSH2 0x1C3 JUMPI PUSH1 0x4 CALLDATALOAD SWAP1 PUSH4 0xFFFFFFFF PUSH1 0xE0 SHL DUP3 AND DUP1 SWAP3 SUB PUSH2 0x1C3 JUMPI PUSH1 0x20 SWAP2 PUSH4 0x7965DB0B PUSH1 0xE0 SHL DUP2 EQ SWAP1 DUP2 ISZERO PUSH2 0x1BC4 JUMPI JUMPDEST POP ISZERO ISZERO DUP2 MSTORE RETURN JUMPDEST PUSH4 0x80AC58CD PUSH1 0xE0 SHL DUP2 EQ SWAP2 POP DUP2 ISZERO PUSH2 0x1BF6 JUMPI JUMPDEST DUP2 ISZERO PUSH2 0x1BE5 JUMPI JUMPDEST POP DUP4 PUSH2 0x1BBD JUMP JUMPDEST PUSH4 0x1FFC9A7 PUSH1 0xE0 SHL EQ SWAP1 POP DUP4 PUSH2 0x1BDE JUMP JUMPDEST PUSH4 0x5B5E139F PUSH1 0xE0 SHL DUP2 EQ SWAP2 POP PUSH2 0x1BD7 JUMP JUMPDEST PUSH0 JUMPDEST DUP4 DUP2 LT PUSH2 0x1C18 JUMPI POP POP PUSH0 SWAP2 ADD MSTORE JUMP JUMPDEST DUP2 DUP2 ADD MLOAD DUP4 DUP3 ADD MSTORE PUSH1 0x20 ADD PUSH2 0x1C09 JUMP JUMPDEST SWAP1 PUSH1 0x20 SWAP2 PUSH2 0x1C41 DUP2 MLOAD DUP1 SWAP3 DUP2 DUP6 MSTORE DUP6 DUP1 DUP7 ADD SWAP2 ADD PUSH2 0x1C07 JUMP JUMPDEST PUSH1 0x1F ADD PUSH1 0x1F NOT AND ADD ADD SWAP1 JUMP JUMPDEST PUSH2 0x100 DUP2 ADD SWAP1 DUP2 LT PUSH1 0x1 PUSH1 0x1 PUSH1 0x40 SHL SUB DUP3 GT OR PUSH2 0x796 JUMPI PUSH1 0x40 MSTORE JUMP JUMPDEST PUSH1 0x20 DUP2 ADD SWAP1 DUP2 LT PUSH1 0x1 PUSH1 0x1 PUSH1 0x40 SHL SUB DUP3 GT OR PUSH2 0x796 JUMPI PUSH1 0x40 MSTORE JUMP JUMPDEST PUSH1 0x40 DUP2 ADD SWAP1 DUP2 LT PUSH1 0x1 PUSH1 0x1 PUSH1 0x40 SHL SUB DUP3 GT OR PUSH2 0x796 JUMPI PUSH1 0x40 MSTORE JUMP JUMPDEST SWAP1 PUSH1 0x1F DUP1 NOT SWAP2 ADD AND DUP2 ADD SWAP1 DUP2 LT PUSH1 0x1 PUSH1 0x1 PUSH1 0x40 SHL SUB DUP3 GT OR PUSH2 0x796 JUMPI PUSH1 0x40 MSTORE JUMP JUMPDEST PUSH1 0x1 PUSH1 0x1 PUSH1 0x40 SHL SUB DUP2 GT PUSH2 0x796 JUMPI PUSH1 0x1F ADD PUSH1 0x1F NOT AND PUSH1 0x20 ADD SWAP1 JUMP JUMPDEST SWAP3 SWAP2 SWAP3 PUSH2 0x1CE7 DUP3 PUSH2 0x1CC0 JUMP JUMPDEST SWAP2 PUSH2 0x1CF5 PUSH1 0x40 MLOAD SWAP4 DUP5 PUSH2 0x1C9F JUMP JUMPDEST DUP3 SWAP5 DUP2 DUP5 MSTORE DUP2 DUP4 ADD GT PUSH2 0x1C3 JUMPI DUP3 DUP2 PUSH1 0x20 SWAP4 DUP5 PUSH0 SWAP7 ADD CALLDATACOPY ADD ADD MSTORE JUMP JUMPDEST SWAP1 DUP1 PUSH1 0x1F DUP4 ADD SLT ISZERO PUSH2 0x1C3 JUMPI DUP2 PUSH1 0x20 PUSH2 0x1D2C SWAP4 CALLDATALOAD SWAP2 ADD PUSH2 0x1CDB JUMP JUMPDEST SWAP1 JUMP JUMPDEST PUSH1 0x20 SWAP1 DUP2 PUSH1 0x40 DUP2 DUP4 ADD SWAP3 DUP3 DUP2 MSTORE DUP6 MLOAD DUP1 SWAP5 MSTORE ADD SWAP4 ADD SWAP2 PUSH0 JUMPDEST DUP3 DUP2 LT PUSH2 0x1D55 JUMPI POP POP POP POP SWAP1 JUMP JUMPDEST DUP4 MLOAD DUP6 MSTORE SWAP4 DUP2 ADD SWAP4 SWAP3 DUP2 ADD SWAP3 PUSH1 0x1 ADD PUSH2 0x1D47 JUMP JUMPDEST PUSH1 0x4 CALLDATALOAD SWAP1 PUSH1 0x1 PUSH1 0x1 PUSH1 0xA0 SHL SUB DUP3 AND DUP3 SUB PUSH2 0x1C3 JUMPI JUMP JUMPDEST PUSH1 0x24 CALLDATALOAD SWAP1 PUSH1 0x1 PUSH1 0x1 PUSH1 0xA0 SHL SUB DUP3 AND DUP3 SUB PUSH2 0x1C3 JUMPI JUMP JUMPDEST PUSH1 0x60 SWAP1 PUSH1 0x3 NOT ADD SLT PUSH2 0x1C3 JUMPI PUSH1 0x1 PUSH1 0x1 PUSH1 0xA0 SHL SUB SWAP1 PUSH1 0x4 CALLDATALOAD DUP3 DUP2 AND DUP2 SUB PUSH2 0x1C3 JUMPI SWAP2 PUSH1 0x24 CALLDATALOAD SWAP1 DUP2 AND DUP2 SUB PUSH2 0x1C3 JUMPI SWAP1 PUSH1 0x44 CALLDATALOAD SWAP1 JUMP JUMPDEST SWAP1 PUSH1 0x1 DUP3 DUP2 SHR SWAP3 AND DUP1 ISZERO PUSH2 0x1DF8 JUMPI JUMPDEST PUSH1 0x20 DUP4 LT EQ PUSH2 0x1DE4 JUMPI JUMP JUMPDEST PUSH4 0x4E487B71 PUSH1 0xE0 SHL PUSH0 MSTORE PUSH1 0x22 PUSH1 0x4 MSTORE PUSH1 0x24 PUSH0 REVERT JUMPDEST SWAP2 PUSH1 0x7F AND SWAP2 PUSH2 0x1DD9 JUMP JUMPDEST SWAP1 PUSH1 0x40 MLOAD SWAP2 DUP3 PUSH0 DUP3 SLOAD SWAP3 PUSH2 0x1E15 DUP5 PUSH2 0x1DCA JUMP JUMPDEST SWAP1 DUP2 DUP5 MSTORE PUSH1 0x1 SWAP5 DUP6 DUP2 AND SWAP1 DUP2 PUSH0 EQ PUSH2 0x1E80 JUMPI POP PUSH1 0x1 EQ PUSH2 0x1E40 JUMPI JUMPDEST POP POP PUSH2 0x1E3E SWAP3 POP SUB DUP4 PUSH2 0x1C9F JUMP JUMPDEST JUMP JUMPDEST SWAP1 SWAP4 SWAP2 POP PUSH0 MSTORE PUSH1 0x20 SWAP1 DUP2 PUSH0 KECCAK256 SWAP4 PUSH0 SWAP2 JUMPDEST DUP2 DUP4 LT PUSH2 0x1E68 JUMPI POP POP PUSH2 0x1E3E SWAP4 POP DUP3 ADD ADD PUSH0 DUP1 PUSH2 0x1E30 JUMP JUMPDEST DUP6 SLOAD DUP9 DUP5 ADD DUP6 ADD MSTORE SWAP5 DUP6 ADD SWAP5 DUP8 SWAP5 POP SWAP2 DUP4 ADD SWAP2 PUSH2 0x1E50 JUMP JUMPDEST SWAP2 POP POP PUSH2 0x1E3E SWAP5 POP PUSH1 0x20 SWAP3 POP PUSH1 0xFF NOT AND DUP3 DUP5 ADD MSTORE ISZERO ISZERO PUSH1 0x5 SHL DUP3 ADD ADD PUSH0 DUP1 PUSH2 0x1E30 JUMP JUMPDEST CALLER PUSH0 SWAP1 DUP2 MSTORE PUSH32 0xC3BB05773FB95F6688E1E7D9C896674DCCD66884026CF30A3D5E3A9BFECD811 PUSH1 0x20 MSTORE PUSH1 0x40 SWAP1 KECCAK256 SLOAD PUSH32 0xA49807205CE4D355092EF5A8A18F56E8913CF4A201FBE287825B095693C21775 SWAP1 PUSH1 0xFF AND ISZERO PUSH2 0x1EFE JUMPI POP JUMP JUMPDEST PUSH1 0x44 SWAP1 PUSH1 0x40 MLOAD SWAP1 PUSH4 0xE2517D3F PUSH1 0xE0 SHL DUP3 MSTORE CALLER PUSH1 0x4 DUP4 ADD MSTORE PUSH1 0x24 DUP3 ADD MSTORE REVERT JUMPDEST DUP1 PUSH0 MSTORE PUSH1 0x6 PUSH1 0x20 MSTORE PUSH1 0x40 PUSH0 KECCAK256 CALLER PUSH0 MSTORE PUSH1 0x20 MSTORE PUSH1 0xFF PUSH1 0x40 PUSH0 KECCAK256 SLOAD AND ISZERO PUSH2 0x1EFE JUMPI POP JUMP JUMPDEST PUSH1 0x1 PUSH1 0x1 PUSH1 0xA0 SHL SUB AND PUSH0 DUP2 DUP2 MSTORE PUSH32 0x3195C024B2DDD6D9B8F6C836AA52F67FE69376C8903D009B80229B3CE4425F51 PUSH1 0x20 MSTORE PUSH1 0x40 DUP2 KECCAK256 SLOAD SWAP1 SWAP2 SWAP1 PUSH32 0x9F2DF0FED2C77648DE5860A4CC508CD0818C85B8B8A1AB4CEEEF8D981C8956A6 SWAP1 PUSH1 0xFF AND PUSH2 0x1FEB JUMPI DUP1 DUP4 MSTORE PUSH1 0x6 PUSH1 0x20 MSTORE PUSH1 0x40 DUP4 KECCAK256 DUP3 DUP5 MSTORE PUSH1 0x20 MSTORE PUSH1 0x40 DUP4 KECCAK256 PUSH1 0x1 PUSH1 0xFF NOT DUP3 SLOAD AND OR SWAP1 SSTORE PUSH32 0x2F8788117E7EFF1D82E926EC794901D17C78024A50270940304540A733656F0D CALLER SWAP4 DUP1 LOG4 PUSH1 0x1 SWAP1 JUMP JUMPDEST POP POP SWAP1 JUMP JUMPDEST SWAP1 PUSH0 SWAP2 DUP1 DUP4 MSTORE PUSH1 0x6 PUSH1 0x20 MSTORE PUSH1 0x40 DUP4 KECCAK256 SWAP2 PUSH1 0x1 DUP1 PUSH1 0xA0 SHL SUB AND SWAP2 DUP3 DUP5 MSTORE PUSH1 0x20 MSTORE PUSH1 0xFF PUSH1 0x40 DUP5 KECCAK256 SLOAD AND ISZERO PUSH0 EQ PUSH2 0x1FEB JUMPI DUP1 DUP4 MSTORE PUSH1 0x6 PUSH1 0x20 MSTORE PUSH1 0x40 DUP4 KECCAK256 DUP3 DUP5 MSTORE PUSH1 0x20 MSTORE PUSH1 0x40 DUP4 KECCAK256 PUSH1 0x1 PUSH1 0xFF NOT DUP3 SLOAD AND OR SWAP1 SSTORE PUSH32 0x2F8788117E7EFF1D82E926EC794901D17C78024A50270940304540A733656F0D CALLER SWAP4 DUP1 LOG4 PUSH1 0x1 SWAP1 JUMP JUMPDEST PUSH1 0x1 PUSH1 0x1 PUSH1 0xA0 SHL SUB AND PUSH0 DUP2 DUP2 MSTORE PUSH32 0x3195C024B2DDD6D9B8F6C836AA52F67FE69376C8903D009B80229B3CE4425F51 PUSH1 0x20 MSTORE PUSH1 0x40 DUP2 KECCAK256 SLOAD SWAP1 SWAP2 SWAP1 PUSH32 0x9F2DF0FED2C77648DE5860A4CC508CD0818C85B8B8A1AB4CEEEF8D981C8956A6 SWAP1 PUSH1 0xFF AND ISZERO PUSH2 0x1FEB JUMPI DUP1 DUP4 MSTORE PUSH1 0x6 PUSH1 0x20 MSTORE PUSH1 0x40 DUP4 KECCAK256 DUP3 DUP5 MSTORE PUSH1 0x20 MSTORE PUSH1 0x40 DUP4 KECCAK256 PUSH1 0xFF NOT DUP2 SLOAD AND SWAP1 SSTORE PUSH32 0xF6391F5C32D9C69D2A47EA670B442974B53935D1EDC7FD64EB21E047A839171B CALLER SWAP4 DUP1 LOG4 PUSH1 0x1 SWAP1 JUMP JUMPDEST SWAP1 PUSH0 SWAP2 DUP1 DUP4 MSTORE PUSH1 0x6 PUSH1 0x20 MSTORE PUSH1 0x40 DUP4 KECCAK256 SWAP2 PUSH1 0x1 DUP1 PUSH1 0xA0 SHL SUB AND SWAP2 DUP3 DUP5 MSTORE PUSH1 0x20 MSTORE PUSH1 0xFF PUSH1 0x40 DUP5 KECCAK256 SLOAD AND PUSH0 EQ PUSH2 0x1FEB JUMPI DUP1 DUP4 MSTORE PUSH1 0x6 PUSH1 0x20 MSTORE PUSH1 0x40 DUP4 KECCAK256 DUP3 DUP5 MSTORE PUSH1 0x20 MSTORE PUSH1 0x40 DUP4 KECCAK256 PUSH1 0xFF NOT DUP2 SLOAD AND SWAP1 SSTORE PUSH32 0xF6391F5C32D9C69D2A47EA670B442974B53935D1EDC7FD64EB21E047A839171B CALLER SWAP4 DUP1 LOG4 PUSH1 0x1 SWAP1 JUMP JUMPDEST PUSH1 0x1 PUSH1 0x1 PUSH1 0xA0 SHL SUB AND DUP1 ISZERO PUSH2 0x21A7 JUMPI PUSH0 MSTORE PUSH1 0x3 PUSH1 0x20 MSTORE PUSH1 0x40 PUSH0 KECCAK256 SLOAD SWAP1 JUMP JUMPDEST PUSH1 0x40 MLOAD PUSH4 0x22718AD9 PUSH1 0xE2 SHL DUP2 MSTORE PUSH0 PUSH1 0x4 DUP3 ADD MSTORE PUSH1 0x24 SWAP1 REVERT JUMPDEST SWAP2 SWAP1 PUSH1 0x1 PUSH1 0x1 PUSH1 0xA0 SHL SUB SWAP1 DUP2 DUP2 AND ISZERO PUSH2 0x18A1 JUMPI PUSH2 0x21DF DUP3 SWAP2 DUP5 CALLER SWAP2 PUSH2 0x252A JUMP JUMPDEST SWAP4 AND SWAP3 AND SWAP1 DUP3 DUP3 SUB PUSH2 0x21F0 JUMPI POP POP POP JUMP JUMPDEST PUSH1 0x64 SWAP4 POP PUSH1 0x40 MLOAD SWAP3 PUSH4 0x64283D7B PUSH1 0xE0 SHL DUP5 MSTORE PUSH1 0x4 DUP5 ADD MSTORE PUSH1 0x24 DUP4 ADD MSTORE PUSH1 0x44 DUP3 ADD MSTORE REVERT JUMPDEST PUSH0 DUP2 DUP2 MSTORE PUSH1 0x2 PUSH1 0x20 MSTORE PUSH1 0x40 SWAP1 KECCAK256 SLOAD PUSH1 0x1 PUSH1 0x1 PUSH1 0xA0 SHL SUB AND SWAP1 DUP2 ISZERO PUSH2 0xDD9 JUMPI POP SWAP1 JUMP JUMPDEST SWAP1 SWAP4 SWAP2 SWAP3 DUP4 EXTCODESIZE PUSH2 0x2247 JUMPI JUMPDEST POP POP POP POP POP JUMP JUMPDEST PUSH1 0x40 MLOAD PUSH4 0xA85BD01 PUSH1 0xE1 SHL DUP1 DUP3 MSTORE PUSH1 0x1 PUSH1 0x1 PUSH1 0xA0 SHL SUB SWAP4 DUP5 AND PUSH1 0x4 DUP4 ADD MSTORE SWAP6 DUP4 AND PUSH1 0x24 DUP3 ADD MSTORE PUSH1 0x44 DUP2 ADD SWAP2 SWAP1 SWAP2 MSTORE PUSH1 0x80 PUSH1 0x64 DUP3 ADD MSTORE SWAP5 SWAP3 AND SWAP3 PUSH1 0x20 SWAP3 SWAP2 DUP6 SWAP1 PUSH2 0x2294 SWAP1 PUSH1 0x84 DUP4 ADD SWAP1 PUSH2 0x1C28 JUMP JUMPDEST SUB SWAP5 DUP4 DUP2 PUSH0 SWAP8 DUP2 DUP10 DUP10 GAS CALL DUP7 SWAP2 DUP2 PUSH2 0x233D JUMPI JUMPDEST POP PUSH2 0x2307 JUMPI POP POP POP RETURNDATASIZE PUSH0 EQ PUSH2 0x22FE JUMPI RETURNDATASIZE PUSH2 0x22C0 DUP2 PUSH2 0x1CC0 JUMP JUMPDEST SWAP1 PUSH2 0x22CE PUSH1 0x40 MLOAD SWAP3 DUP4 PUSH2 0x1C9F JUMP JUMPDEST DUP2 MSTORE DUP1 SWAP4 DUP3 RETURNDATASIZE SWAP3 ADD RETURNDATACOPY JUMPDEST DUP3 MLOAD SWAP3 DUP4 PUSH2 0x22F9 JUMPI PUSH1 0x40 MLOAD PUSH4 0x32505749 PUSH1 0xE1 SHL DUP2 MSTORE PUSH1 0x4 DUP2 ADD DUP5 SWAP1 MSTORE PUSH1 0x24 SWAP1 REVERT JUMPDEST ADD SWAP1 POP REVERT JUMPDEST PUSH1 0x60 SWAP3 POP PUSH2 0x22D8 JUMP JUMPDEST SWAP2 SWAP5 POP SWAP2 POP PUSH4 0xFFFFFFFF PUSH1 0xE0 SHL AND SUB PUSH2 0x2325 JUMPI POP PUSH0 DUP1 DUP1 DUP1 DUP1 PUSH2 0x2240 JUMP JUMPDEST PUSH1 0x24 SWAP1 PUSH1 0x40 MLOAD SWAP1 PUSH4 0x32505749 PUSH1 0xE1 SHL DUP3 MSTORE PUSH1 0x4 DUP3 ADD MSTORE REVERT JUMPDEST SWAP1 SWAP2 POP DUP5 DUP2 DUP2 RETURNDATASIZE DUP4 GT PUSH2 0x237A JUMPI JUMPDEST PUSH2 0x2355 DUP2 DUP4 PUSH2 0x1C9F JUMP JUMPDEST DUP2 ADD SUB SLT PUSH2 0x2376 JUMPI MLOAD PUSH1 0x1 PUSH1 0x1 PUSH1 0xE0 SHL SUB NOT DUP2 AND DUP2 SUB PUSH2 0x2376 JUMPI SWAP1 PUSH0 PUSH2 0x22A7 JUMP JUMPDEST DUP7 DUP1 REVERT JUMPDEST POP RETURNDATASIZE PUSH2 0x234B JUMP JUMPDEST PUSH0 NOT DUP2 EQ PUSH2 0x76E JUMPI PUSH1 0x1 ADD SWAP1 JUMP JUMPDEST DUP1 SLOAD SWAP1 PUSH9 0x10000000000000000 DUP3 LT ISZERO PUSH2 0x796 JUMPI PUSH1 0x1 DUP3 ADD DUP1 DUP3 SSTORE DUP3 LT ISZERO PUSH2 0x782 JUMPI PUSH0 MSTORE PUSH1 0x20 PUSH0 KECCAK256 ADD SSTORE JUMP JUMPDEST PUSH0 SWAP1 DUP2 MSTORE PUSH1 0x2 PUSH1 0x20 MSTORE PUSH1 0x40 DUP2 KECCAK256 SLOAD PUSH1 0x1 PUSH1 0x1 PUSH1 0xA0 SHL SUB SWAP1 DUP2 AND ISZERO PUSH2 0x2485 JUMPI PUSH1 0x8 PUSH1 0x20 MSTORE PUSH1 0x40 DUP3 KECCAK256 PUSH1 0x40 MLOAD SWAP2 PUSH2 0x23EF DUP4 PUSH2 0x1C4D JUMP JUMPDEST PUSH2 0x23F8 DUP3 PUSH2 0x1E02 JUMP JUMPDEST DUP4 MSTORE PUSH2 0x2406 PUSH1 0x1 DUP4 ADD PUSH2 0x1E02 JUMP JUMPDEST PUSH1 0x20 DUP5 ADD MSTORE PUSH1 0x2 DUP3 ADD SLOAD AND PUSH1 0x40 DUP4 ADD MSTORE PUSH1 0x3 DUP2 ADD SLOAD PUSH1 0x60 DUP4 ADD MSTORE PUSH1 0x4 DUP2 ADD SLOAD SWAP2 PUSH1 0x80 DUP2 ADD SWAP3 DUP4 MSTORE PUSH2 0x2439 PUSH1 0x5 DUP4 ADD PUSH2 0x1E02 JUMP JUMPDEST PUSH1 0xA0 DUP3 ADD MSTORE PUSH1 0xE0 PUSH2 0x245D PUSH1 0x7 PUSH1 0xFF PUSH1 0x6 DUP7 ADD SLOAD AND SWAP5 PUSH1 0xC0 DUP6 ADD SWAP6 ISZERO ISZERO DUP7 MSTORE ADD PUSH2 0x1E02 JUMP JUMPDEST SWAP2 ADD MSTORE MLOAD PUSH2 0x2485 JUMPI MLOAD DUP1 ISZERO ISZERO SWAP1 DUP2 PUSH2 0x247B JUMPI JUMPDEST POP PUSH2 0x1D2C JUMPI POP PUSH1 0x1 SWAP1 JUMP JUMPDEST SWAP1 POP TIMESTAMP GT PUSH0 PUSH2 0x2470 JUMP JUMPDEST POP SWAP1 JUMP JUMPDEST PUSH1 0x1 PUSH1 0x1 PUSH1 0x40 SHL SUB DUP2 GT PUSH2 0x796 JUMPI PUSH1 0x5 SHL PUSH1 0x20 ADD SWAP1 JUMP JUMPDEST DUP1 MLOAD DUP3 LT ISZERO PUSH2 0x782 JUMPI PUSH1 0x20 SWAP2 PUSH1 0x5 SHL ADD ADD SWAP1 JUMP JUMPDEST SWAP1 DUP1 PUSH0 MSTORE PUSH1 0x2 PUSH1 0x20 MSTORE PUSH1 0x1 DUP1 PUSH1 0xA0 SHL SUB DUP1 PUSH1 0x40 PUSH0 KECCAK256 SLOAD AND ISZERO PUSH2 0x24F2 JUMPI DUP3 AND ISZERO PUSH2 0x24E9 JUMPI PUSH1 0x40 MLOAD PUSH4 0xF6D0F92F PUSH1 0xE0 SHL DUP2 MSTORE PUSH1 0x4 SWAP1 REVERT JUMPDEST PUSH2 0x1D2C SWAP2 PUSH2 0x2573 JUMP JUMPDEST POP PUSH2 0x1D2C SWAP2 PUSH2 0x2573 JUMP JUMPDEST PUSH0 DUP2 DUP2 MSTORE PUSH1 0x2 PUSH1 0x20 MSTORE PUSH1 0x40 SWAP1 KECCAK256 SLOAD PUSH1 0x1 PUSH1 0x1 PUSH1 0xA0 SHL SUB AND ISZERO PUSH2 0x2521 JUMPI PUSH2 0x1D2C SWAP1 PUSH2 0x262A JUMP JUMPDEST PUSH2 0x1D2C SWAP1 PUSH2 0x262A JUMP JUMPDEST SWAP2 SWAP1 DUP1 PUSH0 MSTORE PUSH1 0x2 PUSH1 0x20 MSTORE PUSH1 0x1 DUP1 PUSH1 0xA0 SHL SUB DUP1 PUSH1 0x40 PUSH0 KECCAK256 SLOAD AND ISZERO PUSH2 0x2569 JUMPI DUP4 AND ISZERO PUSH2 0x2560 JUMPI PUSH1 0x40 MLOAD PUSH4 0xF6D0F92F PUSH1 0xE0 SHL DUP2 MSTORE PUSH1 0x4 SWAP1 REVERT JUMPDEST PUSH2 0x1D2C SWAP3 PUSH2 0x26BC JUMP JUMPDEST POP PUSH2 0x1D2C SWAP3 PUSH2 0x26BC JUMP JUMPDEST PUSH0 DUP3 DUP2 MSTORE PUSH1 0x2 PUSH1 0x20 MSTORE PUSH1 0x40 DUP2 KECCAK256 SLOAD PUSH1 0x1 PUSH1 0x1 PUSH1 0xA0 SHL SUB SWAP1 DUP2 AND SWAP4 SWAP3 DUP5 SWAP2 PUSH32 0xDDF252AD1BE2C89B69C2B068FC378DAA952BA7F163C4A11628F55A4DF523B3EF SWAP2 DUP4 PUSH2 0x25F9 JUMPI JUMPDEST AND SWAP3 DUP4 PUSH2 0x25E1 JUMPI JUMPDEST DUP5 DUP2 MSTORE PUSH1 0x2 PUSH1 0x20 MSTORE PUSH1 0x40 DUP2 KECCAK256 DUP1 SLOAD PUSH1 0x1 PUSH1 0x1 PUSH1 0xA0 SHL SUB NOT AND DUP6 OR SWAP1 SSTORE DUP1 LOG4 SWAP1 JUMP JUMPDEST DUP4 DUP2 MSTORE PUSH1 0x3 PUSH1 0x20 MSTORE PUSH1 0x40 DUP2 KECCAK256 PUSH1 0x1 DUP2 SLOAD ADD SWAP1 SSTORE PUSH2 0x25C0 JUMP JUMPDEST PUSH1 0x4 PUSH1 0x20 MSTORE PUSH1 0x40 DUP6 KECCAK256 PUSH1 0x1 PUSH1 0x1 PUSH1 0x60 SHL SUB PUSH1 0xA0 SHL DUP2 SLOAD AND SWAP1 SSTORE DUP4 DUP6 MSTORE PUSH1 0x3 PUSH1 0x20 MSTORE PUSH1 0x40 DUP6 KECCAK256 PUSH0 NOT DUP2 SLOAD ADD SWAP1 SSTORE PUSH2 0x25B8 JUMP JUMPDEST PUSH0 DUP2 DUP2 MSTORE PUSH1 0x2 PUSH1 0x20 MSTORE PUSH1 0x40 DUP2 KECCAK256 SLOAD PUSH1 0x1 PUSH1 0x1 PUSH1 0xA0 SHL SUB AND SWAP2 SWAP1 DUP3 PUSH2 0x268B JUMPI JUMPDEST DUP2 DUP2 MSTORE PUSH1 0x2 PUSH1 0x20 MSTORE PUSH1 0x40 DUP2 KECCAK256 DUP1 SLOAD PUSH1 0x1 PUSH1 0x1 PUSH1 0xA0 SHL SUB NOT AND SWAP1 SSTORE DUP3 PUSH32 0xDDF252AD1BE2C89B69C2B068FC378DAA952BA7F163C4A11628F55A4DF523B3EF DUP3 DUP1 LOG4 SWAP1 JUMP JUMPDEST PUSH1 0x4 PUSH1 0x20 MSTORE PUSH1 0x40 DUP2 KECCAK256 PUSH1 0x1 PUSH1 0x1 PUSH1 0x60 SHL SUB PUSH1 0xA0 SHL DUP2 SLOAD AND SWAP1 SSTORE DUP3 DUP2 MSTORE PUSH1 0x3 PUSH1 0x20 MSTORE PUSH1 0x40 DUP2 KECCAK256 PUSH0 NOT DUP2 SLOAD ADD SWAP1 SSTORE PUSH2 0x2649 JUMP JUMPDEST SWAP2 PUSH0 SWAP3 DUP3 DUP5 MSTORE PUSH1 0x20 SWAP2 PUSH1 0x2 DUP4 MSTORE PUSH1 0x1 DUP1 PUSH1 0xA0 SHL SUB SWAP5 PUSH1 0x40 DUP7 DUP1 DUP3 DUP5 KECCAK256 SLOAD AND SWAP8 DUP9 SWAP5 AND DUP1 ISZERO ISZERO DUP1 PUSH2 0x277C JUMPI JUMPDEST POP POP PUSH1 0x2 SWAP1 DUP5 SWAP6 PUSH32 0xDDF252AD1BE2C89B69C2B068FC378DAA952BA7F163C4A11628F55A4DF523B3EF SWAP6 PUSH2 0x274E JUMPI JUMPDEST AND SWAP6 DUP7 PUSH2 0x2738 JUMPI JUMPDEST DUP8 DUP5 MSTORE MSTORE DUP2 KECCAK256 DUP1 SLOAD PUSH1 0x1 PUSH1 0x1 PUSH1 0xA0 SHL SUB NOT AND DUP6 OR SWAP1 SSTORE DUP1 LOG4 SWAP1 JUMP JUMPDEST DUP7 DUP5 MSTORE PUSH1 0x3 DUP2 MSTORE DUP3 DUP5 KECCAK256 PUSH1 0x1 DUP2 SLOAD ADD SWAP1 SSTORE PUSH2 0x271D JUMP JUMPDEST DUP9 DUP6 MSTORE PUSH1 0x4 DUP9 MSTORE DUP4 DUP6 KECCAK256 DUP1 SLOAD PUSH1 0x1 PUSH1 0x1 PUSH1 0xA0 SHL SUB NOT AND SWAP1 SSTORE DUP7 DUP6 MSTORE PUSH1 0x3 DUP9 MSTORE DUP4 DUP6 KECCAK256 DUP1 SLOAD PUSH0 NOT ADD SWAP1 SSTORE PUSH2 0x2715 JUMP JUMPDEST SWAP4 SWAP6 SWAP3 SWAP5 POP SWAP1 SWAP3 DUP1 PUSH2 0x27D8 JUMPI JUMPDEST ISZERO PUSH2 0x279A JUMPI SWAP2 DUP3 DUP9 SWAP5 SWAP3 SWAP6 SWAP4 PUSH2 0x26E7 JUMP JUMPDEST DUP7 DUP5 SWAP2 DUP10 ISZERO PUSH0 EQ PUSH2 0x27BC JUMPI POP PUSH1 0x24 SWAP2 MLOAD SWAP1 PUSH4 0x7E273289 PUSH1 0xE0 SHL DUP3 MSTORE PUSH1 0x4 DUP3 ADD MSTORE REVERT JUMPDEST SWAP1 PUSH1 0x44 SWAP3 MLOAD SWAP2 PUSH4 0x177E802F PUSH1 0xE0 SHL DUP4 MSTORE PUSH1 0x4 DUP4 ADD MSTORE PUSH1 0x24 DUP3 ADD MSTORE REVERT JUMPDEST POP DUP1 DUP9 EQ DUP1 ISZERO PUSH2 0x27FD JUMPI JUMPDEST DUP1 PUSH2 0x2789 JUMPI POP DUP7 DUP6 MSTORE PUSH1 0x4 DUP7 MSTORE DUP1 DUP4 DUP6 DUP8 KECCAK256 SLOAD AND EQ PUSH2 0x2789 JUMP JUMPDEST POP DUP8 DUP6 MSTORE PUSH1 0x5 DUP7 MSTORE DUP4 DUP6 KECCAK256 DUP2 DUP7 MSTORE DUP7 MSTORE PUSH1 0xFF DUP5 DUP7 KECCAK256 SLOAD AND PUSH2 0x27E3 JUMP JUMPDEST DUP1 PUSH0 SWAP2 PUSH27 0x184F03E93FF9F4DAA797ED6E38ED64BF6A1F010000000000000000 DUP1 DUP3 LT ISZERO PUSH2 0x2971 JUMPI JUMPDEST POP PUSH14 0x4EE2D6D415B85ACEF8100000000 DUP1 DUP4 LT ISZERO PUSH2 0x2962 JUMPI JUMPDEST POP PUSH7 0x2386F26FC10000 DUP1 DUP4 LT ISZERO PUSH2 0x2953 JUMPI JUMPDEST POP PUSH4 0x5F5E100 DUP1 DUP4 LT ISZERO PUSH2 0x2944 JUMPI JUMPDEST POP PUSH2 0x2710 DUP1 DUP4 LT ISZERO PUSH2 0x2935 JUMPI JUMPDEST POP PUSH1 0x64 DUP3 LT ISZERO PUSH2 0x2925 JUMPI JUMPDEST PUSH1 0xA DUP1 SWAP3 LT ISZERO PUSH2 0x291B JUMPI JUMPDEST PUSH1 0x1 SWAP1 DUP2 PUSH1 0x21 DUP2 DUP7 ADD SWAP6 PUSH2 0x28B1 DUP8 PUSH2 0x1CC0 JUMP JUMPDEST SWAP7 PUSH2 0x28BF PUSH1 0x40 MLOAD SWAP9 DUP10 PUSH2 0x1C9F JUMP JUMPDEST DUP1 DUP9 MSTORE PUSH2 0x28CE PUSH1 0x1F NOT SWAP2 PUSH2 0x1CC0 JUMP JUMPDEST ADD CALLDATASIZE PUSH1 0x20 DUP10 ADD CALLDATACOPY DUP7 ADD ADD SWAP1 JUMPDEST PUSH2 0x28E6 JUMPI JUMPDEST POP POP POP POP SWAP1 JUMP JUMPDEST PUSH0 NOT ADD SWAP1 DUP4 SWAP1 PUSH16 0x181899199A1A9B1B9C1CB0B131B232B3 PUSH1 0x81 SHL DUP3 DUP3 MOD BYTE DUP4 MSTORE8 DIV SWAP2 DUP3 ISZERO PUSH2 0x2916 JUMPI SWAP2 SWAP1 DUP3 PUSH2 0x28DA JUMP JUMPDEST PUSH2 0x28DF JUMP JUMPDEST SWAP2 PUSH1 0x1 ADD SWAP2 PUSH2 0x289E JUMP JUMPDEST SWAP2 SWAP1 PUSH1 0x64 PUSH1 0x2 SWAP2 DIV SWAP2 ADD SWAP2 PUSH2 0x2893 JUMP JUMPDEST PUSH1 0x4 SWAP2 SWAP4 SWAP3 DIV SWAP2 ADD SWAP2 PUSH0 PUSH2 0x2888 JUMP JUMPDEST PUSH1 0x8 SWAP2 SWAP4 SWAP3 DIV SWAP2 ADD SWAP2 PUSH0 PUSH2 0x287B JUMP JUMPDEST PUSH1 0x10 SWAP2 SWAP4 SWAP3 DIV SWAP2 ADD SWAP2 PUSH0 PUSH2 0x286C JUMP JUMPDEST PUSH1 0x20 SWAP2 SWAP4 SWAP3 DIV SWAP2 ADD SWAP2 PUSH0 PUSH2 0x285A JUMP JUMPDEST PUSH1 0x40 SWAP4 POP DUP2 DIV SWAP2 POP PUSH0 PUSH2 0x2841 JUMP INVALID LOG2 PUSH5 0x6970667358 0x22 SLT KECCAK256 SWAP7 0xCC PC CHAINID SHL 0x4F CALL ADDRESS OR 0x2C 0xAD 0xE1 PUSH3 0x643959 0xBD 0xCA 0x2C 0xC4 SUB 0x5D EQ 0x21 0xD DUP5 PUSH19 0x28FDF7003D64736F6C634300081400332F8788 GT PUSH31 0x7EFF1D82E926EC794901D17C78024A50270940304540A733656F0D00000000 "},"methodIdentifiers":{"ADMIN_ROLE()":"75b238fc","DEFAULT_ADMIN_ROLE()":"a217fddf","MINTER_ROLE()":"d5391393","approve(address,uint256)":"095ea7b3","balanceOf(address)":"70a08231","getApproved(uint256)":"081812fc","getPassMetadata(uint256)":"7a5bb4b6","getPassesByHolder(address)":"279967f5","getPassesByLocation(string)":"08df6328","getRoleAdmin(bytes32)":"248a9ca3","grantMinterRole(address)":"3dd1eb61","grantRole(bytes32,address)":"2f2ff15d","hasRole(bytes32,address)":"91d14854","isApprovedForAll(address,address)":"e985e9c5","isPassValid(uint256)":"48c6195d","mintAccessPass(address,string,string,uint256,string,string)":"14e2e8d7","name()":"06fdde03","ownerOf(uint256)":"6352211e","passMetadata(uint256)":"9ba9b29d","renounceRole(bytes32,address)":"36568abe","revokeAccessPass(uint256)":"519db6c5","revokeMinterRole(address)":"69e2f0fb","revokeRole(bytes32,address)":"d547741f","safeTransferFrom(address,address,uint256)":"42842e0e","safeTransferFrom(address,address,uint256,bytes)":"b88d4fde","setApprovalForAll(address,bool)":"a22cb465","supportsInterface(bytes4)":"01ffc9a7","symbol()":"95d89b41","tokenURI(uint256)":"c87b56dd","totalMinted()":"a2309ff8","transferFrom(address,address,uint256)":"23b872dd"}}}}}