{
  "_format": "hh-sol-artifact-1",
  "contractName": "FormsV2",
  "sourceName": "contracts/FormsV2.sol",
  "abi": [
    {
      "anonymous": false,
      "inputs": [
        {
          "indexed": true,
          "internalType": "uint256",
          "name": "formId",
          "type": "uint256"
        },
        {
          "indexed": false,
          "internalType": "string",
          "name": "cid",
          "type": "string"
        },
        {
          "indexed": true,
          "internalType": "address",
          "name": "creator",
          "type": "address"
        },
        {
          "indexed": false,
          "internalType": "uint256",
          "name": "timestamp",
          "type": "uint256"
        }
      ],
      "name": "FormRegistered",
      "type": "event"
    },
    {
      "anonymous": false,
      "inputs": [
        {
          "indexed": true,
          "internalType": "uint256",
          "name": "formId",
          "type": "uint256"
        },
        {
          "indexed": false,
          "internalType": "uint256",
          "name": "responseIdx",
          "type": "uint256"
        },
        {
          "indexed": false,
          "internalType": "string",
          "name": "cid",
          "type": "string"
        },
        {
          "indexed": false,
          "internalType": "uint256",
          "name": "timestamp",
          "type": "uint256"
        }
      ],
      "name": "ResponseSubmitted",
      "type": "event"
    },
    {
      "inputs": [
        {
          "internalType": "uint256",
          "name": "",
          "type": "uint256"
        }
      ],
      "name": "formCids",
      "outputs": [
        {
          "internalType": "string",
          "name": "",
          "type": "string"
        }
      ],
      "stateMutability": "view",
      "type": "function"
    },
    {
      "inputs": [],
      "name": "formCount",
      "outputs": [
        {
          "internalType": "uint256",
          "name": "",
          "type": "uint256"
        }
      ],
      "stateMutability": "view",
      "type": "function"
    },
    {
      "inputs": [
        {
          "internalType": "uint256",
          "name": "",
          "type": "uint256"
        }
      ],
      "name": "formCreators",
      "outputs": [
        {
          "internalType": "address",
          "name": "",
          "type": "address"
        }
      ],
      "stateMutability": "view",
      "type": "function"
    },
    {
      "inputs": [
        {
          "internalType": "uint256",
          "name": "formId",
          "type": "uint256"
        }
      ],
      "name": "formExists",
      "outputs": [
        {
          "internalType": "bool",
          "name": "",
          "type": "bool"
        }
      ],
      "stateMutability": "view",
      "type": "function"
    },
    {
      "inputs": [
        {
          "internalType": "uint256",
          "name": "formId",
          "type": "uint256"
        }
      ],
      "name": "getFormCid",
      "outputs": [
        {
          "internalType": "string",
          "name": "",
          "type": "string"
        }
      ],
      "stateMutability": "view",
      "type": "function"
    },
    {
      "inputs": [
        {
          "internalType": "uint256",
          "name": "formId",
          "type": "uint256"
        }
      ],
      "name": "getFormCreator",
      "outputs": [
        {
          "internalType": "address",
          "name": "",
          "type": "address"
        }
      ],
      "stateMutability": "view",
      "type": "function"
    },
    {
      "inputs": [
        {
          "internalType": "uint256",
          "name": "formId",
          "type": "uint256"
        }
      ],
      "name": "getResponseCids",
      "outputs": [
        {
          "internalType": "string[]",
          "name": "",
          "type": "string[]"
        }
      ],
      "stateMutability": "view",
      "type": "function"
    },
    {
      "inputs": [
        {
          "internalType": "uint256",
          "name": "formId",
          "type": "uint256"
        }
      ],
      "name": "getResponseCount",
      "outputs": [
        {
          "internalType": "uint256",
          "name": "",
          "type": "uint256"
        }
      ],
      "stateMutability": "view",
      "type": "function"
    },
    {
      "inputs": [
        {
          "internalType": "string",
          "name": "formCid",
          "type": "string"
        }
      ],
      "name": "registerForm",
      "outputs": [
        {
          "internalType": "uint256",
          "name": "",
          "type": "uint256"
        }
      ],
      "stateMutability": "nonpayable",
      "type": "function"
    },
    {
      "inputs": [
        {
          "internalType": "uint256",
          "name": "",
          "type": "uint256"
        },
        {
          "internalType": "uint256",
          "name": "",
          "type": "uint256"
        }
      ],
      "name": "responseCids",
      "outputs": [
        {
          "internalType": "string",
          "name": "",
          "type": "string"
        }
      ],
      "stateMutability": "view",
      "type": "function"
    },
    {
      "inputs": [
        {
          "internalType": "uint256",
          "name": "formId",
          "type": "uint256"
        },
        {
          "internalType": "string",
          "name": "responseCid",
          "type": "string"
        }
      ],
      "name": "submitResponse",
      "outputs": [
        {
          "internalType": "uint256",
          "name": "",
          "type": "uint256"
        }
      ],
      "stateMutability": "nonpayable",
      "type": "function"
    }
  ],
  "bytecode": "0x60808060405234610016576108a1908161001c8239f35b600080fdfe6040608081526004908136101561001557600080fd5b600090813560e01c806313b2aa69146101d3578063146c14151461051f57806327843e4d146104c25780632a9f64ad146103dc5780639a7b4b2f146101a05780639dc0be4d146103ab578063a7dbf9361461023b578063dee4571b14610213578063e13d862a146101d3578063e33d7b64146101a05763fc0db64b1461009a57600080fd5b3461019c57602092836003193601126101985780358352600193600181528284209283549267ffffffffffffffff8411610185575091849086928451916100e6828260051b01846105e5565b8083528183018097855282852085915b83831061015857505050508451948186019282875251809352808601908360051b8701019693905b83821061012b5786880387f35b90919293948380610147839a603f198b8203018652895161053d565b99970195949391909101910161011e565b90878086819c9a959461016f859d999a9b9d61061d565b81520192019201925098969897959493976100f6565b634e487b7160e01b865260419052602485fd5b8280fd5b5080fd5b5082346101985760203660031901126101985735825260026020908152918190205490516001600160a01b039091168152f35b508234610198576020366003190112610198578161020f936101fc92358152806020522061061d565b905191829160208352602083019061053d565b0390f35b5082346101985760203660031901126101985760209282913581526001845220549051908152f35b50829034610198578060031936011261019857813560243567ffffffffffffffff81116103a75761026f90369085016106c2565b818552602094808652610284848220546105ab565b1561036e576102958251151561071e565b828152600186528381208054906801000000000000000082101561035b57906102c39160018201815561057d565b61034957826102d191610758565b82815260018652838120546000198101959086116103365750506103287f79d69a8c4831d6bf2d0c93f48f736da01f826da2675da3289302a361861dd63d918451918291878352606089840152606083019061053d565b42868301520390a251908152f35b634e487b7160e01b825260119052602490fd5b634e487b7160e01b8252818652602482fd5b634e487b7160e01b835260418752602483fd5b835162461bcd60e51b81528086018790526013602482015272119bdc9b48191bd95cc81b9bdd08195e1a5cdd606a1b6044820152606490fd5b8480fd5b50823461019857602036600319011261019857816020936103d39235815280855220546105ab565b15159051908152f35b503461019c57602036600319011261019c57823567ffffffffffffffff81116101985761040c90369085016106c2565b916104198351151561071e565b60035460001981146104af576020945090600183920180600355815280855261044484838320610758565b60035481526002855220336bffffffffffffffffffffffff60a01b82541617905560035491827fb2895f93825c573214014d04728457ab7ea2ca8c14ee95113dc52e1d172d9f4261049d8451938585528585019061053d565b9242878201528033940390a351908152f35b634e487b7160e01b825260118552602482fd5b50903461051c578160031936011261051c57602435833582526001602052828220805482101561019857906104f69161057d565b93909361050a5761020f836101fc8661061d565b634e487b7160e01b8252819052602490fd5b80fd5b503461019c578160031936011261019c576020906003549051908152f35b919082519283825260005b848110610569575050826000602080949584010152601f8019910116010190565b602081830181015184830182015201610548565b80548210156105955760005260206000200190600090565b634e487b7160e01b600052603260045260246000fd5b90600182811c921680156105db575b60208310146105c557565b634e487b7160e01b600052602260045260246000fd5b91607f16916105ba565b90601f8019910116810190811067ffffffffffffffff82111761060757604052565b634e487b7160e01b600052604160045260246000fd5b90604051918260008254610630816105ab565b908184526020946001916001811690816000146106a05750600114610661575b50505061065f925003836105e5565b565b600090815285812095935091905b81831061068857505061065f9350820101388080610650565b8554888401850152948501948794509183019161066f565b9250505061065f94925060ff191682840152151560051b820101388080610650565b81601f820112156107195780359067ffffffffffffffff821161060757604051926106f7601f8401601f1916602001856105e5565b8284526020838301011161071957816000926020809301838601378301015290565b600080fd5b1561072557565b60405162461bcd60e51b815260206004820152600b60248201526a125b9d985b1a590810d25160aa1b6044820152606490fd5b919091825167ffffffffffffffff81116106075761077682546105ab565b601f8111610821575b50602080601f83116001146107bc5750819293946000926107b1575b50508160011b916000199060031b1c1916179055565b01519050388061079b565b90601f19831695846000526020600020926000905b888210610809575050836001959697106107f0575b505050811b019055565b015160001960f88460031b161c191690553880806107e6565b806001859682949686015181550195019301906107d1565b6000836000526020600020601f840160051c81019260208510610861575b601f0160051c01915b82811061085657505061077f565b818155600101610848565b909250829061083f56fea264697066735822122047fe286731fa1766ccdb3d23dcf5b81d270130397f1f3e43432f6272f68c06fd64736f6c63430008180033",
  "linkReferences": {},
  "deployedLinkReferences": {}
}