{"contracts/FormsV2.sol":{"FormsV2":{"abi":[{"anonymous":false,"inputs":[{"indexed":true,"internalType":"uint256","name":"formId","type":"uint256"},{"indexed":false,"internalType":"string","name":"cid","type":"string"},{"indexed":true,"internalType":"address","name":"creator","type":"address"},{"indexed":false,"internalType":"uint256","name":"timestamp","type":"uint256"}],"name":"FormRegistered","type":"event"},{"anonymous":false,"inputs":[{"indexed":true,"internalType":"uint256","name":"formId","type":"uint256"},{"indexed":false,"internalType":"uint256","name":"responseIdx","type":"uint256"},{"indexed":false,"internalType":"string","name":"cid","type":"string"},{"indexed":false,"internalType":"uint256","name":"timestamp","type":"uint256"}],"name":"ResponseSubmitted","type":"event"},{"inputs":[{"internalType":"uint256","name":"","type":"uint256"}],"name":"formCids","outputs":[{"internalType":"string","name":"","type":"string"}],"stateMutability":"view","type":"function"},{"inputs":[],"name":"formCount","outputs":[{"internalType":"uint256","name":"","type":"uint256"}],"stateMutability":"view","type":"function"},{"inputs":[{"internalType":"uint256","name":"","type":"uint256"}],"name":"formCreators","outputs":[{"internalType":"address","name":"","type":"address"}],"stateMutability":"view","type":"function"},{"inputs":[{"internalType":"uint256","name":"formId","type":"uint256"}],"name":"formExists","outputs":[{"internalType":"bool","name":"","type":"bool"}],"stateMutability":"view","type":"function"},{"inputs":[{"internalType":"uint256","name":"formId","type":"uint256"}],"name":"getFormCid","outputs":[{"internalType":"string","name":"","type":"string"}],"stateMutability":"view","type":"function"},{"inputs":[{"internalType":"uint256","name":"formId","type":"uint256"}],"name":"getFormCreator","outputs":[{"internalType":"address","name":"","type":"address"}],"stateMutability":"view","type":"function"},{"inputs":[{"internalType":"uint256","name":"formId","type":"uint256"}],"name":"getResponseCids","outputs":[{"internalType":"string[]","name":"","type":"string[]"}],"stateMutability":"view","type":"function"},{"inputs":[{"internalType":"uint256","name":"formId","type":"uint256"}],"name":"getResponseCount","outputs":[{"internalType":"uint256","name":"","type":"uint256"}],"stateMutability":"view","type":"function"},{"inputs":[{"internalType":"string","name":"formCid","type":"string"}],"name":"registerForm","outputs":[{"internalType":"uint256","name":"","type":"uint256"}],"stateMutability":"nonpayable","type":"function"},{"inputs":[{"internalType":"uint256","name":"","type":"uint256"},{"internalType":"uint256","name":"","type":"uint256"}],"name":"responseCids","outputs":[{"internalType":"string","name":"","type":"string"}],"stateMutability":"view","type":"function"},{"inputs":[{"internalType":"uint256","name":"formId","type":"uint256"},{"internalType":"string","name":"responseCid","type":"string"}],"name":"submitResponse","outputs":[{"internalType":"uint256","name":"","type":"uint256"}],"stateMutability":"nonpayable","type":"function"}],"evm":{"bytecode":{"linkReferences":{},"object":"60808060405234610016576108a1908161001c8239f35b600080fdfe6040608081526004908136101561001557600080fd5b600090813560e01c806313b2aa69146101d3578063146c14151461051f57806327843e4d146104c25780632a9f64ad146103dc5780639a7b4b2f146101a05780639dc0be4d146103ab578063a7dbf9361461023b578063dee4571b14610213578063e13d862a146101d3578063e33d7b64146101a05763fc0db64b1461009a57600080fd5b3461019c57602092836003193601126101985780358352600193600181528284209283549267ffffffffffffffff8411610185575091849086928451916100e6828260051b01846105e5565b8083528183018097855282852085915b83831061015857505050508451948186019282875251809352808601908360051b8701019693905b83821061012b5786880387f35b90919293948380610147839a603f198b8203018652895161053d565b99970195949391909101910161011e565b90878086819c9a959461016f859d999a9b9d61061d565b81520192019201925098969897959493976100f6565b634e487b7160e01b865260419052602485fd5b8280fd5b5080fd5b5082346101985760203660031901126101985735825260026020908152918190205490516001600160a01b039091168152f35b508234610198576020366003190112610198578161020f936101fc92358152806020522061061d565b905191829160208352602083019061053d565b0390f35b5082346101985760203660031901126101985760209282913581526001845220549051908152f35b50829034610198578060031936011261019857813560243567ffffffffffffffff81116103a75761026f90369085016106c2565b818552602094808652610284848220546105ab565b1561036e576102958251151561071e565b828152600186528381208054906801000000000000000082101561035b57906102c39160018201815561057d565b61034957826102d191610758565b82815260018652838120546000198101959086116103365750506103287f79d69a8c4831d6bf2d0c93f48f736da01f826da2675da3289302a361861dd63d918451918291878352606089840152606083019061053d565b42868301520390a251908152f35b634e487b7160e01b825260119052602490fd5b634e487b7160e01b8252818652602482fd5b634e487b7160e01b835260418752602483fd5b835162461bcd60e51b81528086018790526013602482015272119bdc9b48191bd95cc81b9bdd08195e1a5cdd606a1b6044820152606490fd5b8480fd5b50823461019857602036600319011261019857816020936103d39235815280855220546105ab565b15159051908152f35b503461019c57602036600319011261019c57823567ffffffffffffffff81116101985761040c90369085016106c2565b916104198351151561071e565b60035460001981146104af576020945090600183920180600355815280855261044484838320610758565b60035481526002855220336bffffffffffffffffffffffff60a01b82541617905560035491827fb2895f93825c573214014d04728457ab7ea2ca8c14ee95113dc52e1d172d9f4261049d8451938585528585019061053d565b9242878201528033940390a351908152f35b634e487b7160e01b825260118552602482fd5b50903461051c578160031936011261051c57602435833582526001602052828220805482101561019857906104f69161057d565b93909361050a5761020f836101fc8661061d565b634e487b7160e01b8252819052602490fd5b80fd5b503461019c578160031936011261019c576020906003549051908152f35b919082519283825260005b848110610569575050826000602080949584010152601f8019910116010190565b602081830181015184830182015201610548565b80548210156105955760005260206000200190600090565b634e487b7160e01b600052603260045260246000fd5b90600182811c921680156105db575b60208310146105c557565b634e487b7160e01b600052602260045260246000fd5b91607f16916105ba565b90601f8019910116810190811067ffffffffffffffff82111761060757604052565b634e487b7160e01b600052604160045260246000fd5b90604051918260008254610630816105ab565b908184526020946001916001811690816000146106a05750600114610661575b50505061065f925003836105e5565b565b600090815285812095935091905b81831061068857505061065f9350820101388080610650565b8554888401850152948501948794509183019161066f565b9250505061065f94925060ff191682840152151560051b820101388080610650565b81601f820112156107195780359067ffffffffffffffff821161060757604051926106f7601f8401601f1916602001856105e5565b8284526020838301011161071957816000926020809301838601378301015290565b600080fd5b1561072557565b60405162461bcd60e51b815260206004820152600b60248201526a125b9d985b1a590810d25160aa1b6044820152606490fd5b919091825167ffffffffffffffff81116106075761077682546105ab565b601f8111610821575b50602080601f83116001146107bc5750819293946000926107b1575b50508160011b916000199060031b1c1916179055565b01519050388061079b565b90601f19831695846000526020600020926000905b888210610809575050836001959697106107f0575b505050811b019055565b015160001960f88460031b161c191690553880806107e6565b806001859682949686015181550195019301906107d1565b6000836000526020600020601f840160051c81019260208510610861575b601f0160051c01915b82811061085657505061077f565b818155600101610848565b909250829061083f56fea264697066735822122047fe286731fa1766ccdb3d23dcf5b81d270130397f1f3e43432f6272f68c06fd64736f6c63430008180033","opcodes":"PUSH1 0x80 DUP1 PUSH1 0x40 MSTORE CALLVALUE PUSH2 0x16 JUMPI PUSH2 0x8A1 SWAP1 DUP2 PUSH2 0x1C DUP3 CODECOPY RETURN JUMPDEST PUSH1 0x0 DUP1 REVERT INVALID PUSH1 0x40 PUSH1 0x80 DUP2 MSTORE PUSH1 0x4 SWAP1 DUP2 CALLDATASIZE LT ISZERO PUSH2 0x15 JUMPI PUSH1 0x0 DUP1 REVERT JUMPDEST PUSH1 0x0 SWAP1 DUP2 CALLDATALOAD PUSH1 0xE0 SHR DUP1 PUSH4 0x13B2AA69 EQ PUSH2 0x1D3 JUMPI DUP1 PUSH4 0x146C1415 EQ PUSH2 0x51F JUMPI DUP1 PUSH4 0x27843E4D EQ PUSH2 0x4C2 JUMPI DUP1 PUSH4 0x2A9F64AD EQ PUSH2 0x3DC JUMPI DUP1 PUSH4 0x9A7B4B2F EQ PUSH2 0x1A0 JUMPI DUP1 PUSH4 0x9DC0BE4D EQ PUSH2 0x3AB JUMPI DUP1 PUSH4 0xA7DBF936 EQ PUSH2 0x23B JUMPI DUP1 PUSH4 0xDEE4571B EQ PUSH2 0x213 JUMPI DUP1 PUSH4 0xE13D862A EQ PUSH2 0x1D3 JUMPI DUP1 PUSH4 0xE33D7B64 EQ PUSH2 0x1A0 JUMPI PUSH4 0xFC0DB64B EQ PUSH2 0x9A JUMPI PUSH1 0x0 DUP1 REVERT JUMPDEST CALLVALUE PUSH2 0x19C JUMPI PUSH1 0x20 SWAP3 DUP4 PUSH1 0x3 NOT CALLDATASIZE ADD SLT PUSH2 0x198 JUMPI DUP1 CALLDATALOAD DUP4 MSTORE PUSH1 0x1 SWAP4 PUSH1 0x1 DUP2 MSTORE DUP3 DUP5 KECCAK256 SWAP3 DUP4 SLOAD SWAP3 PUSH8 0xFFFFFFFFFFFFFFFF DUP5 GT PUSH2 0x185 JUMPI POP SWAP2 DUP5 SWAP1 DUP7 SWAP3 DUP5 MLOAD SWAP2 PUSH2 0xE6 DUP3 DUP3 PUSH1 0x5 SHL ADD DUP5 PUSH2 0x5E5 JUMP JUMPDEST DUP1 DUP4 MSTORE DUP2 DUP4 ADD DUP1 SWAP8 DUP6 MSTORE DUP3 DUP6 KECCAK256 DUP6 SWAP2 JUMPDEST DUP4 DUP4 LT PUSH2 0x158 JUMPI POP POP POP POP DUP5 MLOAD SWAP5 DUP2 DUP7 ADD SWAP3 DUP3 DUP8 MSTORE MLOAD DUP1 SWAP4 MSTORE DUP1 DUP7 ADD SWAP1 DUP4 PUSH1 0x5 SHL DUP8 ADD ADD SWAP7 SWAP4 SWAP1 JUMPDEST DUP4 DUP3 LT PUSH2 0x12B JUMPI DUP7 DUP9 SUB DUP8 RETURN JUMPDEST SWAP1 SWAP2 SWAP3 SWAP4 SWAP5 DUP4 DUP1 PUSH2 0x147 DUP4 SWAP11 PUSH1 0x3F NOT DUP12 DUP3 SUB ADD DUP7 MSTORE DUP10 MLOAD PUSH2 0x53D JUMP JUMPDEST SWAP10 SWAP8 ADD SWAP6 SWAP5 SWAP4 SWAP2 SWAP1 SWAP2 ADD SWAP2 ADD PUSH2 0x11E JUMP JUMPDEST SWAP1 DUP8 DUP1 DUP7 DUP2 SWAP13 SWAP11 SWAP6 SWAP5 PUSH2 0x16F DUP6 SWAP14 SWAP10 SWAP11 SWAP12 SWAP14 PUSH2 0x61D JUMP JUMPDEST DUP2 MSTORE ADD SWAP3 ADD SWAP3 ADD SWAP3 POP SWAP9 SWAP7 SWAP9 SWAP8 SWAP6 SWAP5 SWAP4 SWAP8 PUSH2 0xF6 JUMP JUMPDEST PUSH4 0x4E487B71 PUSH1 0xE0 SHL DUP7 MSTORE PUSH1 0x41 SWAP1 MSTORE PUSH1 0x24 DUP6 REVERT JUMPDEST DUP3 DUP1 REVERT JUMPDEST POP DUP1 REVERT JUMPDEST POP DUP3 CALLVALUE PUSH2 0x198 JUMPI PUSH1 0x20 CALLDATASIZE PUSH1 0x3 NOT ADD SLT PUSH2 0x198 JUMPI CALLDATALOAD DUP3 MSTORE PUSH1 0x2 PUSH1 0x20 SWAP1 DUP2 MSTORE SWAP2 DUP2 SWAP1 KECCAK256 SLOAD SWAP1 MLOAD PUSH1 0x1 PUSH1 0x1 PUSH1 0xA0 SHL SUB SWAP1 SWAP2 AND DUP2 MSTORE RETURN JUMPDEST POP DUP3 CALLVALUE PUSH2 0x198 JUMPI PUSH1 0x20 CALLDATASIZE PUSH1 0x3 NOT ADD SLT PUSH2 0x198 JUMPI DUP2 PUSH2 0x20F SWAP4 PUSH2 0x1FC SWAP3 CALLDATALOAD DUP2 MSTORE DUP1 PUSH1 0x20 MSTORE KECCAK256 PUSH2 0x61D JUMP JUMPDEST SWAP1 MLOAD SWAP2 DUP3 SWAP2 PUSH1 0x20 DUP4 MSTORE PUSH1 0x20 DUP4 ADD SWAP1 PUSH2 0x53D JUMP JUMPDEST SUB SWAP1 RETURN JUMPDEST POP DUP3 CALLVALUE PUSH2 0x198 JUMPI PUSH1 0x20 CALLDATASIZE PUSH1 0x3 NOT ADD SLT PUSH2 0x198 JUMPI PUSH1 0x20 SWAP3 DUP3 SWAP2 CALLDATALOAD DUP2 MSTORE PUSH1 0x1 DUP5 MSTORE KECCAK256 SLOAD SWAP1 MLOAD SWAP1 DUP2 MSTORE RETURN JUMPDEST POP DUP3 SWAP1 CALLVALUE PUSH2 0x198 JUMPI DUP1 PUSH1 0x3 NOT CALLDATASIZE ADD SLT PUSH2 0x198 JUMPI DUP2 CALLDATALOAD PUSH1 0x24 CALLDATALOAD PUSH8 0xFFFFFFFFFFFFFFFF DUP2 GT PUSH2 0x3A7 JUMPI PUSH2 0x26F SWAP1 CALLDATASIZE SWAP1 DUP6 ADD PUSH2 0x6C2 JUMP JUMPDEST DUP2 DUP6 MSTORE PUSH1 0x20 SWAP5 DUP1 DUP7 MSTORE PUSH2 0x284 DUP5 DUP3 KECCAK256 SLOAD PUSH2 0x5AB JUMP JUMPDEST ISZERO PUSH2 0x36E JUMPI PUSH2 0x295 DUP3 MLOAD ISZERO ISZERO PUSH2 0x71E JUMP JUMPDEST DUP3 DUP2 MSTORE PUSH1 0x1 DUP7 MSTORE DUP4 DUP2 KECCAK256 DUP1 SLOAD SWAP1 PUSH9 0x10000000000000000 DUP3 LT ISZERO PUSH2 0x35B JUMPI SWAP1 PUSH2 0x2C3 SWAP2 PUSH1 0x1 DUP3 ADD DUP2 SSTORE PUSH2 0x57D JUMP JUMPDEST PUSH2 0x349 JUMPI DUP3 PUSH2 0x2D1 SWAP2 PUSH2 0x758 JUMP JUMPDEST DUP3 DUP2 MSTORE PUSH1 0x1 DUP7 MSTORE DUP4 DUP2 KECCAK256 SLOAD PUSH1 0x0 NOT DUP2 ADD SWAP6 SWAP1 DUP7 GT PUSH2 0x336 JUMPI POP POP PUSH2 0x328 PUSH32 0x79D69A8C4831D6BF2D0C93F48F736DA01F826DA2675DA3289302A361861DD63D SWAP2 DUP5 MLOAD SWAP2 DUP3 SWAP2 DUP8 DUP4 MSTORE PUSH1 0x60 DUP10 DUP5 ADD MSTORE PUSH1 0x60 DUP4 ADD SWAP1 PUSH2 0x53D JUMP JUMPDEST TIMESTAMP DUP7 DUP4 ADD MSTORE SUB SWAP1 LOG2 MLOAD SWAP1 DUP2 MSTORE RETURN JUMPDEST PUSH4 0x4E487B71 PUSH1 0xE0 SHL DUP3 MSTORE PUSH1 0x11 SWAP1 MSTORE PUSH1 0x24 SWAP1 REVERT JUMPDEST PUSH4 0x4E487B71 PUSH1 0xE0 SHL DUP3 MSTORE DUP2 DUP7 MSTORE PUSH1 0x24 DUP3 REVERT JUMPDEST PUSH4 0x4E487B71 PUSH1 0xE0 SHL DUP4 MSTORE PUSH1 0x41 DUP8 MSTORE PUSH1 0x24 DUP4 REVERT JUMPDEST DUP4 MLOAD PUSH3 0x461BCD PUSH1 0xE5 SHL DUP2 MSTORE DUP1 DUP7 ADD DUP8 SWAP1 MSTORE PUSH1 0x13 PUSH1 0x24 DUP3 ADD MSTORE PUSH19 0x119BDC9B48191BD95CC81B9BDD08195E1A5CDD PUSH1 0x6A SHL PUSH1 0x44 DUP3 ADD MSTORE PUSH1 0x64 SWAP1 REVERT JUMPDEST DUP5 DUP1 REVERT JUMPDEST POP DUP3 CALLVALUE PUSH2 0x198 JUMPI PUSH1 0x20 CALLDATASIZE PUSH1 0x3 NOT ADD SLT PUSH2 0x198 JUMPI DUP2 PUSH1 0x20 SWAP4 PUSH2 0x3D3 SWAP3 CALLDATALOAD DUP2 MSTORE DUP1 DUP6 MSTORE KECCAK256 SLOAD PUSH2 0x5AB JUMP JUMPDEST ISZERO ISZERO SWAP1 MLOAD SWAP1 DUP2 MSTORE RETURN JUMPDEST POP CALLVALUE PUSH2 0x19C JUMPI PUSH1 0x20 CALLDATASIZE PUSH1 0x3 NOT ADD SLT PUSH2 0x19C JUMPI DUP3 CALLDATALOAD PUSH8 0xFFFFFFFFFFFFFFFF DUP2 GT PUSH2 0x198 JUMPI PUSH2 0x40C SWAP1 CALLDATASIZE SWAP1 DUP6 ADD PUSH2 0x6C2 JUMP JUMPDEST SWAP2 PUSH2 0x419 DUP4 MLOAD ISZERO ISZERO PUSH2 0x71E JUMP JUMPDEST PUSH1 0x3 SLOAD PUSH1 0x0 NOT DUP2 EQ PUSH2 0x4AF JUMPI PUSH1 0x20 SWAP5 POP SWAP1 PUSH1 0x1 DUP4 SWAP3 ADD DUP1 PUSH1 0x3 SSTORE DUP2 MSTORE DUP1 DUP6 MSTORE PUSH2 0x444 DUP5 DUP4 DUP4 KECCAK256 PUSH2 0x758 JUMP JUMPDEST PUSH1 0x3 SLOAD DUP2 MSTORE PUSH1 0x2 DUP6 MSTORE KECCAK256 CALLER PUSH12 0xFFFFFFFFFFFFFFFFFFFFFFFF PUSH1 0xA0 SHL DUP3 SLOAD AND OR SWAP1 SSTORE PUSH1 0x3 SLOAD SWAP2 DUP3 PUSH32 0xB2895F93825C573214014D04728457AB7EA2CA8C14EE95113DC52E1D172D9F42 PUSH2 0x49D DUP5 MLOAD SWAP4 DUP6 DUP6 MSTORE DUP6 DUP6 ADD SWAP1 PUSH2 0x53D JUMP JUMPDEST SWAP3 TIMESTAMP DUP8 DUP3 ADD MSTORE DUP1 CALLER SWAP5 SUB SWAP1 LOG3 MLOAD SWAP1 DUP2 MSTORE RETURN JUMPDEST PUSH4 0x4E487B71 PUSH1 0xE0 SHL DUP3 MSTORE PUSH1 0x11 DUP6 MSTORE PUSH1 0x24 DUP3 REVERT JUMPDEST POP SWAP1 CALLVALUE PUSH2 0x51C JUMPI DUP2 PUSH1 0x3 NOT CALLDATASIZE ADD SLT PUSH2 0x51C JUMPI PUSH1 0x24 CALLDATALOAD DUP4 CALLDATALOAD DUP3 MSTORE PUSH1 0x1 PUSH1 0x20 MSTORE DUP3 DUP3 KECCAK256 DUP1 SLOAD DUP3 LT ISZERO PUSH2 0x198 JUMPI SWAP1 PUSH2 0x4F6 SWAP2 PUSH2 0x57D JUMP JUMPDEST SWAP4 SWAP1 SWAP4 PUSH2 0x50A JUMPI PUSH2 0x20F DUP4 PUSH2 0x1FC DUP7 PUSH2 0x61D JUMP JUMPDEST PUSH4 0x4E487B71 PUSH1 0xE0 SHL DUP3 MSTORE DUP2 SWAP1 MSTORE PUSH1 0x24 SWAP1 REVERT JUMPDEST DUP1 REVERT JUMPDEST POP CALLVALUE PUSH2 0x19C JUMPI DUP2 PUSH1 0x3 NOT CALLDATASIZE ADD SLT PUSH2 0x19C JUMPI PUSH1 0x20 SWAP1 PUSH1 0x3 SLOAD SWAP1 MLOAD SWAP1 DUP2 MSTORE RETURN JUMPDEST SWAP2 SWAP1 DUP3 MLOAD SWAP3 DUP4 DUP3 MSTORE PUSH1 0x0 JUMPDEST DUP5 DUP2 LT PUSH2 0x569 JUMPI POP POP DUP3 PUSH1 0x0 PUSH1 0x20 DUP1 SWAP5 SWAP6 DUP5 ADD ADD MSTORE PUSH1 0x1F DUP1 NOT SWAP2 ADD AND ADD ADD SWAP1 JUMP JUMPDEST PUSH1 0x20 DUP2 DUP4 ADD DUP2 ADD MLOAD DUP5 DUP4 ADD DUP3 ADD MSTORE ADD PUSH2 0x548 JUMP JUMPDEST DUP1 SLOAD DUP3 LT ISZERO PUSH2 0x595 JUMPI PUSH1 0x0 MSTORE PUSH1 0x20 PUSH1 0x0 KECCAK256 ADD SWAP1 PUSH1 0x0 SWAP1 JUMP JUMPDEST PUSH4 0x4E487B71 PUSH1 0xE0 SHL PUSH1 0x0 MSTORE PUSH1 0x32 PUSH1 0x4 MSTORE PUSH1 0x24 PUSH1 0x0 REVERT JUMPDEST SWAP1 PUSH1 0x1 DUP3 DUP2 SHR SWAP3 AND DUP1 ISZERO PUSH2 0x5DB JUMPI JUMPDEST PUSH1 0x20 DUP4 LT EQ PUSH2 0x5C5 JUMPI JUMP JUMPDEST PUSH4 0x4E487B71 PUSH1 0xE0 SHL PUSH1 0x0 MSTORE PUSH1 0x22 PUSH1 0x4 MSTORE PUSH1 0x24 PUSH1 0x0 REVERT JUMPDEST SWAP2 PUSH1 0x7F AND SWAP2 PUSH2 0x5BA JUMP JUMPDEST SWAP1 PUSH1 0x1F DUP1 NOT SWAP2 ADD AND DUP2 ADD SWAP1 DUP2 LT PUSH8 0xFFFFFFFFFFFFFFFF DUP3 GT OR PUSH2 0x607 JUMPI PUSH1 0x40 MSTORE JUMP JUMPDEST PUSH4 0x4E487B71 PUSH1 0xE0 SHL PUSH1 0x0 MSTORE PUSH1 0x41 PUSH1 0x4 MSTORE PUSH1 0x24 PUSH1 0x0 REVERT JUMPDEST SWAP1 PUSH1 0x40 MLOAD SWAP2 DUP3 PUSH1 0x0 DUP3 SLOAD PUSH2 0x630 DUP2 PUSH2 0x5AB JUMP JUMPDEST SWAP1 DUP2 DUP5 MSTORE PUSH1 0x20 SWAP5 PUSH1 0x1 SWAP2 PUSH1 0x1 DUP2 AND SWAP1 DUP2 PUSH1 0x0 EQ PUSH2 0x6A0 JUMPI POP PUSH1 0x1 EQ PUSH2 0x661 JUMPI JUMPDEST POP POP POP PUSH2 0x65F SWAP3 POP SUB DUP4 PUSH2 0x5E5 JUMP JUMPDEST JUMP JUMPDEST PUSH1 0x0 SWAP1 DUP2 MSTORE DUP6 DUP2 KECCAK256 SWAP6 SWAP4 POP SWAP2 SWAP1 JUMPDEST DUP2 DUP4 LT PUSH2 0x688 JUMPI POP POP PUSH2 0x65F SWAP4 POP DUP3 ADD ADD CODESIZE DUP1 DUP1 PUSH2 0x650 JUMP JUMPDEST DUP6 SLOAD DUP9 DUP5 ADD DUP6 ADD MSTORE SWAP5 DUP6 ADD SWAP5 DUP8 SWAP5 POP SWAP2 DUP4 ADD SWAP2 PUSH2 0x66F JUMP JUMPDEST SWAP3 POP POP POP PUSH2 0x65F SWAP5 SWAP3 POP PUSH1 0xFF NOT AND DUP3 DUP5 ADD MSTORE ISZERO ISZERO PUSH1 0x5 SHL DUP3 ADD ADD CODESIZE DUP1 DUP1 PUSH2 0x650 JUMP JUMPDEST DUP2 PUSH1 0x1F DUP3 ADD SLT ISZERO PUSH2 0x719 JUMPI DUP1 CALLDATALOAD SWAP1 PUSH8 0xFFFFFFFFFFFFFFFF DUP3 GT PUSH2 0x607 JUMPI PUSH1 0x40 MLOAD SWAP3 PUSH2 0x6F7 PUSH1 0x1F DUP5 ADD PUSH1 0x1F NOT AND PUSH1 0x20 ADD DUP6 PUSH2 0x5E5 JUMP JUMPDEST DUP3 DUP5 MSTORE PUSH1 0x20 DUP4 DUP4 ADD ADD GT PUSH2 0x719 JUMPI DUP2 PUSH1 0x0 SWAP3 PUSH1 0x20 DUP1 SWAP4 ADD DUP4 DUP7 ADD CALLDATACOPY DUP4 ADD ADD MSTORE SWAP1 JUMP JUMPDEST PUSH1 0x0 DUP1 REVERT JUMPDEST ISZERO PUSH2 0x725 JUMPI JUMP JUMPDEST PUSH1 0x40 MLOAD PUSH3 0x461BCD PUSH1 0xE5 SHL DUP2 MSTORE PUSH1 0x20 PUSH1 0x4 DUP3 ADD MSTORE PUSH1 0xB PUSH1 0x24 DUP3 ADD MSTORE PUSH11 0x125B9D985B1A590810D251 PUSH1 0xAA SHL PUSH1 0x44 DUP3 ADD MSTORE PUSH1 0x64 SWAP1 REVERT JUMPDEST SWAP2 SWAP1 SWAP2 DUP3 MLOAD PUSH8 0xFFFFFFFFFFFFFFFF DUP2 GT PUSH2 0x607 JUMPI PUSH2 0x776 DUP3 SLOAD PUSH2 0x5AB JUMP JUMPDEST PUSH1 0x1F DUP2 GT PUSH2 0x821 JUMPI JUMPDEST POP PUSH1 0x20 DUP1 PUSH1 0x1F DUP4 GT PUSH1 0x1 EQ PUSH2 0x7BC JUMPI POP DUP2 SWAP3 SWAP4 SWAP5 PUSH1 0x0 SWAP3 PUSH2 0x7B1 JUMPI JUMPDEST POP POP DUP2 PUSH1 0x1 SHL SWAP2 PUSH1 0x0 NOT SWAP1 PUSH1 0x3 SHL SHR NOT AND OR SWAP1 SSTORE JUMP JUMPDEST ADD MLOAD SWAP1 POP CODESIZE DUP1 PUSH2 0x79B JUMP JUMPDEST SWAP1 PUSH1 0x1F NOT DUP4 AND SWAP6 DUP5 PUSH1 0x0 MSTORE PUSH1 0x20 PUSH1 0x0 KECCAK256 SWAP3 PUSH1 0x0 SWAP1 JUMPDEST DUP9 DUP3 LT PUSH2 0x809 JUMPI POP POP DUP4 PUSH1 0x1 SWAP6 SWAP7 SWAP8 LT PUSH2 0x7F0 JUMPI JUMPDEST POP POP POP DUP2 SHL ADD SWAP1 SSTORE JUMP JUMPDEST ADD MLOAD PUSH1 0x0 NOT PUSH1 0xF8 DUP5 PUSH1 0x3 SHL AND SHR NOT AND SWAP1 SSTORE CODESIZE DUP1 DUP1 PUSH2 0x7E6 JUMP JUMPDEST DUP1 PUSH1 0x1 DUP6 SWAP7 DUP3 SWAP5 SWAP7 DUP7 ADD MLOAD DUP2 SSTORE ADD SWAP6 ADD SWAP4 ADD SWAP1 PUSH2 0x7D1 JUMP JUMPDEST PUSH1 0x0 DUP4 PUSH1 0x0 MSTORE PUSH1 0x20 PUSH1 0x0 KECCAK256 PUSH1 0x1F DUP5 ADD PUSH1 0x5 SHR DUP2 ADD SWAP3 PUSH1 0x20 DUP6 LT PUSH2 0x861 JUMPI JUMPDEST PUSH1 0x1F ADD PUSH1 0x5 SHR ADD SWAP2 JUMPDEST DUP3 DUP2 LT PUSH2 0x856 JUMPI POP POP PUSH2 0x77F JUMP JUMPDEST DUP2 DUP2 SSTORE PUSH1 0x1 ADD PUSH2 0x848 JUMP JUMPDEST SWAP1 SWAP3 POP DUP3 SWAP1 PUSH2 0x83F JUMP INVALID LOG2 PUSH5 0x6970667358 0x22 SLT KECCAK256 SELFBALANCE INVALID 0x28 PUSH8 0x31FA1766CCDB3D23 0xDC CREATE2 0xB8 SAR 0x27 ADD ADDRESS CODECOPY PUSH32 0x1F3E43432F6272F68C06FD64736F6C6343000818003300000000000000000000 "},"methodIdentifiers":{"formCids(uint256)":"e13d862a","formCount()":"146c1415","formCreators(uint256)":"e33d7b64","formExists(uint256)":"9dc0be4d","getFormCid(uint256)":"13b2aa69","getFormCreator(uint256)":"9a7b4b2f","getResponseCids(uint256)":"fc0db64b","getResponseCount(uint256)":"dee4571b","registerForm(string)":"2a9f64ad","responseCids(uint256,uint256)":"27843e4d","submitResponse(uint256,string)":"a7dbf936"}}}}}